{
  "_format": "hh-sol-artifact-1",
  "contractName": "ContributionPoll",
  "sourceName": "contracts/ContributionPoll.sol",
  "abi": [
    {
      "anonymous": false,
      "inputs": [
        {
          "indexed": false,
          "internalType": "int256",
          "name": "pollId",
          "type": "int256"
        },
        {
          "indexed": true,
          "internalType": "address",
          "name": "candidate",
          "type": "address"
        }
      ],
      "name": "Candidated",
      "type": "event"
    },
    {
      "anonymous": false,
      "inputs": [
        {
          "indexed": false,
          "internalType": "int256",
          "name": "pollId",
          "type": "int256"
        }
      ],
      "name": "CreatePoll",
      "type": "event"
    },
    {
      "anonymous": false,
      "inputs": [
        {
          "indexed": true,
          "internalType": "address",
          "name": "sender",
          "type": "address"
        },
        {
          "indexed": false,
          "internalType": "uint256",
          "name": "amount",
          "type": "uint256"
        }
      ],
      "name": "Deposited",
      "type": "event"
    },
    {
      "anonymous": false,
      "inputs": [
        {
          "indexed": true,
          "internalType": "address",
          "name": "previousOwner",
          "type": "address"
        },
        {
          "indexed": true,
          "internalType": "address",
          "name": "newOwner",
          "type": "address"
        }
      ],
      "name": "OwnershipTransferred",
      "type": "event"
    },
    {
      "anonymous": false,
      "inputs": [
        {
          "indexed": false,
          "internalType": "address",
          "name": "account",
          "type": "address"
        }
      ],
      "name": "Paused",
      "type": "event"
    },
    {
      "anonymous": false,
      "inputs": [
        {
          "indexed": false,
          "internalType": "uint256",
          "name": "amount",
          "type": "uint256"
        },
        {
          "indexed": false,
          "internalType": "uint256",
          "name": "payedAmount",
          "type": "uint256"
        }
      ],
      "name": "RequestForTokenToEth",
      "type": "event"
    },
    {
      "anonymous": false,
      "inputs": [
        {
          "indexed": true,
          "internalType": "bytes32",
          "name": "role",
          "type": "bytes32"
        },
        {
          "indexed": true,
          "internalType": "bytes32",
          "name": "previousAdminRole",
          "type": "bytes32"
        },
        {
          "indexed": true,
          "internalType": "bytes32",
          "name": "newAdminRole",
          "type": "bytes32"
        }
      ],
      "name": "RoleAdminChanged",
      "type": "event"
    },
    {
      "anonymous": false,
      "inputs": [
        {
          "indexed": true,
          "internalType": "bytes32",
          "name": "role",
          "type": "bytes32"
        },
        {
          "indexed": true,
          "internalType": "address",
          "name": "account",
          "type": "address"
        },
        {
          "indexed": true,
          "internalType": "address",
          "name": "sender",
          "type": "address"
        }
      ],
      "name": "RoleGranted",
      "type": "event"
    },
    {
      "anonymous": false,
      "inputs": [
        {
          "indexed": true,
          "internalType": "bytes32",
          "name": "role",
          "type": "bytes32"
        },
        {
          "indexed": true,
          "internalType": "address",
          "name": "account",
          "type": "address"
        },
        {
          "indexed": true,
          "internalType": "address",
          "name": "sender",
          "type": "address"
        }
      ],
      "name": "RoleRevoked",
      "type": "event"
    },
    {
      "anonymous": false,
      "inputs": [
        {
          "indexed": false,
          "internalType": "int256",
          "name": "pollId",
          "type": "int256"
        }
      ],
      "name": "SettlePoll",
      "type": "event"
    },
    {
      "anonymous": false,
      "inputs": [
        {
          "indexed": false,
          "internalType": "address",
          "name": "account",
          "type": "address"
        }
      ],
      "name": "Unpaused",
      "type": "event"
    },
    {
      "anonymous": false,
      "inputs": [
        {
          "indexed": false,
          "internalType": "int256",
          "name": "pollId",
          "type": "int256"
        },
        {
          "indexed": true,
          "internalType": "address",
          "name": "voter",
          "type": "address"
        }
      ],
      "name": "Voted",
      "type": "event"
    },
    {
      "anonymous": false,
      "inputs": [
        {
          "indexed": false,
          "internalType": "int256",
          "name": "pollId",
          "type": "int256"
        },
        {
          "indexed": false,
          "internalType": "bool",
          "name": "enabled",
          "type": "bool"
        }
      ],
      "name": "VotingEnabled",
      "type": "event"
    },
    {
      "inputs": [],
      "name": "CONTRIBUTOR_ASSIGNMENT_TOKEN",
      "outputs": [
        {
          "internalType": "uint256",
          "name": "",
          "type": "uint256"
        }
      ],
      "stateMutability": "view",
      "type": "function"
    },
    {
      "inputs": [],
      "name": "DEFAULT_ADMIN_ROLE",
      "outputs": [
        {
          "internalType": "bytes32",
          "name": "",
          "type": "bytes32"
        }
      ],
      "stateMutability": "view",
      "type": "function"
    },
    {
      "inputs": [],
      "name": "POLL_ADMIN_ROLE",
      "outputs": [
        {
          "internalType": "bytes32",
          "name": "",
          "type": "bytes32"
        }
      ],
      "stateMutability": "view",
      "type": "function"
    },
    {
      "inputs": [],
      "name": "RANK_FOR_VOTE",
      "outputs": [
        {
          "internalType": "uint256",
          "name": "",
          "type": "uint256"
        }
      ],
      "stateMutability": "view",
      "type": "function"
    },
    {
      "inputs": [],
      "name": "SUPPORTER_ASSIGNMENT_TOKEN",
      "outputs": [
        {
          "internalType": "uint256",
          "name": "",
          "type": "uint256"
        }
      ],
      "stateMutability": "view",
      "type": "function"
    },
    {
      "inputs": [],
      "name": "VOTE_MAX_POINT",
      "outputs": [
        {
          "internalType": "uint256",
          "name": "",
          "type": "uint256"
        }
      ],
      "stateMutability": "view",
      "type": "function"
    },
    {
      "inputs": [],
      "name": "candidateToContributionPoll",
      "outputs": [],
      "stateMutability": "nonpayable",
      "type": "function"
    },
    {
      "inputs": [
        {
          "internalType": "int256",
          "name": "",
          "type": "int256"
        },
        {
          "internalType": "uint256",
          "name": "",
          "type": "uint256"
        }
      ],
      "name": "candidates",
      "outputs": [
        {
          "internalType": "address",
          "name": "",
          "type": "address"
        }
      ],
      "stateMutability": "view",
      "type": "function"
    },
    {
      "inputs": [],
      "name": "daoTokenAddress",
      "outputs": [
        {
          "internalType": "address",
          "name": "",
          "type": "address"
        }
      ],
      "stateMutability": "view",
      "type": "function"
    },
    {
      "inputs": [],
      "name": "getCurrentCandidates",
      "outputs": [
        {
          "internalType": "address[]",
          "name": "",
          "type": "address[]"
        }
      ],
      "stateMutability": "view",
      "type": "function"
    },
    {
      "inputs": [],
      "name": "getCurrentVoters",
      "outputs": [
        {
          "internalType": "address[]",
          "name": "",
          "type": "address[]"
        }
      ],
      "stateMutability": "view",
      "type": "function"
    },
    {
      "inputs": [],
      "name": "getCurrentVotes",
      "outputs": [
        {
          "components": [
            {
              "internalType": "address",
              "name": "voter",
              "type": "address"
            },
            {
              "internalType": "address[]",
              "name": "candidates",
              "type": "address[]"
            },
            {
              "internalType": "uint256[]",
              "name": "points",
              "type": "uint256[]"
            }
          ],
          "internalType": "struct Vote[]",
          "name": "",
          "type": "tuple[]"
        }
      ],
      "stateMutability": "view",
      "type": "function"
    },
    {
      "inputs": [
        {
          "internalType": "bytes32",
          "name": "role",
          "type": "bytes32"
        }
      ],
      "name": "getRoleAdmin",
      "outputs": [
        {
          "internalType": "bytes32",
          "name": "",
          "type": "bytes32"
        }
      ],
      "stateMutability": "view",
      "type": "function"
    },
    {
      "inputs": [
        {
          "internalType": "bytes32",
          "name": "role",
          "type": "bytes32"
        },
        {
          "internalType": "address",
          "name": "account",
          "type": "address"
        }
      ],
      "name": "grantRole",
      "outputs": [],
      "stateMutability": "nonpayable",
      "type": "function"
    },
    {
      "inputs": [
        {
          "internalType": "bytes32",
          "name": "role",
          "type": "bytes32"
        },
        {
          "internalType": "address",
          "name": "account",
          "type": "address"
        }
      ],
      "name": "hasRole",
      "outputs": [
        {
          "internalType": "bool",
          "name": "",
          "type": "bool"
        }
      ],
      "stateMutability": "view",
      "type": "function"
    },
    {
      "inputs": [],
      "name": "owner",
      "outputs": [
        {
          "internalType": "address",
          "name": "",
          "type": "address"
        }
      ],
      "stateMutability": "view",
      "type": "function"
    },
    {
      "inputs": [],
      "name": "paused",
      "outputs": [
        {
          "internalType": "bool",
          "name": "",
          "type": "bool"
        }
      ],
      "stateMutability": "view",
      "type": "function"
    },
    {
      "inputs": [],
      "name": "pollId",
      "outputs": [
        {
          "internalType": "int256",
          "name": "",
          "type": "int256"
        }
      ],
      "stateMutability": "view",
      "type": "function"
    },
    {
      "inputs": [],
      "name": "renounceOwnership",
      "outputs": [],
      "stateMutability": "nonpayable",
      "type": "function"
    },
    {
      "inputs": [
        {
          "internalType": "bytes32",
          "name": "role",
          "type": "bytes32"
        },
        {
          "internalType": "address",
          "name": "account",
          "type": "address"
        }
      ],
      "name": "renounceRole",
      "outputs": [],
      "stateMutability": "nonpayable",
      "type": "function"
    },
    {
      "inputs": [
        {
          "internalType": "bytes32",
          "name": "role",
          "type": "bytes32"
        },
        {
          "internalType": "address",
          "name": "account",
          "type": "address"
        }
      ],
      "name": "revokeRole",
      "outputs": [],
      "stateMutability": "nonpayable",
      "type": "function"
    },
    {
      "inputs": [
        {
          "internalType": "uint256",
          "name": "_contributorAssignmentToken",
          "type": "uint256"
        }
      ],
      "name": "setContributorAssignmentToken",
      "outputs": [],
      "stateMutability": "nonpayable",
      "type": "function"
    },
    {
      "inputs": [
        {
          "internalType": "address",
          "name": "_daoTokenAddress",
          "type": "address"
        }
      ],
      "name": "setDaoTokenAddress",
      "outputs": [],
      "stateMutability": "nonpayable",
      "type": "function"
    },
    {
      "inputs": [
        {
          "internalType": "address",
          "name": "_address",
          "type": "address"
        }
      ],
      "name": "setPollAdminRole",
      "outputs": [],
      "stateMutability": "nonpayable",
      "type": "function"
    },
    {
      "inputs": [
        {
          "internalType": "uint256",
          "name": "_rankForVote",
          "type": "uint256"
        }
      ],
      "name": "setRankForVote",
      "outputs": [],
      "stateMutability": "nonpayable",
      "type": "function"
    },
    {
      "inputs": [
        {
          "internalType": "uint256",
          "name": "_supporterAssignmentToken",
          "type": "uint256"
        }
      ],
      "name": "setSupporterAssignmentToken",
      "outputs": [],
      "stateMutability": "nonpayable",
      "type": "function"
    },
    {
      "inputs": [
        {
          "internalType": "uint256",
          "name": "_voteMaxPoint",
          "type": "uint256"
        }
      ],
      "name": "setVoteMaxPoint",
      "outputs": [],
      "stateMutability": "nonpayable",
      "type": "function"
    },
    {
      "inputs": [
        {
          "internalType": "bool",
          "name": "_votingEnabled",
          "type": "bool"
        }
      ],
      "name": "setVotingEnabled",
      "outputs": [],
      "stateMutability": "nonpayable",
      "type": "function"
    },
    {
      "inputs": [],
      "name": "settleCurrentPollAndCreateNewPoll",
      "outputs": [],
      "stateMutability": "nonpayable",
      "type": "function"
    },
    {
      "inputs": [
        {
          "internalType": "bytes4",
          "name": "interfaceId",
          "type": "bytes4"
        }
      ],
      "name": "supportsInterface",
      "outputs": [
        {
          "internalType": "bool",
          "name": "",
          "type": "bool"
        }
      ],
      "stateMutability": "view",
      "type": "function"
    },
    {
      "inputs": [
        {
          "internalType": "address",
          "name": "newOwner",
          "type": "address"
        }
      ],
      "name": "transferOwnership",
      "outputs": [],
      "stateMutability": "nonpayable",
      "type": "function"
    },
    {
      "inputs": [
        {
          "internalType": "address[]",
          "name": "_candidates",
          "type": "address[]"
        },
        {
          "internalType": "uint256[]",
          "name": "_points",
          "type": "uint256[]"
        }
      ],
      "name": "vote",
      "outputs": [
        {
          "internalType": "bool",
          "name": "",
          "type": "bool"
        }
      ],
      "stateMutability": "nonpayable",
      "type": "function"
    },
    {
      "inputs": [
        {
          "internalType": "int256",
          "name": "",
          "type": "int256"
        },
        {
          "internalType": "uint256",
          "name": "",
          "type": "uint256"
        }
      ],
      "name": "votes",
      "outputs": [
        {
          "internalType": "address",
          "name": "voter",
          "type": "address"
        }
      ],
      "stateMutability": "view",
      "type": "function"
    },
    {
      "inputs": [],
      "name": "votingEnabled",
      "outputs": [
        {
          "internalType": "bool",
          "name": "",
          "type": "bool"
        }
      ],
      "stateMutability": "view",
      "type": "function"
    }
  ],
  "bytecode": "0x60806040526000600355600a600555611388600655610bb860075560146008556001600960006101000a81548160ff0219169083151502179055503480156200004757600080fd5b50620000686200005c6200009160201b60201c565b6200009960201b60201c565b6000600160146101000a81548160ff02191690831515021790555060016002819055506200015f565b600033905090565b6000600160009054906101000a900473ffffffffffffffffffffffffffffffffffffffff16905081600160006101000a81548173ffffffffffffffffffffffffffffffffffffffff021916908373ffffffffffffffffffffffffffffffffffffffff1602179055508173ffffffffffffffffffffffffffffffffffffffff168173ffffffffffffffffffffffffffffffffffffffff167f8be0079c531659141344cd1fd0a4f28419497f9722a3daafe3b4186f6b6457e060405160405180910390a35050565b614661806200016f6000396000f3fe608060405234801561001057600080fd5b50600436106102065760003560e01c80638b8ef8d21161011a578063d384e4d4116100ad578063d76e79d41161007c578063d76e79d414610591578063d8b1ebac1461059b578063e499943f146105cb578063f2fde38b146105e9578063fc39870b1461060557610206565b8063d384e4d41461051d578063d47587f21461053b578063d519ffa414610559578063d547741f1461057557610206565b8063a5f38fa3116100e9578063a5f38fa3146104a9578063bb3c6ebb146104c7578063c2f33e54146104e5578063cb6535541461050157610206565b80638b8ef8d2146104215780638da5cb5b1461043d57806391d148541461045b578063a217fddf1461048b57610206565b8063248a9ca31161019d578063640e11681161016c578063640e11681461038d5780636f13ab00146103ab5780636f816a20146103c9578063715018a6146103f957806372b4ca471461040357610206565b8063248a9ca3146103075780632f2ff15d1461033757806336568abe146103535780635c975abb1461036f57610206565b80631c5c1210116101d95780631c5c1210146102935780631dbc1366146102b1578063214750c2146102e157806323868491146102eb57610206565b806301ffc9a71461020b57806302decedb1461023b5780630494c395146102575780631c00472914610275575b600080fd5b61022560048036038101906102209190612d52565b610621565b6040516102329190612d9a565b60405180910390f35b61025560048036038101906102509190612deb565b61069b565b005b61025f61070e565b60405161026c9190612f08565b60405180910390f35b61027d61099d565b60405161028a9190612f39565b60405180910390f35b61029b6109c3565b6040516102a89190612f63565b60405180910390f35b6102cb60048036038101906102c69190612fb4565b6109c9565b6040516102d89190612f39565b60405180910390f35b6102e9610a17565b005b61030560048036038101906103009190613020565b610bde565b005b610321600480360381019061031c9190613083565b610cae565b60405161032e91906130bf565b60405180910390f35b610351600480360381019061034c9190613106565b610ccd565b005b61036d60048036038101906103689190613106565b610cee565b005b610377610d71565b6040516103849190612d9a565b60405180910390f35b610395610d88565b6040516103a29190612d9a565b60405180910390f35b6103b3610d9b565b6040516103c09190613155565b60405180910390f35b6103e360048036038101906103de919061338c565b610da1565b6040516103f09190612d9a565b60405180910390f35b610401611343565b005b61040b611357565b604051610418919061364a565b60405180910390f35b61043b60048036038101906104369190612deb565b611505565b005b610445611578565b6040516104529190612f39565b60405180910390f35b61047560048036038101906104709190613106565b6115a2565b6040516104829190612d9a565b60405180910390f35b61049361160c565b6040516104a091906130bf565b60405180910390f35b6104b1611613565b6040516104be9190612f63565b60405180910390f35b6104cf611619565b6040516104dc9190612f63565b60405180910390f35b6104ff60048036038101906104fa9190612deb565b61161f565b005b61051b60048036038101906105169190612deb565b611692565b005b610525611705565b6040516105329190612f08565b60405180910390f35b6105436117a6565b6040516105509190612f63565b60405180910390f35b610573600480360381019061056e919061366c565b6117ac565b005b61058f600480360381019061058a9190613106565b6117f8565b005b610599611819565b005b6105b560048036038101906105b09190612fb4565b6118f0565b6040516105c29190612f39565b60405180910390f35b6105d361194b565b6040516105e091906130bf565b60405180910390f35b61060360048036038101906105fe919061366c565b61196f565b005b61061f600480360381019061061a919061366c565b6119f3565b005b60007f7965db0b000000000000000000000000000000000000000000000000000000007bffffffffffffffffffffffffffffffffffffffffffffffffffffffff1916827bffffffffffffffffffffffffffffffffffffffffffffffffffffffff19161480610694575061069382611a28565b5b9050919050565b6106c57f05477c39c14a8a45f68e248e875c7b89913df266bcc8ea9804f3160438f36dfd336115a2565b610704576040517f08c379a00000000000000000000000000000000000000000000000000000000081526004016106fb906136f6565b60405180910390fd5b8060068190555050565b60606000600b60006003548152602001908152602001600020805480602002602001604051908101604052809291908181526020016000905b828210156108b557838290600052602060002090600302016040518060600160405290816000820160009054906101000a900473ffffffffffffffffffffffffffffffffffffffff1673ffffffffffffffffffffffffffffffffffffffff1673ffffffffffffffffffffffffffffffffffffffff1681526020016001820180548060200260200160405190810160405280929190818152602001828054801561084557602002820191906000526020600020905b8160009054906101000a900473ffffffffffffffffffffffffffffffffffffffff1673ffffffffffffffffffffffffffffffffffffffff16815260200190600101908083116107fb575b505050505081526020016002820180548060200260200160405190810160405280929190818152602001828054801561089d57602002820191906000526020600020905b815481526020019060010190808311610889575b50505050508152505081526020019060010190610747565b5050505090506000815167ffffffffffffffff8111156108d8576108d7613186565b5b6040519080825280602002602001820160405280156109065781602001602082028036833780820191505090505b50905060005b82518110156109945782818151811061092857610927613716565b5b60200260200101516000015182828151811061094757610946613716565b5b602002602001019073ffffffffffffffffffffffffffffffffffffffff16908173ffffffffffffffffffffffffffffffffffffffff1681525050808061098c90613774565b91505061090c565b50809250505090565b600460009054906101000a900473ffffffffffffffffffffffffffffffffffffffff1681565b60055481565b600a60205281600052604060002081815481106109e557600080fd5b906000526020600020016000915091509054906101000a900473ffffffffffffffffffffffffffffffffffffffff1681565b610a1f611a92565b60005b600a6000600354815260200190815260200160002080549050811015610b15573373ffffffffffffffffffffffffffffffffffffffff16600a600060035481526020019081526020016000208281548110610a8057610a7f613716565b5b9060005260206000200160009054906101000a900473ffffffffffffffffffffffffffffffffffffffff1673ffffffffffffffffffffffffffffffffffffffff161415610b02576040517f08c379a0000000000000000000000000000000000000000000000000000000008152600401610af99061382f565b60405180910390fd5b8080610b0d90613774565b915050610a22565b50600a60006003548152602001908152602001600020339080600181540180825580915050600190039060005260206000200160009091909190916101000a81548173ffffffffffffffffffffffffffffffffffffffff021916908373ffffffffffffffffffffffffffffffffffffffff1602179055503373ffffffffffffffffffffffffffffffffffffffff167f48f50cc4c081867b26157ea6fbeb68ca3459ce4cfbfcf65d23a369dea7a0eacb600354604051610bd49190613155565b60405180910390a2565b610c087f05477c39c14a8a45f68e248e875c7b89913df266bcc8ea9804f3160438f36dfd336115a2565b610c47576040517f08c379a0000000000000000000000000000000000000000000000000000000008152600401610c3e906136f6565b60405180910390fd5b80600960006101000a81548160ff0219169083151502179055507f067b18de61d0dc3585d5a4ff767f5521c1a49e022ff8cd0d3e510748dc3f5c1a600354600960009054906101000a900460ff16604051610ca392919061384f565b60405180910390a150565b6000806000838152602001908152602001600020600101549050919050565b610cd682610cae565b610cdf81611adc565b610ce98383611af0565b505050565b610cf6611bd0565b73ffffffffffffffffffffffffffffffffffffffff168173ffffffffffffffffffffffffffffffffffffffff1614610d63576040517f08c379a0000000000000000000000000000000000000000000000000000000008152600401610d5a906138ea565b60405180910390fd5b610d6d8282611bd8565b5050565b6000600160149054906101000a900460ff16905090565b600960009054906101000a900460ff1681565b60035481565b6000610dab611a92565b600960009054906101000a900460ff16610dfa576040517f08c379a0000000000000000000000000000000000000000000000000000000008152600401610df1906139a2565b60405180910390fd5b610e02611cb9565b610e41576040517f08c379a0000000000000000000000000000000000000000000000000000000008152600401610e3890613a34565b60405180910390fd5b6000610e4b61070e565b9050610e578133611d92565b15610e97576040517f08c379a0000000000000000000000000000000000000000000000000000000008152600401610e8e90613aa0565b60405180910390fd5b600084511415610edc576040517f08c379a0000000000000000000000000000000000000000000000000000000008152600401610ed390613b0c565b60405180910390fd5b8351835114610f20576040517f08c379a0000000000000000000000000000000000000000000000000000000008152600401610f1790613b9e565b60405180910390fd5b60005b845181101561116857610fe9600a60006003548152602001908152602001600020805480602002602001604051908101604052809291908181526020018280548015610fc457602002820191906000526020600020905b8160009054906101000a900473ffffffffffffffffffffffffffffffffffffffff1673ffffffffffffffffffffffffffffffffffffffff1681526020019060010190808311610f7a575b5050505050868381518110610fdc57610fdb613716565b5b6020026020010151611d92565b611028576040517f08c379a000000000000000000000000000000000000000000000000000000000815260040161101f90613c30565b60405180910390fd5b600084828151811061103d5761103c613716565b5b60200260200101511015611086576040517f08c379a000000000000000000000000000000000000000000000000000000000815260040161107d90613cc2565b60405180910390fd5b60085484828151811061109c5761109b613716565b5b602002602001015111156110e5576040517f08c379a00000000000000000000000000000000000000000000000000000000081526004016110dc90613d54565b60405180910390fd5b3373ffffffffffffffffffffffffffffffffffffffff1685828151811061110f5761110e613716565b5b602002602001015173ffffffffffffffffffffffffffffffffffffffff16141561115557600084828151811061114857611147613716565b5b6020026020010181815250505b808061116090613774565b915050610f23565b50600060405180606001604052803373ffffffffffffffffffffffffffffffffffffffff16815260200186815260200185815250905060006111a982611e1a565b905060005b826020015151811015611223576111ed6111e7846040015183815181106111d8576111d7613716565b5b60200260200101516064611ebb565b83611ef8565b8360400151828151811061120457611203613716565b5b602002602001018181525050808061121b90613774565b9150506111ae565b50600b6000600354815260200190815260200160002082908060018154018082558091505060019003906000526020600020906003020160009091909190915060008201518160000160006101000a81548173ffffffffffffffffffffffffffffffffffffffff021916908373ffffffffffffffffffffffffffffffffffffffff16021790555060208201518160010190805190602001906112c6929190612bf2565b5060408201518160020190805190602001906112e3929190612c7c565b5050503373ffffffffffffffffffffffffffffffffffffffff167f74d71f5f66a08d53492d6aa116e026a64e461e6de2bad0b1c35d27bb7c5158a660035460405161132e9190613155565b60405180910390a26001935050505092915050565b61134b611fb9565b6113556000612037565b565b6060600b60006003548152602001908152602001600020805480602002602001604051908101604052809291908181526020016000905b828210156114fc57838290600052602060002090600302016040518060600160405290816000820160009054906101000a900473ffffffffffffffffffffffffffffffffffffffff1673ffffffffffffffffffffffffffffffffffffffff1673ffffffffffffffffffffffffffffffffffffffff1681526020016001820180548060200260200160405190810160405280929190818152602001828054801561148c57602002820191906000526020600020905b8160009054906101000a900473ffffffffffffffffffffffffffffffffffffffff1673ffffffffffffffffffffffffffffffffffffffff1681526020019060010190808311611442575b50505050508152602001600282018054806020026020016040519081016040528092919081815260200182805480156114e457602002820191906000526020600020905b8154815260200190600101908083116114d0575b5050505050815250508152602001906001019061138e565b50505050905090565b61152f7f05477c39c14a8a45f68e248e875c7b89913df266bcc8ea9804f3160438f36dfd336115a2565b61156e576040517f08c379a0000000000000000000000000000000000000000000000000000000008152600401611565906136f6565b60405180910390fd5b8060078190555050565b6000600160009054906101000a900473ffffffffffffffffffffffffffffffffffffffff16905090565b600080600084815260200190815260200160002060000160008373ffffffffffffffffffffffffffffffffffffffff1673ffffffffffffffffffffffffffffffffffffffff16815260200190815260200160002060009054906101000a900460ff16905092915050565b6000801b81565b60075481565b60085481565b6116497f05477c39c14a8a45f68e248e875c7b89913df266bcc8ea9804f3160438f36dfd336115a2565b611688576040517f08c379a000000000000000000000000000000000000000000000000000000000815260040161167f906136f6565b60405180910390fd5b8060088190555050565b6116bc7f05477c39c14a8a45f68e248e875c7b89913df266bcc8ea9804f3160438f36dfd336115a2565b6116fb576040517f08c379a00000000000000000000000000000000000000000000000000000000081526004016116f2906136f6565b60405180910390fd5b8060058190555050565b6060600a6000600354815260200190815260200160002080548060200260200160405190810160405280929190818152602001828054801561179c57602002820191906000526020600020905b8160009054906101000a900473ffffffffffffffffffffffffffffffffffffffff1673ffffffffffffffffffffffffffffffffffffffff1681526020019060010190808311611752575b5050505050905090565b60065481565b6117b4611fb9565b80600460006101000a81548173ffffffffffffffffffffffffffffffffffffffff021916908373ffffffffffffffffffffffffffffffffffffffff16021790555050565b61180182610cae565b61180a81611adc565b6118148383611bd8565b505050565b611821611a92565b600280541415611866576040517f08c379a000000000000000000000000000000000000000000000000000000000815260040161185d90613dc0565b60405180910390fd5b600280819055506118977f05477c39c14a8a45f68e248e875c7b89913df266bcc8ea9804f3160438f36dfd336115a2565b6118d6576040517f08c379a00000000000000000000000000000000000000000000000000000000081526004016118cd906136f6565b60405180910390fd5b6118de6120fd565b6118e661268c565b6001600281905550565b600b602052816000526040600020818154811061190c57600080fd5b9060005260206000209060030201600091509150508060000160009054906101000a900473ffffffffffffffffffffffffffffffffffffffff16905081565b7f05477c39c14a8a45f68e248e875c7b89913df266bcc8ea9804f3160438f36dfd81565b611977611fb9565b600073ffffffffffffffffffffffffffffffffffffffff168173ffffffffffffffffffffffffffffffffffffffff1614156119e7576040517f08c379a00000000000000000000000000000000000000000000000000000000081526004016119de90613e52565b60405180910390fd5b6119f081612037565b50565b6119fb611fb9565b611a257f05477c39c14a8a45f68e248e875c7b89913df266bcc8ea9804f3160438f36dfd826126df565b50565b60007f01ffc9a7000000000000000000000000000000000000000000000000000000007bffffffffffffffffffffffffffffffffffffffffffffffffffffffff1916827bffffffffffffffffffffffffffffffffffffffffffffffffffffffff1916149050919050565b611a9a610d71565b15611ada576040517f08c379a0000000000000000000000000000000000000000000000000000000008152600401611ad190613ebe565b60405180910390fd5b565b611aed81611ae8611bd0565b6126ed565b50565b611afa82826115a2565b611bcc57600160008084815260200190815260200160002060000160008373ffffffffffffffffffffffffffffffffffffffff1673ffffffffffffffffffffffffffffffffffffffff16815260200190815260200160002060006101000a81548160ff021916908315150217905550611b71611bd0565b73ffffffffffffffffffffffffffffffffffffffff168173ffffffffffffffffffffffffffffffffffffffff16837f2f8788117e7eff1d82e926ec794901d17c78024a50270940304540a733656f0d60405160405180910390a45b5050565b600033905090565b611be282826115a2565b15611cb557600080600084815260200190815260200160002060000160008373ffffffffffffffffffffffffffffffffffffffff1673ffffffffffffffffffffffffffffffffffffffff16815260200190815260200160002060006101000a81548160ff021916908315150217905550611c5a611bd0565b73ffffffffffffffffffffffffffffffffffffffff168173ffffffffffffffffffffffffffffffffffffffff16837ff6391f5c32d9c69d2a47ea670b442974b53935d1edc7fd64eb21e047a839171b60405160405180910390a45b5050565b600080600460009054906101000a900473ffffffffffffffffffffffffffffffffffffffff169050611d7a8173ffffffffffffffffffffffffffffffffffffffff1663b6b806056005546040518263ffffffff1660e01b8152600401611d1f9190612f63565b60006040518083038186803b158015611d3757600080fd5b505afa158015611d4b573d6000803e3d6000fd5b505050506040513d6000823e3d601f19601f82011682018060405250810190611d749190613f8a565b33611d92565b15611d89576001915050611d8f565b60009150505b90565b600080600090505b8351811015611e0e578273ffffffffffffffffffffffffffffffffffffffff16848281518110611dcd57611dcc613716565b5b602002602001015173ffffffffffffffffffffffffffffffffffffffff161415611dfb576001915050611e14565b8080611e0690613774565b915050611d9a565b50600090505b92915050565b6000806000905060005b836020015151811015611e6e57611e598285604001518381518110611e4c57611e4b613716565b5b602002602001015161278a565b91508080611e6690613774565b915050611e24565b5060008111611eb2576040517f08c379a0000000000000000000000000000000000000000000000000000000008152600401611ea990614045565b60405180910390fd5b80915050919050565b6000808284611eca9190614065565b90506000841480611ee55750828482611ee391906140ee565b145b611eee57600080fd5b8091505092915050565b6000808211611f3c576040517f08c379a0000000000000000000000000000000000000000000000000000000008152600401611f339061416b565b60405180910390fd5b60008284611f4a91906140ee565b90508284611f58919061418b565b8184611f649190614065565b611f6e91906141bc565b8414611faf576040517f08c379a0000000000000000000000000000000000000000000000000000000008152600401611fa69061425e565b60405180910390fd5b8091505092915050565b611fc1611bd0565b73ffffffffffffffffffffffffffffffffffffffff16611fdf611578565b73ffffffffffffffffffffffffffffffffffffffff1614612035576040517f08c379a000000000000000000000000000000000000000000000000000000000815260040161202c906142ca565b60405180910390fd5b565b6000600160009054906101000a900473ffffffffffffffffffffffffffffffffffffffff16905081600160006101000a81548173ffffffffffffffffffffffffffffffffffffffff021916908373ffffffffffffffffffffffffffffffffffffffff1602179055508173ffffffffffffffffffffffffffffffffffffffff168173ffffffffffffffffffffffffffffffffffffffff167f8be0079c531659141344cd1fd0a4f28419497f9722a3daafe3b4186f6b6457e060405160405180910390a35050565b6000600a6000600354815260200190815260200160002080548060200260200160405190810160405280929190818152602001828054801561219457602002820191906000526020600020905b8160009054906101000a900473ffffffffffffffffffffffffffffffffffffffff1673ffffffffffffffffffffffffffffffffffffffff168152602001906001019080831161214a575b505050505090506000600a600060035481526020019081526020016000208054905067ffffffffffffffff8111156121cf576121ce613186565b5b6040519080825280602002602001820160405280156121fd5781602001602082028036833780820191505090505b509050600061220a61070e565b905060005b600b60006003548152602001908152602001600020805490508110156124e5576000600b60006003548152602001908152602001600020828154811061225857612257613716565b5b90600052602060002090600302016040518060600160405290816000820160009054906101000a900473ffffffffffffffffffffffffffffffffffffffff1673ffffffffffffffffffffffffffffffffffffffff1673ffffffffffffffffffffffffffffffffffffffff1681526020016001820180548060200260200160405190810160405280929190818152602001828054801561234c57602002820191906000526020600020905b8160009054906101000a900473ffffffffffffffffffffffffffffffffffffffff1673ffffffffffffffffffffffffffffffffffffffff1681526020019060010190808311612302575b50505050508152602001600282018054806020026020016040519081016040528092919081815260200182805480156123a457602002820191906000526020600020905b815481526020019060010190808311612390575b505050505081525050905060005b8160200151518110156124d0576000826020015182815181106123d8576123d7613716565b5b602002602001015190506000836040015183815181106123fb576123fa613716565b5b6020026020010151905060005b88518110156124ba578273ffffffffffffffffffffffffffffffffffffffff1689828151811061243b5761243a613716565b5b602002602001015173ffffffffffffffffffffffffffffffffffffffff1614156124a75761248388828151811061247557612474613716565b5b60200260200101518361278a565b88828151811061249657612495613716565b5b6020026020010181815250506124ba565b80806124b290613774565b915050612408565b50505080806124c890613774565b9150506123b2565b505080806124dd90613774565b91505061220f565b506000805b835181101561253257600084828151811061250857612507613716565b5b6020026020010151905061251c838261278a565b925050808061252a90613774565b9150506124ea565b506000600a600060035481526020019081526020016000208054905067ffffffffffffffff81111561256757612566613186565b5b6040519080825280602002602001820160405280156125955781602001602082028036833780820191505090505b50905060008211156126205760005b85518110156126145760008582815181106125c2576125c1613716565b5b602002602001015190506125e16125db82600654611ebb565b85611ef8565b8383815181106125f4576125f3613716565b5b60200260200101818152505050808061260c90613774565b9150506125a4565b5061261f85826127b2565b5b600083519050600081111561264b57600061263d60075483611ef8565b905061264985826128e3565b505b7f836fbb2ba05500745734fe64e2bda52f3b9fb41e0d12d75481b0d4ac45379c7e60035460405161267c9190613155565b60405180910390a1505050505050565b6003600081548092919061269f906142ea565b91905055507ffaa2c351c484bd08e21503332728506f3b088dc0c0d22e7a285d889e718d5d0d6003546040516126d59190613155565b60405180910390a1565b6126e98282611af0565b5050565b6126f782826115a2565b6127865761271c8173ffffffffffffffffffffffffffffffffffffffff1660146129b6565b61272a8360001c60206129b6565b60405160200161273b929190614445565b6040516020818303038152906040526040517f08c379a000000000000000000000000000000000000000000000000000000000815260040161277d91906144b8565b60405180910390fd5b5050565b600080828461279991906141bc565b9050838110156127a857600080fd5b8091505092915050565b80518251146127f6576040517f08c379a00000000000000000000000000000000000000000000000000000000081526004016127ed9061454c565b60405180910390fd5b6000600460009054906101000a900473ffffffffffffffffffffffffffffffffffffffff16905060005b83518110156128dd578173ffffffffffffffffffffffffffffffffffffffff166340c10f1985838151811061285857612857613716565b5b602002602001015185848151811061287357612872613716565b5b60200260200101516040518363ffffffff1660e01b815260040161289892919061456c565b600060405180830381600087803b1580156128b257600080fd5b505af11580156128c6573d6000803e3d6000fd5b5050505080806128d590613774565b915050612820565b50505050565b6000600460009054906101000a900473ffffffffffffffffffffffffffffffffffffffff16905060005b83518110156129b0578173ffffffffffffffffffffffffffffffffffffffff166340c10f1985838151811061294557612944613716565b5b6020026020010151856040518363ffffffff1660e01b815260040161296b92919061456c565b600060405180830381600087803b15801561298557600080fd5b505af1158015612999573d6000803e3d6000fd5b5050505080806129a890613774565b91505061290d565b50505050565b6060600060028360026129c99190614065565b6129d391906141bc565b67ffffffffffffffff8111156129ec576129eb613186565b5b6040519080825280601f01601f191660200182016040528015612a1e5781602001600182028036833780820191505090505b5090507f300000000000000000000000000000000000000000000000000000000000000081600081518110612a5657612a55613716565b5b60200101907effffffffffffffffffffffffffffffffffffffffffffffffffffffffffffff1916908160001a9053507f780000000000000000000000000000000000000000000000000000000000000081600181518110612aba57612ab9613716565b5b60200101907effffffffffffffffffffffffffffffffffffffffffffffffffffffffffffff1916908160001a90535060006001846002612afa9190614065565b612b0491906141bc565b90505b6001811115612ba4577f3031323334353637383961626364656600000000000000000000000000000000600f861660108110612b4657612b45613716565b5b1a60f81b828281518110612b5d57612b5c613716565b5b60200101907effffffffffffffffffffffffffffffffffffffffffffffffffffffffffffff1916908160001a905350600485901c945080612b9d90614595565b9050612b07565b5060008414612be8576040517f08c379a0000000000000000000000000000000000000000000000000000000008152600401612bdf9061460b565b60405180910390fd5b8091505092915050565b828054828255906000526020600020908101928215612c6b579160200282015b82811115612c6a5782518260006101000a81548173ffffffffffffffffffffffffffffffffffffffff021916908373ffffffffffffffffffffffffffffffffffffffff16021790555091602001919060010190612c12565b5b509050612c789190612cc9565b5090565b828054828255906000526020600020908101928215612cb8579160200282015b82811115612cb7578251825591602001919060010190612c9c565b5b509050612cc59190612cc9565b5090565b5b80821115612ce2576000816000905550600101612cca565b5090565b6000604051905090565b600080fd5b600080fd5b60007fffffffff0000000000000000000000000000000000000000000000000000000082169050919050565b612d2f81612cfa565b8114612d3a57600080fd5b50565b600081359050612d4c81612d26565b92915050565b600060208284031215612d6857612d67612cf0565b5b6000612d7684828501612d3d565b91505092915050565b60008115159050919050565b612d9481612d7f565b82525050565b6000602082019050612daf6000830184612d8b565b92915050565b6000819050919050565b612dc881612db5565b8114612dd357600080fd5b50565b600081359050612de581612dbf565b92915050565b600060208284031215612e0157612e00612cf0565b5b6000612e0f84828501612dd6565b91505092915050565b600081519050919050565b600082825260208201905092915050565b6000819050602082019050919050565b600073ffffffffffffffffffffffffffffffffffffffff82169050919050565b6000612e6f82612e44565b9050919050565b612e7f81612e64565b82525050565b6000612e918383612e76565b60208301905092915050565b6000602082019050919050565b6000612eb582612e18565b612ebf8185612e23565b9350612eca83612e34565b8060005b83811015612efb578151612ee28882612e85565b9750612eed83612e9d565b925050600181019050612ece565b5085935050505092915050565b60006020820190508181036000830152612f228184612eaa565b905092915050565b612f3381612e64565b82525050565b6000602082019050612f4e6000830184612f2a565b92915050565b612f5d81612db5565b82525050565b6000602082019050612f786000830184612f54565b92915050565b6000819050919050565b612f9181612f7e565b8114612f9c57600080fd5b50565b600081359050612fae81612f88565b92915050565b60008060408385031215612fcb57612fca612cf0565b5b6000612fd985828601612f9f565b9250506020612fea85828601612dd6565b9150509250929050565b612ffd81612d7f565b811461300857600080fd5b50565b60008135905061301a81612ff4565b92915050565b60006020828403121561303657613035612cf0565b5b60006130448482850161300b565b91505092915050565b6000819050919050565b6130608161304d565b811461306b57600080fd5b50565b60008135905061307d81613057565b92915050565b60006020828403121561309957613098612cf0565b5b60006130a78482850161306e565b91505092915050565b6130b98161304d565b82525050565b60006020820190506130d460008301846130b0565b92915050565b6130e381612e64565b81146130ee57600080fd5b50565b600081359050613100816130da565b92915050565b6000806040838503121561311d5761311c612cf0565b5b600061312b8582860161306e565b925050602061313c858286016130f1565b9150509250929050565b61314f81612f7e565b82525050565b600060208201905061316a6000830184613146565b92915050565b600080fd5b6000601f19601f8301169050919050565b7f4e487b7100000000000000000000000000000000000000000000000000000000600052604160045260246000fd5b6131be82613175565b810181811067ffffffffffffffff821117156131dd576131dc613186565b5b80604052505050565b60006131f0612ce6565b90506131fc82826131b5565b919050565b600067ffffffffffffffff82111561321c5761321b613186565b5b602082029050602081019050919050565b600080fd5b600061324561324084613201565b6131e6565b905080838252602082019050602084028301858111156132685761326761322d565b5b835b81811015613291578061327d88826130f1565b84526020840193505060208101905061326a565b5050509392505050565b600082601f8301126132b0576132af613170565b5b81356132c0848260208601613232565b91505092915050565b600067ffffffffffffffff8211156132e4576132e3613186565b5b602082029050602081019050919050565b6000613308613303846132c9565b6131e6565b9050808382526020820190506020840283018581111561332b5761332a61322d565b5b835b8181101561335457806133408882612dd6565b84526020840193505060208101905061332d565b5050509392505050565b600082601f83011261337357613372613170565b5b81356133838482602086016132f5565b91505092915050565b600080604083850312156133a3576133a2612cf0565b5b600083013567ffffffffffffffff8111156133c1576133c0612cf5565b5b6133cd8582860161329b565b925050602083013567ffffffffffffffff8111156133ee576133ed612cf5565b5b6133fa8582860161335e565b9150509250929050565b600081519050919050565b600082825260208201905092915050565b6000819050602082019050919050565b600082825260208201905092915050565b600061344c82612e18565b6134568185613430565b935061346183612e34565b8060005b838110156134925781516134798882612e85565b975061348483612e9d565b925050600181019050613465565b5085935050505092915050565b600081519050919050565b600082825260208201905092915050565b6000819050602082019050919050565b6134d481612db5565b82525050565b60006134e683836134cb565b60208301905092915050565b6000602082019050919050565b600061350a8261349f565b61351481856134aa565b935061351f836134bb565b8060005b8381101561355057815161353788826134da565b9750613542836134f2565b925050600181019050613523565b5085935050505092915050565b60006060830160008301516135756000860182612e76565b506020830151848203602086015261358d8282613441565b915050604083015184820360408601526135a782826134ff565b9150508091505092915050565b60006135c0838361355d565b905092915050565b6000602082019050919050565b60006135e082613404565b6135ea818561340f565b9350836020820285016135fc85613420565b8060005b85811015613638578484038952815161361985826135b4565b9450613624836135c8565b925060208a01995050600181019050613600565b50829750879550505050505092915050565b6000602082019050818103600083015261366481846135d5565b905092915050565b60006020828403121561368257613681612cf0565b5b6000613690848285016130f1565b91505092915050565b600082825260208201905092915050565b7f43616c6c6572206973206e6f74206120706f6c6c2061646d696e000000000000600082015250565b60006136e0601a83613699565b91506136eb826136aa565b602082019050919050565b6000602082019050818103600083015261370f816136d3565b9050919050565b7f4e487b7100000000000000000000000000000000000000000000000000000000600052603260045260246000fd5b7f4e487b7100000000000000000000000000000000000000000000000000000000600052601160045260246000fd5b600061377f82612db5565b91507fffffffffffffffffffffffffffffffffffffffffffffffffffffffffffffffff8214156137b2576137b1613745565b5b600182019050919050565b7f596f752061726520616c72656164792063616e64696461746520746f2074686560008201527f2063757272656e7420706f6c6c2e000000000000000000000000000000000000602082015250565b6000613819602e83613699565b9150613824826137bd565b604082019050919050565b600060208201905081810360008301526138488161380c565b9050919050565b60006040820190506138646000830185613146565b6138716020830184612d8b565b9392505050565b7f416363657373436f6e74726f6c3a2063616e206f6e6c792072656e6f756e636560008201527f20726f6c657320666f722073656c660000000000000000000000000000000000602082015250565b60006138d4602f83613699565b91506138df82613878565b604082019050919050565b60006020820190508181036000830152613903816138c7565b9050919050565b7f566f74696e67206973206e6f7420656e61626c6564207269676874206e6f772e60008201527f20436f6e74616374207468652061646d696e20746f20737461727420766f746960208201527f6e672e0000000000000000000000000000000000000000000000000000000000604082015250565b600061398c604383613699565b91506139978261390a565b606082019050919050565b600060208201905081810360008301526139bb8161397f565b9050919050565b7f596f7520617265206e6f7420696e2074686520746f702052414e4b5f464f525f60008201527f564f544520686f6c6465722e0000000000000000000000000000000000000000602082015250565b6000613a1e602c83613699565b9150613a29826139c2565b604082019050919050565b60006020820190508181036000830152613a4d81613a11565b9050919050565b7f596f752061726520616c726561647920766f7465642e00000000000000000000600082015250565b6000613a8a601683613699565b9150613a9582613a54565b602082019050919050565b60006020820190508181036000830152613ab981613a7d565b9050919050565b7f43616e64696461746573206d757374206e6f7420626520656d7074792e000000600082015250565b6000613af6601d83613699565b9150613b0182613ac0565b602082019050919050565b60006020820190508181036000830152613b2581613ae9565b9050919050565b7f546865206e756d626572206f6620706f696e7473206973206e6f742076616c6960008201527f642e000000000000000000000000000000000000000000000000000000000000602082015250565b6000613b88602283613699565b9150613b9382613b2c565b604082019050919050565b60006020820190508181036000830152613bb781613b7b565b9050919050565b7f5468652063616e646964617465206973206e6f7420696e20746865206375727260008201527f656e7420706f6c6c2e0000000000000000000000000000000000000000000000602082015250565b6000613c1a602983613699565b9150613c2582613bbe565b604082019050919050565b60006020820190508181036000830152613c4981613c0d565b9050919050565b7f54686520706f696e747320617265206e6f742076616c69642e202830203c3d2060008201527f706f696e74732900000000000000000000000000000000000000000000000000602082015250565b6000613cac602783613699565b9150613cb782613c50565b604082019050919050565b60006020820190508181036000830152613cdb81613c9f565b9050919050565b7f54686520706f696e747320617265206e6f742076616c69642e2028706f696e7460008201527f73203c20564f54455f4d41585f504f494e542900000000000000000000000000602082015250565b6000613d3e603383613699565b9150613d4982613ce2565b604082019050919050565b60006020820190508181036000830152613d6d81613d31565b9050919050565b7f5265656e7472616e637947756172643a207265656e7472616e742063616c6c00600082015250565b6000613daa601f83613699565b9150613db582613d74565b602082019050919050565b60006020820190508181036000830152613dd981613d9d565b9050919050565b7f4f776e61626c653a206e6577206f776e657220697320746865207a65726f206160008201527f6464726573730000000000000000000000000000000000000000000000000000602082015250565b6000613e3c602683613699565b9150613e4782613de0565b604082019050919050565b60006020820190508181036000830152613e6b81613e2f565b9050919050565b7f5061757361626c653a2070617573656400000000000000000000000000000000600082015250565b6000613ea8601083613699565b9150613eb382613e72565b602082019050919050565b60006020820190508181036000830152613ed781613e9b565b9050919050565b600081519050613eed816130da565b92915050565b6000613f06613f0184613201565b6131e6565b90508083825260208201905060208402830185811115613f2957613f2861322d565b5b835b81811015613f525780613f3e8882613ede565b845260208401935050602081019050613f2b565b5050509392505050565b600082601f830112613f7157613f70613170565b5b8151613f81848260208601613ef3565b91505092915050565b600060208284031215613fa057613f9f612cf0565b5b600082015167ffffffffffffffff811115613fbe57613fbd612cf5565b5b613fca84828501613f5c565b91505092915050565b7f54686520746f74616c20706f696e747320617265206e6f742076616c69642e2060008201527f28746f74616c506f696e7473203c3d2030290000000000000000000000000000602082015250565b600061402f603283613699565b915061403a82613fd3565b604082019050919050565b6000602082019050818103600083015261405e81614022565b9050919050565b600061407082612db5565b915061407b83612db5565b9250817fffffffffffffffffffffffffffffffffffffffffffffffffffffffffffffffff04831182151516156140b4576140b3613745565b5b828202905092915050565b7f4e487b7100000000000000000000000000000000000000000000000000000000600052601260045260246000fd5b60006140f982612db5565b915061410483612db5565b925082614114576141136140bf565b5b828204905092915050565b7f646976696465206279207a65726f000000000000000000000000000000000000600082015250565b6000614155600e83613699565b91506141608261411f565b602082019050919050565b6000602082019050818103600083015261418481614148565b9050919050565b600061419682612db5565b91506141a183612db5565b9250826141b1576141b06140bf565b5b828206905092915050565b60006141c782612db5565b91506141d283612db5565b9250827fffffffffffffffffffffffffffffffffffffffffffffffffffffffffffffffff0382111561420757614206613745565b5b828201905092915050565b7f6f766572666c6f77000000000000000000000000000000000000000000000000600082015250565b6000614248600883613699565b915061425382614212565b602082019050919050565b600060208201905081810360008301526142778161423b565b9050919050565b7f4f776e61626c653a2063616c6c6572206973206e6f7420746865206f776e6572600082015250565b60006142b4602083613699565b91506142bf8261427e565b602082019050919050565b600060208201905081810360008301526142e3816142a7565b9050919050565b60006142f582612f7e565b91507f7fffffffffffffffffffffffffffffffffffffffffffffffffffffffffffffff82141561432857614327613745565b5b600182019050919050565b600081905092915050565b7f416363657373436f6e74726f6c3a206163636f756e7420000000000000000000600082015250565b6000614374601783614333565b915061437f8261433e565b601782019050919050565b600081519050919050565b60005b838110156143b3578082015181840152602081019050614398565b838111156143c2576000848401525b50505050565b60006143d38261438a565b6143dd8185614333565b93506143ed818560208601614395565b80840191505092915050565b7f206973206d697373696e6720726f6c6520000000000000000000000000000000600082015250565b600061442f601183614333565b915061443a826143f9565b601182019050919050565b600061445082614367565b915061445c82856143c8565b915061446782614422565b915061447382846143c8565b91508190509392505050565b600061448a8261438a565b6144948185613699565b93506144a4818560208601614395565b6144ad81613175565b840191505092915050565b600060208201905081810360008301526144d2818461447f565b905092915050565b7f746f20616e6420616d6f756e74206d7573742062652073616d65206c656e677460008201527f6800000000000000000000000000000000000000000000000000000000000000602082015250565b6000614536602183613699565b9150614541826144da565b604082019050919050565b6000602082019050818103600083015261456581614529565b9050919050565b60006040820190506145816000830185612f2a565b61458e6020830184612f54565b9392505050565b60006145a082612db5565b915060008214156145b4576145b3613745565b5b600182039050919050565b7f537472696e67733a20686578206c656e67746820696e73756666696369656e74600082015250565b60006145f5602083613699565b9150614600826145bf565b602082019050919050565b60006020820190508181036000830152614624816145e8565b905091905056fea26469706673582212209c9286592038e7b1a4bf21b408be3be797cfae786d91ce782dd0542c764ef66064736f6c63430008090033",
  "linkReferences": {},
  "deployedLinkReferences": {}
}