{
  "_format": "hh-sol-artifact-1",
  "contractName": "DAONFT",
  "sourceName": "contracts/DAONFT.sol",
  "abi": [
    {
      "inputs": [
        {
          "internalType": "string",
          "name": "_tokenName",
          "type": "string"
        },
        {
          "internalType": "string",
          "name": "_tokenSymbol",
          "type": "string"
        },
        {
          "internalType": "string",
          "name": "__baseTokenURI",
          "type": "string"
        }
      ],
      "stateMutability": "nonpayable",
      "type": "constructor"
    },
    {
      "anonymous": false,
      "inputs": [
        {
          "indexed": true,
          "internalType": "address",
          "name": "owner",
          "type": "address"
        },
        {
          "indexed": true,
          "internalType": "address",
          "name": "approved",
          "type": "address"
        },
        {
          "indexed": true,
          "internalType": "uint256",
          "name": "tokenId",
          "type": "uint256"
        }
      ],
      "name": "Approval",
      "type": "event"
    },
    {
      "anonymous": false,
      "inputs": [
        {
          "indexed": true,
          "internalType": "address",
          "name": "owner",
          "type": "address"
        },
        {
          "indexed": true,
          "internalType": "address",
          "name": "operator",
          "type": "address"
        },
        {
          "indexed": false,
          "internalType": "bool",
          "name": "approved",
          "type": "bool"
        }
      ],
      "name": "ApprovalForAll",
      "type": "event"
    },
    {
      "anonymous": false,
      "inputs": [
        {
          "indexed": false,
          "internalType": "address",
          "name": "account",
          "type": "address"
        }
      ],
      "name": "Paused",
      "type": "event"
    },
    {
      "anonymous": false,
      "inputs": [
        {
          "indexed": true,
          "internalType": "bytes32",
          "name": "role",
          "type": "bytes32"
        },
        {
          "indexed": true,
          "internalType": "bytes32",
          "name": "previousAdminRole",
          "type": "bytes32"
        },
        {
          "indexed": true,
          "internalType": "bytes32",
          "name": "newAdminRole",
          "type": "bytes32"
        }
      ],
      "name": "RoleAdminChanged",
      "type": "event"
    },
    {
      "anonymous": false,
      "inputs": [
        {
          "indexed": true,
          "internalType": "bytes32",
          "name": "role",
          "type": "bytes32"
        },
        {
          "indexed": true,
          "internalType": "address",
          "name": "account",
          "type": "address"
        },
        {
          "indexed": true,
          "internalType": "address",
          "name": "sender",
          "type": "address"
        }
      ],
      "name": "RoleGranted",
      "type": "event"
    },
    {
      "anonymous": false,
      "inputs": [
        {
          "indexed": true,
          "internalType": "bytes32",
          "name": "role",
          "type": "bytes32"
        },
        {
          "indexed": true,
          "internalType": "address",
          "name": "account",
          "type": "address"
        },
        {
          "indexed": true,
          "internalType": "address",
          "name": "sender",
          "type": "address"
        }
      ],
      "name": "RoleRevoked",
      "type": "event"
    },
    {
      "anonymous": false,
      "inputs": [
        {
          "indexed": true,
          "internalType": "address",
          "name": "from",
          "type": "address"
        },
        {
          "indexed": true,
          "internalType": "address",
          "name": "to",
          "type": "address"
        },
        {
          "indexed": true,
          "internalType": "uint256",
          "name": "tokenId",
          "type": "uint256"
        }
      ],
      "name": "Transfer",
      "type": "event"
    },
    {
      "anonymous": false,
      "inputs": [
        {
          "indexed": false,
          "internalType": "address",
          "name": "account",
          "type": "address"
        }
      ],
      "name": "Unpaused",
      "type": "event"
    },
    {
      "inputs": [],
      "name": "DEFAULT_ADMIN_ROLE",
      "outputs": [
        {
          "internalType": "bytes32",
          "name": "",
          "type": "bytes32"
        }
      ],
      "stateMutability": "view",
      "type": "function"
    },
    {
      "inputs": [],
      "name": "MINTER_ROLE",
      "outputs": [
        {
          "internalType": "bytes32",
          "name": "",
          "type": "bytes32"
        }
      ],
      "stateMutability": "view",
      "type": "function"
    },
    {
      "inputs": [
        {
          "internalType": "address",
          "name": "to",
          "type": "address"
        },
        {
          "internalType": "uint256",
          "name": "tokenId",
          "type": "uint256"
        }
      ],
      "name": "approve",
      "outputs": [],
      "stateMutability": "nonpayable",
      "type": "function"
    },
    {
      "inputs": [
        {
          "internalType": "address",
          "name": "owner",
          "type": "address"
        }
      ],
      "name": "balanceOf",
      "outputs": [
        {
          "internalType": "uint256",
          "name": "",
          "type": "uint256"
        }
      ],
      "stateMutability": "view",
      "type": "function"
    },
    {
      "inputs": [
        {
          "internalType": "uint256",
          "name": "tokenId",
          "type": "uint256"
        }
      ],
      "name": "getApproved",
      "outputs": [
        {
          "internalType": "address",
          "name": "",
          "type": "address"
        }
      ],
      "stateMutability": "view",
      "type": "function"
    },
    {
      "inputs": [
        {
          "internalType": "bytes32",
          "name": "role",
          "type": "bytes32"
        }
      ],
      "name": "getRoleAdmin",
      "outputs": [
        {
          "internalType": "bytes32",
          "name": "",
          "type": "bytes32"
        }
      ],
      "stateMutability": "view",
      "type": "function"
    },
    {
      "inputs": [
        {
          "internalType": "bytes32",
          "name": "role",
          "type": "bytes32"
        },
        {
          "internalType": "address",
          "name": "account",
          "type": "address"
        }
      ],
      "name": "grantRole",
      "outputs": [],
      "stateMutability": "nonpayable",
      "type": "function"
    },
    {
      "inputs": [
        {
          "internalType": "bytes32",
          "name": "role",
          "type": "bytes32"
        },
        {
          "internalType": "address",
          "name": "account",
          "type": "address"
        }
      ],
      "name": "hasRole",
      "outputs": [
        {
          "internalType": "bool",
          "name": "",
          "type": "bool"
        }
      ],
      "stateMutability": "view",
      "type": "function"
    },
    {
      "inputs": [
        {
          "internalType": "address",
          "name": "owner",
          "type": "address"
        },
        {
          "internalType": "address",
          "name": "operator",
          "type": "address"
        }
      ],
      "name": "isApprovedForAll",
      "outputs": [
        {
          "internalType": "bool",
          "name": "",
          "type": "bool"
        }
      ],
      "stateMutability": "view",
      "type": "function"
    },
    {
      "inputs": [],
      "name": "name",
      "outputs": [
        {
          "internalType": "string",
          "name": "",
          "type": "string"
        }
      ],
      "stateMutability": "view",
      "type": "function"
    },
    {
      "inputs": [
        {
          "internalType": "uint256",
          "name": "tokenId",
          "type": "uint256"
        }
      ],
      "name": "ownerOf",
      "outputs": [
        {
          "internalType": "address",
          "name": "",
          "type": "address"
        }
      ],
      "stateMutability": "view",
      "type": "function"
    },
    {
      "inputs": [],
      "name": "pause",
      "outputs": [],
      "stateMutability": "nonpayable",
      "type": "function"
    },
    {
      "inputs": [],
      "name": "paused",
      "outputs": [
        {
          "internalType": "bool",
          "name": "",
          "type": "bool"
        }
      ],
      "stateMutability": "view",
      "type": "function"
    },
    {
      "inputs": [
        {
          "internalType": "bytes32",
          "name": "role",
          "type": "bytes32"
        },
        {
          "internalType": "address",
          "name": "account",
          "type": "address"
        }
      ],
      "name": "renounceRole",
      "outputs": [],
      "stateMutability": "nonpayable",
      "type": "function"
    },
    {
      "inputs": [
        {
          "internalType": "bytes32",
          "name": "role",
          "type": "bytes32"
        },
        {
          "internalType": "address",
          "name": "account",
          "type": "address"
        }
      ],
      "name": "revokeRole",
      "outputs": [],
      "stateMutability": "nonpayable",
      "type": "function"
    },
    {
      "inputs": [
        {
          "internalType": "address",
          "name": "to",
          "type": "address"
        }
      ],
      "name": "safeMint",
      "outputs": [],
      "stateMutability": "nonpayable",
      "type": "function"
    },
    {
      "inputs": [
        {
          "internalType": "address",
          "name": "from",
          "type": "address"
        },
        {
          "internalType": "address",
          "name": "to",
          "type": "address"
        },
        {
          "internalType": "uint256",
          "name": "tokenId",
          "type": "uint256"
        }
      ],
      "name": "safeTransferFrom",
      "outputs": [],
      "stateMutability": "nonpayable",
      "type": "function"
    },
    {
      "inputs": [
        {
          "internalType": "address",
          "name": "from",
          "type": "address"
        },
        {
          "internalType": "address",
          "name": "to",
          "type": "address"
        },
        {
          "internalType": "uint256",
          "name": "tokenId",
          "type": "uint256"
        },
        {
          "internalType": "bytes",
          "name": "data",
          "type": "bytes"
        }
      ],
      "name": "safeTransferFrom",
      "outputs": [],
      "stateMutability": "nonpayable",
      "type": "function"
    },
    {
      "inputs": [
        {
          "internalType": "address",
          "name": "operator",
          "type": "address"
        },
        {
          "internalType": "bool",
          "name": "approved",
          "type": "bool"
        }
      ],
      "name": "setApprovalForAll",
      "outputs": [],
      "stateMutability": "nonpayable",
      "type": "function"
    },
    {
      "inputs": [
        {
          "internalType": "address",
          "name": "_minter",
          "type": "address"
        }
      ],
      "name": "setupMinterRole",
      "outputs": [],
      "stateMutability": "nonpayable",
      "type": "function"
    },
    {
      "inputs": [
        {
          "internalType": "bytes4",
          "name": "interfaceId",
          "type": "bytes4"
        }
      ],
      "name": "supportsInterface",
      "outputs": [
        {
          "internalType": "bool",
          "name": "",
          "type": "bool"
        }
      ],
      "stateMutability": "view",
      "type": "function"
    },
    {
      "inputs": [],
      "name": "symbol",
      "outputs": [
        {
          "internalType": "string",
          "name": "",
          "type": "string"
        }
      ],
      "stateMutability": "view",
      "type": "function"
    },
    {
      "inputs": [
        {
          "internalType": "uint256",
          "name": "index",
          "type": "uint256"
        }
      ],
      "name": "tokenByIndex",
      "outputs": [
        {
          "internalType": "uint256",
          "name": "",
          "type": "uint256"
        }
      ],
      "stateMutability": "view",
      "type": "function"
    },
    {
      "inputs": [
        {
          "internalType": "address",
          "name": "owner",
          "type": "address"
        },
        {
          "internalType": "uint256",
          "name": "index",
          "type": "uint256"
        }
      ],
      "name": "tokenOfOwnerByIndex",
      "outputs": [
        {
          "internalType": "uint256",
          "name": "",
          "type": "uint256"
        }
      ],
      "stateMutability": "view",
      "type": "function"
    },
    {
      "inputs": [
        {
          "internalType": "uint256",
          "name": "tokenId",
          "type": "uint256"
        }
      ],
      "name": "tokenURI",
      "outputs": [
        {
          "internalType": "string",
          "name": "",
          "type": "string"
        }
      ],
      "stateMutability": "view",
      "type": "function"
    },
    {
      "inputs": [],
      "name": "totalSupply",
      "outputs": [
        {
          "internalType": "uint256",
          "name": "",
          "type": "uint256"
        }
      ],
      "stateMutability": "view",
      "type": "function"
    },
    {
      "inputs": [
        {
          "internalType": "address",
          "name": "from",
          "type": "address"
        },
        {
          "internalType": "address",
          "name": "to",
          "type": "address"
        },
        {
          "internalType": "uint256",
          "name": "tokenId",
          "type": "uint256"
        }
      ],
      "name": "transferFrom",
      "outputs": [],
      "stateMutability": "nonpayable",
      "type": "function"
    },
    {
      "inputs": [],
      "name": "unpause",
      "outputs": [],
      "stateMutability": "nonpayable",
      "type": "function"
    }
  ],
  "bytecode": "0x60806040523480156200001157600080fd5b506040516200454a3803806200454a8339818101604052810190620000379190620004a3565b828281600090805190602001906200005192919062000256565b5080600190805190602001906200006a92919062000256565b5050506000600a60006101000a81548160ff02191690831515021790555080600d9080519060200190620000a092919062000256565b50620000d37f9f2df0fed2c77648de5860a4cc508cd0818c85b8b8a1ab4ceeef8d981c8956a633620000f160201b60201c565b620000e86000801b33620000f160201b60201c565b505050620005c1565b620001038282620001e360201b60201c565b620001df576001600b600084815260200190815260200160002060000160008373ffffffffffffffffffffffffffffffffffffffff1673ffffffffffffffffffffffffffffffffffffffff16815260200190815260200160002060006101000a81548160ff021916908315150217905550620001846200024e60201b60201c565b73ffffffffffffffffffffffffffffffffffffffff168173ffffffffffffffffffffffffffffffffffffffff16837f2f8788117e7eff1d82e926ec794901d17c78024a50270940304540a733656f0d60405160405180910390a45b5050565b6000600b600084815260200190815260200160002060000160008373ffffffffffffffffffffffffffffffffffffffff1673ffffffffffffffffffffffffffffffffffffffff16815260200190815260200160002060009054906101000a900460ff16905092915050565b600033905090565b82805462000264906200058b565b90600052602060002090601f016020900481019282620002885760008555620002d4565b82601f10620002a357805160ff1916838001178555620002d4565b82800160010185558215620002d4579182015b82811115620002d3578251825591602001919060010190620002b6565b5b509050620002e39190620002e7565b5090565b5b8082111562000302576000816000905550600101620002e8565b5090565b6000604051905090565b600080fd5b600080fd5b600080fd5b600080fd5b6000601f19601f8301169050919050565b7f4e487b7100000000000000000000000000000000000000000000000000000000600052604160045260246000fd5b6200036f8262000324565b810181811067ffffffffffffffff8211171562000391576200039062000335565b5b80604052505050565b6000620003a662000306565b9050620003b4828262000364565b919050565b600067ffffffffffffffff821115620003d757620003d662000335565b5b620003e28262000324565b9050602081019050919050565b60005b838110156200040f578082015181840152602081019050620003f2565b838111156200041f576000848401525b50505050565b60006200043c6200043684620003b9565b6200039a565b9050828152602081018484840111156200045b576200045a6200031f565b5b62000468848285620003ef565b509392505050565b600082601f8301126200048857620004876200031a565b5b81516200049a84826020860162000425565b91505092915050565b600080600060608486031215620004bf57620004be62000310565b5b600084015167ffffffffffffffff811115620004e057620004df62000315565b5b620004ee8682870162000470565b935050602084015167ffffffffffffffff81111562000512576200051162000315565b5b620005208682870162000470565b925050604084015167ffffffffffffffff81111562000544576200054362000315565b5b620005528682870162000470565b9150509250925092565b7f4e487b7100000000000000000000000000000000000000000000000000000000600052602260045260246000fd5b60006002820490506001821680620005a457607f821691505b60208210811415620005bb57620005ba6200055c565b5b50919050565b613f7980620005d16000396000f3fe608060405234801561001057600080fd5b50600436106101c45760003560e01c80635c975abb116100f9578063a22cb46511610097578063d539139311610071578063d539139314610503578063d547741f14610521578063e985e9c51461053d578063fcce83721461056d576101c4565b8063a22cb4651461049b578063b88d4fde146104b7578063c87b56dd146104d3576101c4565b80638456cb59116100d35780638456cb591461042557806391d148541461042f57806395d89b411461045f578063a217fddf1461047d576101c4565b80635c975abb146103a75780636352211e146103c557806370a08231146103f5576101c4565b80632f2ff15d116101665780633f4ba83a116101405780633f4ba83a1461033557806340d097c31461033f57806342842e0e1461035b5780634f6ccce714610377576101c4565b80632f2ff15d146102cd5780632f745c59146102e957806336568abe14610319576101c4565b8063095ea7b3116101a2578063095ea7b31461024757806318160ddd1461026357806323b872dd14610281578063248a9ca31461029d576101c4565b806301ffc9a7146101c957806306fdde03146101f9578063081812fc14610217575b600080fd5b6101e360048036038101906101de9190612944565b610589565b6040516101f0919061298c565b60405180910390f35b61020161059b565b60405161020e9190612a40565b60405180910390f35b610231600480360381019061022c9190612a98565b61062d565b60405161023e9190612b06565b60405180910390f35b610261600480360381019061025c9190612b4d565b610673565b005b61026b61078b565b6040516102789190612b9c565b60405180910390f35b61029b60048036038101906102969190612bb7565b610798565b005b6102b760048036038101906102b29190612c40565b6107f8565b6040516102c49190612c7c565b60405180910390f35b6102e760048036038101906102e29190612c97565b610818565b005b61030360048036038101906102fe9190612b4d565b610839565b6040516103109190612b9c565b60405180910390f35b610333600480360381019061032e9190612c97565b6108de565b005b61033d610961565b005b61035960048036038101906103549190612cd7565b6109b7565b005b61037560048036038101906103709190612bb7565b610a46565b005b610391600480360381019061038c9190612a98565b610a66565b60405161039e9190612b9c565b60405180910390f35b6103af610ad7565b6040516103bc919061298c565b60405180910390f35b6103df60048036038101906103da9190612a98565b610aee565b6040516103ec9190612b06565b60405180910390f35b61040f600480360381019061040a9190612cd7565b610ba0565b60405161041c9190612b9c565b60405180910390f35b61042d610c58565b005b61044960048036038101906104449190612c97565b610cae565b604051610456919061298c565b60405180910390f35b610467610d19565b6040516104749190612a40565b60405180910390f35b610485610dab565b6040516104929190612c7c565b60405180910390f35b6104b560048036038101906104b09190612d30565b610db2565b005b6104d160048036038101906104cc9190612ea5565b610dc8565b005b6104ed60048036038101906104e89190612a98565b610e2a565b6040516104fa9190612a40565b60405180910390f35b61050b610e92565b6040516105189190612c7c565b60405180910390f35b61053b60048036038101906105369190612c97565b610eb6565b005b61055760048036038101906105529190612f28565b610ed7565b604051610564919061298c565b60405180910390f35b61058760048036038101906105829190612cd7565b610f6b565b005b600061059482610fe4565b9050919050565b6060600080546105aa90612f97565b80601f01602080910402602001604051908101604052809291908181526020018280546105d690612f97565b80156106235780601f106105f857610100808354040283529160200191610623565b820191906000526020600020905b81548152906001019060200180831161060657829003601f168201915b5050505050905090565b60006106388261105e565b6004600083815260200190815260200160002060009054906101000a900473ffffffffffffffffffffffffffffffffffffffff169050919050565b600061067e82610aee565b90508073ffffffffffffffffffffffffffffffffffffffff168373ffffffffffffffffffffffffffffffffffffffff1614156106ef576040517f08c379a00000000000000000000000000000000000000000000000000000000081526004016106e69061303b565b60405180910390fd5b8073ffffffffffffffffffffffffffffffffffffffff1661070e6110a9565b73ffffffffffffffffffffffffffffffffffffffff16148061073d575061073c816107376110a9565b610ed7565b5b61077c576040517f08c379a0000000000000000000000000000000000000000000000000000000008152600401610773906130cd565b60405180910390fd5b61078683836110b1565b505050565b6000600880549050905090565b6107a96107a36110a9565b8261116a565b6107e8576040517f08c379a00000000000000000000000000000000000000000000000000000000081526004016107df9061315f565b60405180910390fd5b6107f38383836111ff565b505050565b6000600b6000838152602001908152602001600020600101549050919050565b610821826107f8565b61082a81611466565b610834838361147a565b505050565b600061084483610ba0565b8210610885576040517f08c379a000000000000000000000000000000000000000000000000000000000815260040161087c906131f1565b60405180910390fd5b600660008473ffffffffffffffffffffffffffffffffffffffff1673ffffffffffffffffffffffffffffffffffffffff168152602001908152602001600020600083815260200190815260200160002054905092915050565b6108e66110a9565b73ffffffffffffffffffffffffffffffffffffffff168173ffffffffffffffffffffffffffffffffffffffff1614610953576040517f08c379a000000000000000000000000000000000000000000000000000000000815260040161094a90613283565b60405180910390fd5b61095d828261155b565b5050565b61096e6000801b33610cae565b6109ad576040517f08c379a00000000000000000000000000000000000000000000000000000000081526004016109a490613315565b60405180910390fd5b6109b561163d565b565b6109e17f9f2df0fed2c77648de5860a4cc508cd0818c85b8b8a1ab4ceeef8d981c8956a633610cae565b610a20576040517f08c379a0000000000000000000000000000000000000000000000000000000008152600401610a17906133a7565b60405180910390fd5b6000610a2c600c6116a0565b9050610a38600c6116ae565b610a4282826116c4565b5050565b610a6183838360405180602001604052806000815250610dc8565b505050565b6000610a7061078b565b8210610ab1576040517f08c379a0000000000000000000000000000000000000000000000000000000008152600401610aa890613439565b60405180910390fd5b60088281548110610ac557610ac4613459565b5b90600052602060002001549050919050565b6000600a60009054906101000a900460ff16905090565b6000806002600084815260200190815260200160002060009054906101000a900473ffffffffffffffffffffffffffffffffffffffff169050600073ffffffffffffffffffffffffffffffffffffffff168173ffffffffffffffffffffffffffffffffffffffff161415610b97576040517f08c379a0000000000000000000000000000000000000000000000000000000008152600401610b8e906134d4565b60405180910390fd5b80915050919050565b60008073ffffffffffffffffffffffffffffffffffffffff168273ffffffffffffffffffffffffffffffffffffffff161415610c11576040517f08c379a0000000000000000000000000000000000000000000000000000000008152600401610c0890613566565b60405180910390fd5b600360008373ffffffffffffffffffffffffffffffffffffffff1673ffffffffffffffffffffffffffffffffffffffff168152602001908152602001600020549050919050565b610c656000801b33610cae565b610ca4576040517f08c379a0000000000000000000000000000000000000000000000000000000008152600401610c9b906135f8565b60405180910390fd5b610cac6116e2565b565b6000600b600084815260200190815260200160002060000160008373ffffffffffffffffffffffffffffffffffffffff1673ffffffffffffffffffffffffffffffffffffffff16815260200190815260200160002060009054906101000a900460ff16905092915050565b606060018054610d2890612f97565b80601f0160208091040260200160405190810160405280929190818152602001828054610d5490612f97565b8015610da15780601f10610d7657610100808354040283529160200191610da1565b820191906000526020600020905b815481529060010190602001808311610d8457829003601f168201915b5050505050905090565b6000801b81565b610dc4610dbd6110a9565b8383611745565b5050565b610dd9610dd36110a9565b8361116a565b610e18576040517f08c379a0000000000000000000000000000000000000000000000000000000008152600401610e0f9061315f565b60405180910390fd5b610e24848484846118b2565b50505050565b6060610e358261105e565b6000610e3f61190e565b90506000815111610e5f5760405180602001604052806000815250610e8a565b80610e69846119a0565b604051602001610e7a929190613654565b6040516020818303038152906040525b915050919050565b7f9f2df0fed2c77648de5860a4cc508cd0818c85b8b8a1ab4ceeef8d981c8956a681565b610ebf826107f8565b610ec881611466565b610ed2838361155b565b505050565b6000600560008473ffffffffffffffffffffffffffffffffffffffff1673ffffffffffffffffffffffffffffffffffffffff16815260200190815260200160002060008373ffffffffffffffffffffffffffffffffffffffff1673ffffffffffffffffffffffffffffffffffffffff16815260200190815260200160002060009054906101000a900460ff16905092915050565b610f786000801b33610cae565b610fb7576040517f08c379a0000000000000000000000000000000000000000000000000000000008152600401610fae906136ea565b60405180910390fd5b610fe17f9f2df0fed2c77648de5860a4cc508cd0818c85b8b8a1ab4ceeef8d981c8956a682611b01565b50565b60007f7965db0b000000000000000000000000000000000000000000000000000000007bffffffffffffffffffffffffffffffffffffffffffffffffffffffff1916827bffffffffffffffffffffffffffffffffffffffffffffffffffffffff19161480611057575061105682611b0f565b5b9050919050565b61106781611b89565b6110a6576040517f08c379a000000000000000000000000000000000000000000000000000000000815260040161109d906134d4565b60405180910390fd5b50565b600033905090565b816004600083815260200190815260200160002060006101000a81548173ffffffffffffffffffffffffffffffffffffffff021916908373ffffffffffffffffffffffffffffffffffffffff160217905550808273ffffffffffffffffffffffffffffffffffffffff1661112483610aee565b73ffffffffffffffffffffffffffffffffffffffff167f8c5be1e5ebec7d5bd14f71427d1e84f3dd0314c0f7b2291e5b200ac8c7c3b92560405160405180910390a45050565b60008061117683610aee565b90508073ffffffffffffffffffffffffffffffffffffffff168473ffffffffffffffffffffffffffffffffffffffff1614806111b857506111b78185610ed7565b5b806111f657508373ffffffffffffffffffffffffffffffffffffffff166111de8461062d565b73ffffffffffffffffffffffffffffffffffffffff16145b91505092915050565b8273ffffffffffffffffffffffffffffffffffffffff1661121f82610aee565b73ffffffffffffffffffffffffffffffffffffffff1614611275576040517f08c379a000000000000000000000000000000000000000000000000000000000815260040161126c9061377c565b60405180910390fd5b600073ffffffffffffffffffffffffffffffffffffffff168273ffffffffffffffffffffffffffffffffffffffff1614156112e5576040517f08c379a00000000000000000000000000000000000000000000000000000000081526004016112dc9061380e565b60405180910390fd5b6112f0838383611bf5565b6112fb6000826110b1565b6001600360008573ffffffffffffffffffffffffffffffffffffffff1673ffffffffffffffffffffffffffffffffffffffff168152602001908152602001600020600082825461134b919061385d565b925050819055506001600360008473ffffffffffffffffffffffffffffffffffffffff1673ffffffffffffffffffffffffffffffffffffffff16815260200190815260200160002060008282546113a29190613891565b92505081905550816002600083815260200190815260200160002060006101000a81548173ffffffffffffffffffffffffffffffffffffffff021916908373ffffffffffffffffffffffffffffffffffffffff160217905550808273ffffffffffffffffffffffffffffffffffffffff168473ffffffffffffffffffffffffffffffffffffffff167fddf252ad1be2c89b69c2b068fc378daa952ba7f163c4a11628f55a4df523b3ef60405160405180910390a4611461838383611c0d565b505050565b611477816114726110a9565b611c12565b50565b6114848282610cae565b611557576001600b600084815260200190815260200160002060000160008373ffffffffffffffffffffffffffffffffffffffff1673ffffffffffffffffffffffffffffffffffffffff16815260200190815260200160002060006101000a81548160ff0219169083151502179055506114fc6110a9565b73ffffffffffffffffffffffffffffffffffffffff168173ffffffffffffffffffffffffffffffffffffffff16837f2f8788117e7eff1d82e926ec794901d17c78024a50270940304540a733656f0d60405160405180910390a45b5050565b6115658282610cae565b15611639576000600b600084815260200190815260200160002060000160008373ffffffffffffffffffffffffffffffffffffffff1673ffffffffffffffffffffffffffffffffffffffff16815260200190815260200160002060006101000a81548160ff0219169083151502179055506115de6110a9565b73ffffffffffffffffffffffffffffffffffffffff168173ffffffffffffffffffffffffffffffffffffffff16837ff6391f5c32d9c69d2a47ea670b442974b53935d1edc7fd64eb21e047a839171b60405160405180910390a45b5050565b611645611caf565b6000600a60006101000a81548160ff0219169083151502179055507f5db9ee0a495bf2e6ff9c91a7834c1ba4fdd244a5e8aa4e537bd38aeae4b073aa6116896110a9565b6040516116969190612b06565b60405180910390a1565b600081600001549050919050565b6001816000016000828254019250508190555050565b6116de828260405180602001604052806000815250611cf8565b5050565b6116ea611d53565b6001600a60006101000a81548160ff0219169083151502179055507f62e78cea01bee320cd4e420270b5ea74000d11b0c9f74754ebdbfc544b05a25861172e6110a9565b60405161173b9190612b06565b60405180910390a1565b8173ffffffffffffffffffffffffffffffffffffffff168373ffffffffffffffffffffffffffffffffffffffff1614156117b4576040517f08c379a00000000000000000000000000000000000000000000000000000000081526004016117ab90613933565b60405180910390fd5b80600560008573ffffffffffffffffffffffffffffffffffffffff1673ffffffffffffffffffffffffffffffffffffffff16815260200190815260200160002060008473ffffffffffffffffffffffffffffffffffffffff1673ffffffffffffffffffffffffffffffffffffffff16815260200190815260200160002060006101000a81548160ff0219169083151502179055508173ffffffffffffffffffffffffffffffffffffffff168373ffffffffffffffffffffffffffffffffffffffff167f17307eab39ab6107e8899845ad3d59bd9653f200f220920489ca2b5937696c31836040516118a5919061298c565b60405180910390a3505050565b6118bd8484846111ff565b6118c984848484611d9d565b611908576040517f08c379a00000000000000000000000000000000000000000000000000000000081526004016118ff906139c5565b60405180910390fd5b50505050565b6060600d805461191d90612f97565b80601f016020809104026020016040519081016040528092919081815260200182805461194990612f97565b80156119965780601f1061196b57610100808354040283529160200191611996565b820191906000526020600020905b81548152906001019060200180831161197957829003601f168201915b5050505050905090565b606060008214156119e8576040518060400160405280600181526020017f30000000000000000000000000000000000000000000000000000000000000008152509050611afc565b600082905060005b60008214611a1a578080611a03906139e5565b915050600a82611a139190613a5d565b91506119f0565b60008167ffffffffffffffff811115611a3657611a35612d7a565b5b6040519080825280601f01601f191660200182016040528015611a685781602001600182028036833780820191505090505b5090505b60008514611af557600182611a81919061385d565b9150600a85611a909190613a8e565b6030611a9c9190613891565b60f81b818381518110611ab257611ab1613459565b5b60200101907effffffffffffffffffffffffffffffffffffffffffffffffffffffffffffff1916908160001a905350600a85611aee9190613a5d565b9450611a6c565b8093505050505b919050565b611b0b828261147a565b5050565b60007f780e9d63000000000000000000000000000000000000000000000000000000007bffffffffffffffffffffffffffffffffffffffffffffffffffffffff1916827bffffffffffffffffffffffffffffffffffffffffffffffffffffffff19161480611b825750611b8182611f34565b5b9050919050565b60008073ffffffffffffffffffffffffffffffffffffffff166002600084815260200190815260200160002060009054906101000a900473ffffffffffffffffffffffffffffffffffffffff1673ffffffffffffffffffffffffffffffffffffffff1614159050919050565b611bfd611d53565b611c08838383612016565b505050565b505050565b611c1c8282610cae565b611cab57611c418173ffffffffffffffffffffffffffffffffffffffff16601461212a565b611c4f8360001c602061212a565b604051602001611c60929190613b57565b6040516020818303038152906040526040517f08c379a0000000000000000000000000000000000000000000000000000000008152600401611ca29190612a40565b60405180910390fd5b5050565b611cb7610ad7565b611cf6576040517f08c379a0000000000000000000000000000000000000000000000000000000008152600401611ced90613bdd565b60405180910390fd5b565b611d028383612366565b611d0f6000848484611d9d565b611d4e576040517f08c379a0000000000000000000000000000000000000000000000000000000008152600401611d45906139c5565b60405180910390fd5b505050565b611d5b610ad7565b15611d9b576040517f08c379a0000000000000000000000000000000000000000000000000000000008152600401611d9290613c49565b60405180910390fd5b565b6000611dbe8473ffffffffffffffffffffffffffffffffffffffff16612540565b15611f27578373ffffffffffffffffffffffffffffffffffffffff1663150b7a02611de76110a9565b8786866040518563ffffffff1660e01b8152600401611e099493929190613cbe565b602060405180830381600087803b158015611e2357600080fd5b505af1925050508015611e5457506040513d601f19601f82011682018060405250810190611e519190613d1f565b60015b611ed7573d8060008114611e84576040519150601f19603f3d011682016040523d82523d6000602084013e611e89565b606091505b50600081511415611ecf576040517f08c379a0000000000000000000000000000000000000000000000000000000008152600401611ec6906139c5565b60405180910390fd5b805181602001fd5b63150b7a0260e01b7bffffffffffffffffffffffffffffffffffffffffffffffffffffffff1916817bffffffffffffffffffffffffffffffffffffffffffffffffffffffff191614915050611f2c565b600190505b949350505050565b60007f80ac58cd000000000000000000000000000000000000000000000000000000007bffffffffffffffffffffffffffffffffffffffffffffffffffffffff1916827bffffffffffffffffffffffffffffffffffffffffffffffffffffffff19161480611fff57507f5b5e139f000000000000000000000000000000000000000000000000000000007bffffffffffffffffffffffffffffffffffffffffffffffffffffffff1916827bffffffffffffffffffffffffffffffffffffffffffffffffffffffff1916145b8061200f575061200e82612563565b5b9050919050565b6120218383836125cd565b600073ffffffffffffffffffffffffffffffffffffffff168373ffffffffffffffffffffffffffffffffffffffff1614156120645761205f816125d2565b6120a3565b8173ffffffffffffffffffffffffffffffffffffffff168373ffffffffffffffffffffffffffffffffffffffff16146120a2576120a1838261261b565b5b5b600073ffffffffffffffffffffffffffffffffffffffff168273ffffffffffffffffffffffffffffffffffffffff1614156120e6576120e181612788565b612125565b8273ffffffffffffffffffffffffffffffffffffffff168273ffffffffffffffffffffffffffffffffffffffff1614612124576121238282612859565b5b5b505050565b60606000600283600261213d9190613d4c565b6121479190613891565b67ffffffffffffffff8111156121605761215f612d7a565b5b6040519080825280601f01601f1916602001820160405280156121925781602001600182028036833780820191505090505b5090507f3000000000000000000000000000000000000000000000000000000000000000816000815181106121ca576121c9613459565b5b60200101907effffffffffffffffffffffffffffffffffffffffffffffffffffffffffffff1916908160001a9053507f78000000000000000000000000000000000000000000000000000000000000008160018151811061222e5761222d613459565b5b60200101907effffffffffffffffffffffffffffffffffffffffffffffffffffffffffffff1916908160001a9053506000600184600261226e9190613d4c565b6122789190613891565b90505b6001811115612318577f3031323334353637383961626364656600000000000000000000000000000000600f8616601081106122ba576122b9613459565b5b1a60f81b8282815181106122d1576122d0613459565b5b60200101907effffffffffffffffffffffffffffffffffffffffffffffffffffffffffffff1916908160001a905350600485901c94508061231190613da6565b905061227b565b506000841461235c576040517f08c379a000000000000000000000000000000000000000000000000000000000815260040161235390613e1c565b60405180910390fd5b8091505092915050565b600073ffffffffffffffffffffffffffffffffffffffff168273ffffffffffffffffffffffffffffffffffffffff1614156123d6576040517f08c379a00000000000000000000000000000000000000000000000000000000081526004016123cd90613e88565b60405180910390fd5b6123df81611b89565b1561241f576040517f08c379a000000000000000000000000000000000000000000000000000000000815260040161241690613ef4565b60405180910390fd5b61242b60008383611bf5565b6001600360008473ffffffffffffffffffffffffffffffffffffffff1673ffffffffffffffffffffffffffffffffffffffff168152602001908152602001600020600082825461247b9190613891565b92505081905550816002600083815260200190815260200160002060006101000a81548173ffffffffffffffffffffffffffffffffffffffff021916908373ffffffffffffffffffffffffffffffffffffffff160217905550808273ffffffffffffffffffffffffffffffffffffffff16600073ffffffffffffffffffffffffffffffffffffffff167fddf252ad1be2c89b69c2b068fc378daa952ba7f163c4a11628f55a4df523b3ef60405160405180910390a461253c60008383611c0d565b5050565b6000808273ffffffffffffffffffffffffffffffffffffffff163b119050919050565b60007f01ffc9a7000000000000000000000000000000000000000000000000000000007bffffffffffffffffffffffffffffffffffffffffffffffffffffffff1916827bffffffffffffffffffffffffffffffffffffffffffffffffffffffff1916149050919050565b505050565b6008805490506009600083815260200190815260200160002081905550600881908060018154018082558091505060019003906000526020600020016000909190919091505550565b6000600161262884610ba0565b612632919061385d565b9050600060076000848152602001908152602001600020549050818114612717576000600660008673ffffffffffffffffffffffffffffffffffffffff1673ffffffffffffffffffffffffffffffffffffffff168152602001908152602001600020600084815260200190815260200160002054905080600660008773ffffffffffffffffffffffffffffffffffffffff1673ffffffffffffffffffffffffffffffffffffffff168152602001908152602001600020600084815260200190815260200160002081905550816007600083815260200190815260200160002081905550505b6007600084815260200190815260200160002060009055600660008573ffffffffffffffffffffffffffffffffffffffff1673ffffffffffffffffffffffffffffffffffffffff16815260200190815260200160002060008381526020019081526020016000206000905550505050565b6000600160088054905061279c919061385d565b90506000600960008481526020019081526020016000205490506000600883815481106127cc576127cb613459565b5b9060005260206000200154905080600883815481106127ee576127ed613459565b5b90600052602060002001819055508160096000838152602001908152602001600020819055506009600085815260200190815260200160002060009055600880548061283d5761283c613f14565b5b6001900381819060005260206000200160009055905550505050565b600061286483610ba0565b905081600660008573ffffffffffffffffffffffffffffffffffffffff1673ffffffffffffffffffffffffffffffffffffffff168152602001908152602001600020600083815260200190815260200160002081905550806007600084815260200190815260200160002081905550505050565b6000604051905090565b600080fd5b600080fd5b60007fffffffff0000000000000000000000000000000000000000000000000000000082169050919050565b612921816128ec565b811461292c57600080fd5b50565b60008135905061293e81612918565b92915050565b60006020828403121561295a576129596128e2565b5b60006129688482850161292f565b91505092915050565b60008115159050919050565b61298681612971565b82525050565b60006020820190506129a1600083018461297d565b92915050565b600081519050919050565b600082825260208201905092915050565b60005b838110156129e15780820151818401526020810190506129c6565b838111156129f0576000848401525b50505050565b6000601f19601f8301169050919050565b6000612a12826129a7565b612a1c81856129b2565b9350612a2c8185602086016129c3565b612a35816129f6565b840191505092915050565b60006020820190508181036000830152612a5a8184612a07565b905092915050565b6000819050919050565b612a7581612a62565b8114612a8057600080fd5b50565b600081359050612a9281612a6c565b92915050565b600060208284031215612aae57612aad6128e2565b5b6000612abc84828501612a83565b91505092915050565b600073ffffffffffffffffffffffffffffffffffffffff82169050919050565b6000612af082612ac5565b9050919050565b612b0081612ae5565b82525050565b6000602082019050612b1b6000830184612af7565b92915050565b612b2a81612ae5565b8114612b3557600080fd5b50565b600081359050612b4781612b21565b92915050565b60008060408385031215612b6457612b636128e2565b5b6000612b7285828601612b38565b9250506020612b8385828601612a83565b9150509250929050565b612b9681612a62565b82525050565b6000602082019050612bb16000830184612b8d565b92915050565b600080600060608486031215612bd057612bcf6128e2565b5b6000612bde86828701612b38565b9350506020612bef86828701612b38565b9250506040612c0086828701612a83565b9150509250925092565b6000819050919050565b612c1d81612c0a565b8114612c2857600080fd5b50565b600081359050612c3a81612c14565b92915050565b600060208284031215612c5657612c556128e2565b5b6000612c6484828501612c2b565b91505092915050565b612c7681612c0a565b82525050565b6000602082019050612c916000830184612c6d565b92915050565b60008060408385031215612cae57612cad6128e2565b5b6000612cbc85828601612c2b565b9250506020612ccd85828601612b38565b9150509250929050565b600060208284031215612ced57612cec6128e2565b5b6000612cfb84828501612b38565b91505092915050565b612d0d81612971565b8114612d1857600080fd5b50565b600081359050612d2a81612d04565b92915050565b60008060408385031215612d4757612d466128e2565b5b6000612d5585828601612b38565b9250506020612d6685828601612d1b565b9150509250929050565b600080fd5b600080fd5b7f4e487b7100000000000000000000000000000000000000000000000000000000600052604160045260246000fd5b612db2826129f6565b810181811067ffffffffffffffff82111715612dd157612dd0612d7a565b5b80604052505050565b6000612de46128d8565b9050612df08282612da9565b919050565b600067ffffffffffffffff821115612e1057612e0f612d7a565b5b612e19826129f6565b9050602081019050919050565b82818337600083830152505050565b6000612e48612e4384612df5565b612dda565b905082815260208101848484011115612e6457612e63612d75565b5b612e6f848285612e26565b509392505050565b600082601f830112612e8c57612e8b612d70565b5b8135612e9c848260208601612e35565b91505092915050565b60008060008060808587031215612ebf57612ebe6128e2565b5b6000612ecd87828801612b38565b9450506020612ede87828801612b38565b9350506040612eef87828801612a83565b925050606085013567ffffffffffffffff811115612f1057612f0f6128e7565b5b612f1c87828801612e77565b91505092959194509250565b60008060408385031215612f3f57612f3e6128e2565b5b6000612f4d85828601612b38565b9250506020612f5e85828601612b38565b9150509250929050565b7f4e487b7100000000000000000000000000000000000000000000000000000000600052602260045260246000fd5b60006002820490506001821680612faf57607f821691505b60208210811415612fc357612fc2612f68565b5b50919050565b7f4552433732313a20617070726f76616c20746f2063757272656e74206f776e6560008201527f7200000000000000000000000000000000000000000000000000000000000000602082015250565b60006130256021836129b2565b915061303082612fc9565b604082019050919050565b6000602082019050818103600083015261305481613018565b9050919050565b7f4552433732313a20617070726f76652063616c6c6572206973206e6f7420746f60008201527f6b656e206f776e6572206e6f7220617070726f76656420666f7220616c6c0000602082015250565b60006130b7603e836129b2565b91506130c28261305b565b604082019050919050565b600060208201905081810360008301526130e6816130aa565b9050919050565b7f4552433732313a2063616c6c6572206973206e6f7420746f6b656e206f776e6560008201527f72206e6f7220617070726f766564000000000000000000000000000000000000602082015250565b6000613149602e836129b2565b9150613154826130ed565b604082019050919050565b600060208201905081810360008301526131788161313c565b9050919050565b7f455243373231456e756d657261626c653a206f776e657220696e646578206f7560008201527f74206f6620626f756e6473000000000000000000000000000000000000000000602082015250565b60006131db602b836129b2565b91506131e68261317f565b604082019050919050565b6000602082019050818103600083015261320a816131ce565b9050919050565b7f416363657373436f6e74726f6c3a2063616e206f6e6c792072656e6f756e636560008201527f20726f6c657320666f722073656c660000000000000000000000000000000000602082015250565b600061326d602f836129b2565b915061327882613211565b604082019050919050565b6000602082019050818103600083015261329c81613260565b9050919050565b7f44414f4e46543a206d75737420686176652061646d696e20726f6c6520746f2060008201527f756e706175736500000000000000000000000000000000000000000000000000602082015250565b60006132ff6027836129b2565b915061330a826132a3565b604082019050919050565b6000602082019050818103600083015261332e816132f2565b9050919050565b7f44414f4e46543a206d7573742068617665206d696e74657220726f6c6520746f60008201527f206d696e74000000000000000000000000000000000000000000000000000000602082015250565b60006133916025836129b2565b915061339c82613335565b604082019050919050565b600060208201905081810360008301526133c081613384565b9050919050565b7f455243373231456e756d657261626c653a20676c6f62616c20696e646578206f60008201527f7574206f6620626f756e64730000000000000000000000000000000000000000602082015250565b6000613423602c836129b2565b915061342e826133c7565b604082019050919050565b6000602082019050818103600083015261345281613416565b9050919050565b7f4e487b7100000000000000000000000000000000000000000000000000000000600052603260045260246000fd5b7f4552433732313a20696e76616c696420746f6b656e2049440000000000000000600082015250565b60006134be6018836129b2565b91506134c982613488565b602082019050919050565b600060208201905081810360008301526134ed816134b1565b9050919050565b7f4552433732313a2061646472657373207a65726f206973206e6f74206120766160008201527f6c6964206f776e65720000000000000000000000000000000000000000000000602082015250565b60006135506029836129b2565b915061355b826134f4565b604082019050919050565b6000602082019050818103600083015261357f81613543565b9050919050565b7f44414f4e46543a206d75737420686176652061646d696e20726f6c6520746f2060008201527f7061757365000000000000000000000000000000000000000000000000000000602082015250565b60006135e26025836129b2565b91506135ed82613586565b604082019050919050565b60006020820190508181036000830152613611816135d5565b9050919050565b600081905092915050565b600061362e826129a7565b6136388185613618565b93506136488185602086016129c3565b80840191505092915050565b60006136608285613623565b915061366c8284613623565b91508190509392505050565b7f44414f4e46543a206d75737420686176652061646d696e20726f6c6520746f2060008201527f7365747570206d696e7465720000000000000000000000000000000000000000602082015250565b60006136d4602c836129b2565b91506136df82613678565b604082019050919050565b60006020820190508181036000830152613703816136c7565b9050919050565b7f4552433732313a207472616e736665722066726f6d20696e636f72726563742060008201527f6f776e6572000000000000000000000000000000000000000000000000000000602082015250565b60006137666025836129b2565b91506137718261370a565b604082019050919050565b6000602082019050818103600083015261379581613759565b9050919050565b7f4552433732313a207472616e7366657220746f20746865207a65726f2061646460008201527f7265737300000000000000000000000000000000000000000000000000000000602082015250565b60006137f86024836129b2565b91506138038261379c565b604082019050919050565b60006020820190508181036000830152613827816137eb565b9050919050565b7f4e487b7100000000000000000000000000000000000000000000000000000000600052601160045260246000fd5b600061386882612a62565b915061387383612a62565b9250828210156138865761388561382e565b5b828203905092915050565b600061389c82612a62565b91506138a783612a62565b9250827fffffffffffffffffffffffffffffffffffffffffffffffffffffffffffffffff038211156138dc576138db61382e565b5b828201905092915050565b7f4552433732313a20617070726f766520746f2063616c6c657200000000000000600082015250565b600061391d6019836129b2565b9150613928826138e7565b602082019050919050565b6000602082019050818103600083015261394c81613910565b9050919050565b7f4552433732313a207472616e7366657220746f206e6f6e20455243373231526560008201527f63656976657220696d706c656d656e7465720000000000000000000000000000602082015250565b60006139af6032836129b2565b91506139ba82613953565b604082019050919050565b600060208201905081810360008301526139de816139a2565b9050919050565b60006139f082612a62565b91507fffffffffffffffffffffffffffffffffffffffffffffffffffffffffffffffff821415613a2357613a2261382e565b5b600182019050919050565b7f4e487b7100000000000000000000000000000000000000000000000000000000600052601260045260246000fd5b6000613a6882612a62565b9150613a7383612a62565b925082613a8357613a82613a2e565b5b828204905092915050565b6000613a9982612a62565b9150613aa483612a62565b925082613ab457613ab3613a2e565b5b828206905092915050565b7f416363657373436f6e74726f6c3a206163636f756e7420000000000000000000600082015250565b6000613af5601783613618565b9150613b0082613abf565b601782019050919050565b7f206973206d697373696e6720726f6c6520000000000000000000000000000000600082015250565b6000613b41601183613618565b9150613b4c82613b0b565b601182019050919050565b6000613b6282613ae8565b9150613b6e8285613623565b9150613b7982613b34565b9150613b858284613623565b91508190509392505050565b7f5061757361626c653a206e6f7420706175736564000000000000000000000000600082015250565b6000613bc76014836129b2565b9150613bd282613b91565b602082019050919050565b60006020820190508181036000830152613bf681613bba565b9050919050565b7f5061757361626c653a2070617573656400000000000000000000000000000000600082015250565b6000613c336010836129b2565b9150613c3e82613bfd565b602082019050919050565b60006020820190508181036000830152613c6281613c26565b9050919050565b600081519050919050565b600082825260208201905092915050565b6000613c9082613c69565b613c9a8185613c74565b9350613caa8185602086016129c3565b613cb3816129f6565b840191505092915050565b6000608082019050613cd36000830187612af7565b613ce06020830186612af7565b613ced6040830185612b8d565b8181036060830152613cff8184613c85565b905095945050505050565b600081519050613d1981612918565b92915050565b600060208284031215613d3557613d346128e2565b5b6000613d4384828501613d0a565b91505092915050565b6000613d5782612a62565b9150613d6283612a62565b9250817fffffffffffffffffffffffffffffffffffffffffffffffffffffffffffffffff0483118215151615613d9b57613d9a61382e565b5b828202905092915050565b6000613db182612a62565b91506000821415613dc557613dc461382e565b5b600182039050919050565b7f537472696e67733a20686578206c656e67746820696e73756666696369656e74600082015250565b6000613e066020836129b2565b9150613e1182613dd0565b602082019050919050565b60006020820190508181036000830152613e3581613df9565b9050919050565b7f4552433732313a206d696e7420746f20746865207a65726f2061646472657373600082015250565b6000613e726020836129b2565b9150613e7d82613e3c565b602082019050919050565b60006020820190508181036000830152613ea181613e65565b9050919050565b7f4552433732313a20746f6b656e20616c7265616479206d696e74656400000000600082015250565b6000613ede601c836129b2565b9150613ee982613ea8565b602082019050919050565b60006020820190508181036000830152613f0d81613ed1565b9050919050565b7f4e487b7100000000000000000000000000000000000000000000000000000000600052603160045260246000fdfea2646970667358221220b8ef241a8470ff3919f89d468557bb85b0d3682ec38591b7e3111220739a8b9e64736f6c63430008090033",
  "linkReferences": {},
  "deployedLinkReferences": {}
}