{
  "_format": "hh-sol-artifact-1",
  "contractName": "DAONFT",
  "sourceName": "contracts/DAONFT.sol",
  "abi": [
    {
      "inputs": [
        {
          "internalType": "string",
          "name": "_tokenName",
          "type": "string"
        },
        {
          "internalType": "string",
          "name": "_tokenSymbol",
          "type": "string"
        },
        {
          "internalType": "string",
          "name": "__baseTokenURI",
          "type": "string"
        }
      ],
      "stateMutability": "nonpayable",
      "type": "constructor"
    },
    {
      "anonymous": false,
      "inputs": [
        {
          "indexed": true,
          "internalType": "address",
          "name": "owner",
          "type": "address"
        },
        {
          "indexed": true,
          "internalType": "address",
          "name": "approved",
          "type": "address"
        },
        {
          "indexed": true,
          "internalType": "uint256",
          "name": "tokenId",
          "type": "uint256"
        }
      ],
      "name": "Approval",
      "type": "event"
    },
    {
      "anonymous": false,
      "inputs": [
        {
          "indexed": true,
          "internalType": "address",
          "name": "owner",
          "type": "address"
        },
        {
          "indexed": true,
          "internalType": "address",
          "name": "operator",
          "type": "address"
        },
        {
          "indexed": false,
          "internalType": "bool",
          "name": "approved",
          "type": "bool"
        }
      ],
      "name": "ApprovalForAll",
      "type": "event"
    },
    {
      "anonymous": false,
      "inputs": [
        {
          "indexed": false,
          "internalType": "address",
          "name": "account",
          "type": "address"
        }
      ],
      "name": "Paused",
      "type": "event"
    },
    {
      "anonymous": false,
      "inputs": [
        {
          "indexed": true,
          "internalType": "bytes32",
          "name": "role",
          "type": "bytes32"
        },
        {
          "indexed": true,
          "internalType": "bytes32",
          "name": "previousAdminRole",
          "type": "bytes32"
        },
        {
          "indexed": true,
          "internalType": "bytes32",
          "name": "newAdminRole",
          "type": "bytes32"
        }
      ],
      "name": "RoleAdminChanged",
      "type": "event"
    },
    {
      "anonymous": false,
      "inputs": [
        {
          "indexed": true,
          "internalType": "bytes32",
          "name": "role",
          "type": "bytes32"
        },
        {
          "indexed": true,
          "internalType": "address",
          "name": "account",
          "type": "address"
        },
        {
          "indexed": true,
          "internalType": "address",
          "name": "sender",
          "type": "address"
        }
      ],
      "name": "RoleGranted",
      "type": "event"
    },
    {
      "anonymous": false,
      "inputs": [
        {
          "indexed": true,
          "internalType": "bytes32",
          "name": "role",
          "type": "bytes32"
        },
        {
          "indexed": true,
          "internalType": "address",
          "name": "account",
          "type": "address"
        },
        {
          "indexed": true,
          "internalType": "address",
          "name": "sender",
          "type": "address"
        }
      ],
      "name": "RoleRevoked",
      "type": "event"
    },
    {
      "anonymous": false,
      "inputs": [
        {
          "indexed": true,
          "internalType": "address",
          "name": "from",
          "type": "address"
        },
        {
          "indexed": true,
          "internalType": "address",
          "name": "to",
          "type": "address"
        },
        {
          "indexed": true,
          "internalType": "uint256",
          "name": "tokenId",
          "type": "uint256"
        }
      ],
      "name": "Transfer",
      "type": "event"
    },
    {
      "anonymous": false,
      "inputs": [
        {
          "indexed": false,
          "internalType": "address",
          "name": "account",
          "type": "address"
        }
      ],
      "name": "Unpaused",
      "type": "event"
    },
    {
      "inputs": [],
      "name": "DEFAULT_ADMIN_ROLE",
      "outputs": [
        {
          "internalType": "bytes32",
          "name": "",
          "type": "bytes32"
        }
      ],
      "stateMutability": "view",
      "type": "function"
    },
    {
      "inputs": [],
      "name": "MINTER_ROLE",
      "outputs": [
        {
          "internalType": "bytes32",
          "name": "",
          "type": "bytes32"
        }
      ],
      "stateMutability": "view",
      "type": "function"
    },
    {
      "inputs": [
        {
          "internalType": "address",
          "name": "to",
          "type": "address"
        },
        {
          "internalType": "uint256",
          "name": "tokenId",
          "type": "uint256"
        }
      ],
      "name": "approve",
      "outputs": [],
      "stateMutability": "nonpayable",
      "type": "function"
    },
    {
      "inputs": [
        {
          "internalType": "address",
          "name": "owner",
          "type": "address"
        }
      ],
      "name": "balanceOf",
      "outputs": [
        {
          "internalType": "uint256",
          "name": "",
          "type": "uint256"
        }
      ],
      "stateMutability": "view",
      "type": "function"
    },
    {
      "inputs": [
        {
          "internalType": "uint256",
          "name": "tokenId",
          "type": "uint256"
        }
      ],
      "name": "getApproved",
      "outputs": [
        {
          "internalType": "address",
          "name": "",
          "type": "address"
        }
      ],
      "stateMutability": "view",
      "type": "function"
    },
    {
      "inputs": [],
      "name": "getLatestTokenId",
      "outputs": [
        {
          "internalType": "uint256",
          "name": "",
          "type": "uint256"
        }
      ],
      "stateMutability": "view",
      "type": "function"
    },
    {
      "inputs": [
        {
          "internalType": "bytes32",
          "name": "role",
          "type": "bytes32"
        }
      ],
      "name": "getRoleAdmin",
      "outputs": [
        {
          "internalType": "bytes32",
          "name": "",
          "type": "bytes32"
        }
      ],
      "stateMutability": "view",
      "type": "function"
    },
    {
      "inputs": [
        {
          "internalType": "bytes32",
          "name": "role",
          "type": "bytes32"
        },
        {
          "internalType": "address",
          "name": "account",
          "type": "address"
        }
      ],
      "name": "grantRole",
      "outputs": [],
      "stateMutability": "nonpayable",
      "type": "function"
    },
    {
      "inputs": [
        {
          "internalType": "bytes32",
          "name": "role",
          "type": "bytes32"
        },
        {
          "internalType": "address",
          "name": "account",
          "type": "address"
        }
      ],
      "name": "hasRole",
      "outputs": [
        {
          "internalType": "bool",
          "name": "",
          "type": "bool"
        }
      ],
      "stateMutability": "view",
      "type": "function"
    },
    {
      "inputs": [
        {
          "internalType": "address",
          "name": "owner",
          "type": "address"
        },
        {
          "internalType": "address",
          "name": "operator",
          "type": "address"
        }
      ],
      "name": "isApprovedForAll",
      "outputs": [
        {
          "internalType": "bool",
          "name": "",
          "type": "bool"
        }
      ],
      "stateMutability": "view",
      "type": "function"
    },
    {
      "inputs": [],
      "name": "name",
      "outputs": [
        {
          "internalType": "string",
          "name": "",
          "type": "string"
        }
      ],
      "stateMutability": "view",
      "type": "function"
    },
    {
      "inputs": [
        {
          "internalType": "uint256",
          "name": "tokenId",
          "type": "uint256"
        }
      ],
      "name": "ownerOf",
      "outputs": [
        {
          "internalType": "address",
          "name": "",
          "type": "address"
        }
      ],
      "stateMutability": "view",
      "type": "function"
    },
    {
      "inputs": [],
      "name": "pause",
      "outputs": [],
      "stateMutability": "nonpayable",
      "type": "function"
    },
    {
      "inputs": [],
      "name": "paused",
      "outputs": [
        {
          "internalType": "bool",
          "name": "",
          "type": "bool"
        }
      ],
      "stateMutability": "view",
      "type": "function"
    },
    {
      "inputs": [
        {
          "internalType": "bytes32",
          "name": "role",
          "type": "bytes32"
        },
        {
          "internalType": "address",
          "name": "account",
          "type": "address"
        }
      ],
      "name": "renounceRole",
      "outputs": [],
      "stateMutability": "nonpayable",
      "type": "function"
    },
    {
      "inputs": [
        {
          "internalType": "bytes32",
          "name": "role",
          "type": "bytes32"
        },
        {
          "internalType": "address",
          "name": "account",
          "type": "address"
        }
      ],
      "name": "revokeRole",
      "outputs": [],
      "stateMutability": "nonpayable",
      "type": "function"
    },
    {
      "inputs": [
        {
          "internalType": "address",
          "name": "to",
          "type": "address"
        }
      ],
      "name": "safeMint",
      "outputs": [],
      "stateMutability": "nonpayable",
      "type": "function"
    },
    {
      "inputs": [
        {
          "internalType": "address",
          "name": "from",
          "type": "address"
        },
        {
          "internalType": "address",
          "name": "to",
          "type": "address"
        },
        {
          "internalType": "uint256",
          "name": "tokenId",
          "type": "uint256"
        }
      ],
      "name": "safeTransferFrom",
      "outputs": [],
      "stateMutability": "nonpayable",
      "type": "function"
    },
    {
      "inputs": [
        {
          "internalType": "address",
          "name": "from",
          "type": "address"
        },
        {
          "internalType": "address",
          "name": "to",
          "type": "address"
        },
        {
          "internalType": "uint256",
          "name": "tokenId",
          "type": "uint256"
        },
        {
          "internalType": "bytes",
          "name": "data",
          "type": "bytes"
        }
      ],
      "name": "safeTransferFrom",
      "outputs": [],
      "stateMutability": "nonpayable",
      "type": "function"
    },
    {
      "inputs": [
        {
          "internalType": "address",
          "name": "operator",
          "type": "address"
        },
        {
          "internalType": "bool",
          "name": "approved",
          "type": "bool"
        }
      ],
      "name": "setApprovalForAll",
      "outputs": [],
      "stateMutability": "nonpayable",
      "type": "function"
    },
    {
      "inputs": [
        {
          "internalType": "address",
          "name": "_minter",
          "type": "address"
        }
      ],
      "name": "setupMinterRole",
      "outputs": [],
      "stateMutability": "nonpayable",
      "type": "function"
    },
    {
      "inputs": [
        {
          "internalType": "bytes4",
          "name": "interfaceId",
          "type": "bytes4"
        }
      ],
      "name": "supportsInterface",
      "outputs": [
        {
          "internalType": "bool",
          "name": "",
          "type": "bool"
        }
      ],
      "stateMutability": "view",
      "type": "function"
    },
    {
      "inputs": [],
      "name": "symbol",
      "outputs": [
        {
          "internalType": "string",
          "name": "",
          "type": "string"
        }
      ],
      "stateMutability": "view",
      "type": "function"
    },
    {
      "inputs": [
        {
          "internalType": "uint256",
          "name": "index",
          "type": "uint256"
        }
      ],
      "name": "tokenByIndex",
      "outputs": [
        {
          "internalType": "uint256",
          "name": "",
          "type": "uint256"
        }
      ],
      "stateMutability": "view",
      "type": "function"
    },
    {
      "inputs": [
        {
          "internalType": "address",
          "name": "owner",
          "type": "address"
        },
        {
          "internalType": "uint256",
          "name": "index",
          "type": "uint256"
        }
      ],
      "name": "tokenOfOwnerByIndex",
      "outputs": [
        {
          "internalType": "uint256",
          "name": "",
          "type": "uint256"
        }
      ],
      "stateMutability": "view",
      "type": "function"
    },
    {
      "inputs": [
        {
          "internalType": "uint256",
          "name": "tokenId",
          "type": "uint256"
        }
      ],
      "name": "tokenURI",
      "outputs": [
        {
          "internalType": "string",
          "name": "",
          "type": "string"
        }
      ],
      "stateMutability": "view",
      "type": "function"
    },
    {
      "inputs": [],
      "name": "totalSupply",
      "outputs": [
        {
          "internalType": "uint256",
          "name": "",
          "type": "uint256"
        }
      ],
      "stateMutability": "view",
      "type": "function"
    },
    {
      "inputs": [
        {
          "internalType": "address",
          "name": "from",
          "type": "address"
        },
        {
          "internalType": "address",
          "name": "to",
          "type": "address"
        },
        {
          "internalType": "uint256",
          "name": "tokenId",
          "type": "uint256"
        }
      ],
      "name": "transferFrom",
      "outputs": [],
      "stateMutability": "nonpayable",
      "type": "function"
    },
    {
      "inputs": [],
      "name": "unpause",
      "outputs": [],
      "stateMutability": "nonpayable",
      "type": "function"
    }
  ],
  "bytecode": "0x60806040523480156200001157600080fd5b5060405162004584380380620045848339818101604052810190620000379190620004a3565b828281600090805190602001906200005192919062000256565b5080600190805190602001906200006a92919062000256565b5050506000600a60006101000a81548160ff02191690831515021790555080600d9080519060200190620000a092919062000256565b50620000d37f9f2df0fed2c77648de5860a4cc508cd0818c85b8b8a1ab4ceeef8d981c8956a633620000f160201b60201c565b620000e86000801b33620000f160201b60201c565b505050620005c1565b620001038282620001e360201b60201c565b620001df576001600b600084815260200190815260200160002060000160008373ffffffffffffffffffffffffffffffffffffffff1673ffffffffffffffffffffffffffffffffffffffff16815260200190815260200160002060006101000a81548160ff021916908315150217905550620001846200024e60201b60201c565b73ffffffffffffffffffffffffffffffffffffffff168173ffffffffffffffffffffffffffffffffffffffff16837f2f8788117e7eff1d82e926ec794901d17c78024a50270940304540a733656f0d60405160405180910390a45b5050565b6000600b600084815260200190815260200160002060000160008373ffffffffffffffffffffffffffffffffffffffff1673ffffffffffffffffffffffffffffffffffffffff16815260200190815260200160002060009054906101000a900460ff16905092915050565b600033905090565b82805462000264906200058b565b90600052602060002090601f016020900481019282620002885760008555620002d4565b82601f10620002a357805160ff1916838001178555620002d4565b82800160010185558215620002d4579182015b82811115620002d3578251825591602001919060010190620002b6565b5b509050620002e39190620002e7565b5090565b5b8082111562000302576000816000905550600101620002e8565b5090565b6000604051905090565b600080fd5b600080fd5b600080fd5b600080fd5b6000601f19601f8301169050919050565b7f4e487b7100000000000000000000000000000000000000000000000000000000600052604160045260246000fd5b6200036f8262000324565b810181811067ffffffffffffffff8211171562000391576200039062000335565b5b80604052505050565b6000620003a662000306565b9050620003b4828262000364565b919050565b600067ffffffffffffffff821115620003d757620003d662000335565b5b620003e28262000324565b9050602081019050919050565b60005b838110156200040f578082015181840152602081019050620003f2565b838111156200041f576000848401525b50505050565b60006200043c6200043684620003b9565b6200039a565b9050828152602081018484840111156200045b576200045a6200031f565b5b62000468848285620003ef565b509392505050565b600082601f8301126200048857620004876200031a565b5b81516200049a84826020860162000425565b91505092915050565b600080600060608486031215620004bf57620004be62000310565b5b600084015167ffffffffffffffff811115620004e057620004df62000315565b5b620004ee8682870162000470565b935050602084015167ffffffffffffffff81111562000512576200051162000315565b5b620005208682870162000470565b925050604084015167ffffffffffffffff81111562000544576200054362000315565b5b620005528682870162000470565b9150509250925092565b7f4e487b7100000000000000000000000000000000000000000000000000000000600052602260045260246000fd5b60006002820490506001821680620005a457607f821691505b60208210811415620005bb57620005ba6200055c565b5b50919050565b613fb380620005d16000396000f3fe608060405234801561001057600080fd5b50600436106101cf5760003560e01c80634f6ccce711610104578063a217fddf116100a2578063d539139311610071578063d53913931461052c578063d547741f1461054a578063e985e9c514610566578063fcce837214610596576101cf565b8063a217fddf146104a6578063a22cb465146104c4578063b88d4fde146104e0578063c87b56dd146104fc576101cf565b806370a08231116100de57806370a082311461041e5780638456cb591461044e57806391d148541461045857806395d89b4114610488576101cf565b80634f6ccce7146103a05780635c975abb146103d05780636352211e146103ee576101cf565b806325d112a91161017157806336568abe1161014b57806336568abe146103425780633f4ba83a1461035e57806340d097c31461036857806342842e0e14610384576101cf565b806325d112a9146102d85780632f2ff15d146102f65780632f745c5914610312576101cf565b8063095ea7b3116101ad578063095ea7b31461025257806318160ddd1461026e57806323b872dd1461028c578063248a9ca3146102a8576101cf565b806301ffc9a7146101d457806306fdde0314610204578063081812fc14610222575b600080fd5b6101ee60048036038101906101e9919061297e565b6105b2565b6040516101fb91906129c6565b60405180910390f35b61020c6105c4565b6040516102199190612a7a565b60405180910390f35b61023c60048036038101906102379190612ad2565b610656565b6040516102499190612b40565b60405180910390f35b61026c60048036038101906102679190612b87565b61069c565b005b6102766107b4565b6040516102839190612bd6565b60405180910390f35b6102a660048036038101906102a19190612bf1565b6107c1565b005b6102c260048036038101906102bd9190612c7a565b610821565b6040516102cf9190612cb6565b60405180910390f35b6102e0610841565b6040516102ed9190612bd6565b60405180910390f35b610310600480360381019061030b9190612cd1565b610852565b005b61032c60048036038101906103279190612b87565b610873565b6040516103399190612bd6565b60405180910390f35b61035c60048036038101906103579190612cd1565b610918565b005b61036661099b565b005b610382600480360381019061037d9190612d11565b6109f1565b005b61039e60048036038101906103999190612bf1565b610a80565b005b6103ba60048036038101906103b59190612ad2565b610aa0565b6040516103c79190612bd6565b60405180910390f35b6103d8610b11565b6040516103e591906129c6565b60405180910390f35b61040860048036038101906104039190612ad2565b610b28565b6040516104159190612b40565b60405180910390f35b61043860048036038101906104339190612d11565b610bda565b6040516104459190612bd6565b60405180910390f35b610456610c92565b005b610472600480360381019061046d9190612cd1565b610ce8565b60405161047f91906129c6565b60405180910390f35b610490610d53565b60405161049d9190612a7a565b60405180910390f35b6104ae610de5565b6040516104bb9190612cb6565b60405180910390f35b6104de60048036038101906104d99190612d6a565b610dec565b005b6104fa60048036038101906104f59190612edf565b610e02565b005b61051660048036038101906105119190612ad2565b610e64565b6040516105239190612a7a565b60405180910390f35b610534610ecc565b6040516105419190612cb6565b60405180910390f35b610564600480360381019061055f9190612cd1565b610ef0565b005b610580600480360381019061057b9190612f62565b610f11565b60405161058d91906129c6565b60405180910390f35b6105b060048036038101906105ab9190612d11565b610fa5565b005b60006105bd8261101e565b9050919050565b6060600080546105d390612fd1565b80601f01602080910402602001604051908101604052809291908181526020018280546105ff90612fd1565b801561064c5780601f106106215761010080835404028352916020019161064c565b820191906000526020600020905b81548152906001019060200180831161062f57829003601f168201915b5050505050905090565b600061066182611098565b6004600083815260200190815260200160002060009054906101000a900473ffffffffffffffffffffffffffffffffffffffff169050919050565b60006106a782610b28565b90508073ffffffffffffffffffffffffffffffffffffffff168373ffffffffffffffffffffffffffffffffffffffff161415610718576040517f08c379a000000000000000000000000000000000000000000000000000000000815260040161070f90613075565b60405180910390fd5b8073ffffffffffffffffffffffffffffffffffffffff166107376110e3565b73ffffffffffffffffffffffffffffffffffffffff1614806107665750610765816107606110e3565b610f11565b5b6107a5576040517f08c379a000000000000000000000000000000000000000000000000000000000815260040161079c90613107565b60405180910390fd5b6107af83836110eb565b505050565b6000600880549050905090565b6107d26107cc6110e3565b826111a4565b610811576040517f08c379a000000000000000000000000000000000000000000000000000000000815260040161080890613199565b60405180910390fd5b61081c838383611239565b505050565b6000600b6000838152602001908152602001600020600101549050919050565b600061084d600c6114a0565b905090565b61085b82610821565b610864816114ae565b61086e83836114c2565b505050565b600061087e83610bda565b82106108bf576040517f08c379a00000000000000000000000000000000000000000000000000000000081526004016108b69061322b565b60405180910390fd5b600660008473ffffffffffffffffffffffffffffffffffffffff1673ffffffffffffffffffffffffffffffffffffffff168152602001908152602001600020600083815260200190815260200160002054905092915050565b6109206110e3565b73ffffffffffffffffffffffffffffffffffffffff168173ffffffffffffffffffffffffffffffffffffffff161461098d576040517f08c379a0000000000000000000000000000000000000000000000000000000008152600401610984906132bd565b60405180910390fd5b61099782826115a3565b5050565b6109a86000801b33610ce8565b6109e7576040517f08c379a00000000000000000000000000000000000000000000000000000000081526004016109de9061334f565b60405180910390fd5b6109ef611685565b565b610a1b7f9f2df0fed2c77648de5860a4cc508cd0818c85b8b8a1ab4ceeef8d981c8956a633610ce8565b610a5a576040517f08c379a0000000000000000000000000000000000000000000000000000000008152600401610a51906133e1565b60405180910390fd5b6000610a66600c6114a0565b9050610a72600c6116e8565b610a7c82826116fe565b5050565b610a9b83838360405180602001604052806000815250610e02565b505050565b6000610aaa6107b4565b8210610aeb576040517f08c379a0000000000000000000000000000000000000000000000000000000008152600401610ae290613473565b60405180910390fd5b60088281548110610aff57610afe613493565b5b90600052602060002001549050919050565b6000600a60009054906101000a900460ff16905090565b6000806002600084815260200190815260200160002060009054906101000a900473ffffffffffffffffffffffffffffffffffffffff169050600073ffffffffffffffffffffffffffffffffffffffff168173ffffffffffffffffffffffffffffffffffffffff161415610bd1576040517f08c379a0000000000000000000000000000000000000000000000000000000008152600401610bc89061350e565b60405180910390fd5b80915050919050565b60008073ffffffffffffffffffffffffffffffffffffffff168273ffffffffffffffffffffffffffffffffffffffff161415610c4b576040517f08c379a0000000000000000000000000000000000000000000000000000000008152600401610c42906135a0565b60405180910390fd5b600360008373ffffffffffffffffffffffffffffffffffffffff1673ffffffffffffffffffffffffffffffffffffffff168152602001908152602001600020549050919050565b610c9f6000801b33610ce8565b610cde576040517f08c379a0000000000000000000000000000000000000000000000000000000008152600401610cd590613632565b60405180910390fd5b610ce661171c565b565b6000600b600084815260200190815260200160002060000160008373ffffffffffffffffffffffffffffffffffffffff1673ffffffffffffffffffffffffffffffffffffffff16815260200190815260200160002060009054906101000a900460ff16905092915050565b606060018054610d6290612fd1565b80601f0160208091040260200160405190810160405280929190818152602001828054610d8e90612fd1565b8015610ddb5780601f10610db057610100808354040283529160200191610ddb565b820191906000526020600020905b815481529060010190602001808311610dbe57829003601f168201915b5050505050905090565b6000801b81565b610dfe610df76110e3565b838361177f565b5050565b610e13610e0d6110e3565b836111a4565b610e52576040517f08c379a0000000000000000000000000000000000000000000000000000000008152600401610e4990613199565b60405180910390fd5b610e5e848484846118ec565b50505050565b6060610e6f82611098565b6000610e79611948565b90506000815111610e995760405180602001604052806000815250610ec4565b80610ea3846119da565b604051602001610eb492919061368e565b6040516020818303038152906040525b915050919050565b7f9f2df0fed2c77648de5860a4cc508cd0818c85b8b8a1ab4ceeef8d981c8956a681565b610ef982610821565b610f02816114ae565b610f0c83836115a3565b505050565b6000600560008473ffffffffffffffffffffffffffffffffffffffff1673ffffffffffffffffffffffffffffffffffffffff16815260200190815260200160002060008373ffffffffffffffffffffffffffffffffffffffff1673ffffffffffffffffffffffffffffffffffffffff16815260200190815260200160002060009054906101000a900460ff16905092915050565b610fb26000801b33610ce8565b610ff1576040517f08c379a0000000000000000000000000000000000000000000000000000000008152600401610fe890613724565b60405180910390fd5b61101b7f9f2df0fed2c77648de5860a4cc508cd0818c85b8b8a1ab4ceeef8d981c8956a682611b3b565b50565b60007f7965db0b000000000000000000000000000000000000000000000000000000007bffffffffffffffffffffffffffffffffffffffffffffffffffffffff1916827bffffffffffffffffffffffffffffffffffffffffffffffffffffffff19161480611091575061109082611b49565b5b9050919050565b6110a181611bc3565b6110e0576040517f08c379a00000000000000000000000000000000000000000000000000000000081526004016110d79061350e565b60405180910390fd5b50565b600033905090565b816004600083815260200190815260200160002060006101000a81548173ffffffffffffffffffffffffffffffffffffffff021916908373ffffffffffffffffffffffffffffffffffffffff160217905550808273ffffffffffffffffffffffffffffffffffffffff1661115e83610b28565b73ffffffffffffffffffffffffffffffffffffffff167f8c5be1e5ebec7d5bd14f71427d1e84f3dd0314c0f7b2291e5b200ac8c7c3b92560405160405180910390a45050565b6000806111b083610b28565b90508073ffffffffffffffffffffffffffffffffffffffff168473ffffffffffffffffffffffffffffffffffffffff1614806111f257506111f18185610f11565b5b8061123057508373ffffffffffffffffffffffffffffffffffffffff1661121884610656565b73ffffffffffffffffffffffffffffffffffffffff16145b91505092915050565b8273ffffffffffffffffffffffffffffffffffffffff1661125982610b28565b73ffffffffffffffffffffffffffffffffffffffff16146112af576040517f08c379a00000000000000000000000000000000000000000000000000000000081526004016112a6906137b6565b60405180910390fd5b600073ffffffffffffffffffffffffffffffffffffffff168273ffffffffffffffffffffffffffffffffffffffff16141561131f576040517f08c379a000000000000000000000000000000000000000000000000000000000815260040161131690613848565b60405180910390fd5b61132a838383611c2f565b6113356000826110eb565b6001600360008573ffffffffffffffffffffffffffffffffffffffff1673ffffffffffffffffffffffffffffffffffffffff16815260200190815260200160002060008282546113859190613897565b925050819055506001600360008473ffffffffffffffffffffffffffffffffffffffff1673ffffffffffffffffffffffffffffffffffffffff16815260200190815260200160002060008282546113dc91906138cb565b92505081905550816002600083815260200190815260200160002060006101000a81548173ffffffffffffffffffffffffffffffffffffffff021916908373ffffffffffffffffffffffffffffffffffffffff160217905550808273ffffffffffffffffffffffffffffffffffffffff168473ffffffffffffffffffffffffffffffffffffffff167fddf252ad1be2c89b69c2b068fc378daa952ba7f163c4a11628f55a4df523b3ef60405160405180910390a461149b838383611c47565b505050565b600081600001549050919050565b6114bf816114ba6110e3565b611c4c565b50565b6114cc8282610ce8565b61159f576001600b600084815260200190815260200160002060000160008373ffffffffffffffffffffffffffffffffffffffff1673ffffffffffffffffffffffffffffffffffffffff16815260200190815260200160002060006101000a81548160ff0219169083151502179055506115446110e3565b73ffffffffffffffffffffffffffffffffffffffff168173ffffffffffffffffffffffffffffffffffffffff16837f2f8788117e7eff1d82e926ec794901d17c78024a50270940304540a733656f0d60405160405180910390a45b5050565b6115ad8282610ce8565b15611681576000600b600084815260200190815260200160002060000160008373ffffffffffffffffffffffffffffffffffffffff1673ffffffffffffffffffffffffffffffffffffffff16815260200190815260200160002060006101000a81548160ff0219169083151502179055506116266110e3565b73ffffffffffffffffffffffffffffffffffffffff168173ffffffffffffffffffffffffffffffffffffffff16837ff6391f5c32d9c69d2a47ea670b442974b53935d1edc7fd64eb21e047a839171b60405160405180910390a45b5050565b61168d611ce9565b6000600a60006101000a81548160ff0219169083151502179055507f5db9ee0a495bf2e6ff9c91a7834c1ba4fdd244a5e8aa4e537bd38aeae4b073aa6116d16110e3565b6040516116de9190612b40565b60405180910390a1565b6001816000016000828254019250508190555050565b611718828260405180602001604052806000815250611d32565b5050565b611724611d8d565b6001600a60006101000a81548160ff0219169083151502179055507f62e78cea01bee320cd4e420270b5ea74000d11b0c9f74754ebdbfc544b05a2586117686110e3565b6040516117759190612b40565b60405180910390a1565b8173ffffffffffffffffffffffffffffffffffffffff168373ffffffffffffffffffffffffffffffffffffffff1614156117ee576040517f08c379a00000000000000000000000000000000000000000000000000000000081526004016117e59061396d565b60405180910390fd5b80600560008573ffffffffffffffffffffffffffffffffffffffff1673ffffffffffffffffffffffffffffffffffffffff16815260200190815260200160002060008473ffffffffffffffffffffffffffffffffffffffff1673ffffffffffffffffffffffffffffffffffffffff16815260200190815260200160002060006101000a81548160ff0219169083151502179055508173ffffffffffffffffffffffffffffffffffffffff168373ffffffffffffffffffffffffffffffffffffffff167f17307eab39ab6107e8899845ad3d59bd9653f200f220920489ca2b5937696c31836040516118df91906129c6565b60405180910390a3505050565b6118f7848484611239565b61190384848484611dd7565b611942576040517f08c379a0000000000000000000000000000000000000000000000000000000008152600401611939906139ff565b60405180910390fd5b50505050565b6060600d805461195790612fd1565b80601f016020809104026020016040519081016040528092919081815260200182805461198390612fd1565b80156119d05780601f106119a5576101008083540402835291602001916119d0565b820191906000526020600020905b8154815290600101906020018083116119b357829003601f168201915b5050505050905090565b60606000821415611a22576040518060400160405280600181526020017f30000000000000000000000000000000000000000000000000000000000000008152509050611b36565b600082905060005b60008214611a54578080611a3d90613a1f565b915050600a82611a4d9190613a97565b9150611a2a565b60008167ffffffffffffffff811115611a7057611a6f612db4565b5b6040519080825280601f01601f191660200182016040528015611aa25781602001600182028036833780820191505090505b5090505b60008514611b2f57600182611abb9190613897565b9150600a85611aca9190613ac8565b6030611ad691906138cb565b60f81b818381518110611aec57611aeb613493565b5b60200101907effffffffffffffffffffffffffffffffffffffffffffffffffffffffffffff1916908160001a905350600a85611b289190613a97565b9450611aa6565b8093505050505b919050565b611b4582826114c2565b5050565b60007f780e9d63000000000000000000000000000000000000000000000000000000007bffffffffffffffffffffffffffffffffffffffffffffffffffffffff1916827bffffffffffffffffffffffffffffffffffffffffffffffffffffffff19161480611bbc5750611bbb82611f6e565b5b9050919050565b60008073ffffffffffffffffffffffffffffffffffffffff166002600084815260200190815260200160002060009054906101000a900473ffffffffffffffffffffffffffffffffffffffff1673ffffffffffffffffffffffffffffffffffffffff1614159050919050565b611c37611d8d565b611c42838383612050565b505050565b505050565b611c568282610ce8565b611ce557611c7b8173ffffffffffffffffffffffffffffffffffffffff166014612164565b611c898360001c6020612164565b604051602001611c9a929190613b91565b6040516020818303038152906040526040517f08c379a0000000000000000000000000000000000000000000000000000000008152600401611cdc9190612a7a565b60405180910390fd5b5050565b611cf1610b11565b611d30576040517f08c379a0000000000000000000000000000000000000000000000000000000008152600401611d2790613c17565b60405180910390fd5b565b611d3c83836123a0565b611d496000848484611dd7565b611d88576040517f08c379a0000000000000000000000000000000000000000000000000000000008152600401611d7f906139ff565b60405180910390fd5b505050565b611d95610b11565b15611dd5576040517f08c379a0000000000000000000000000000000000000000000000000000000008152600401611dcc90613c83565b60405180910390fd5b565b6000611df88473ffffffffffffffffffffffffffffffffffffffff1661257a565b15611f61578373ffffffffffffffffffffffffffffffffffffffff1663150b7a02611e216110e3565b8786866040518563ffffffff1660e01b8152600401611e439493929190613cf8565b602060405180830381600087803b158015611e5d57600080fd5b505af1925050508015611e8e57506040513d601f19601f82011682018060405250810190611e8b9190613d59565b60015b611f11573d8060008114611ebe576040519150601f19603f3d011682016040523d82523d6000602084013e611ec3565b606091505b50600081511415611f09576040517f08c379a0000000000000000000000000000000000000000000000000000000008152600401611f00906139ff565b60405180910390fd5b805181602001fd5b63150b7a0260e01b7bffffffffffffffffffffffffffffffffffffffffffffffffffffffff1916817bffffffffffffffffffffffffffffffffffffffffffffffffffffffff191614915050611f66565b600190505b949350505050565b60007f80ac58cd000000000000000000000000000000000000000000000000000000007bffffffffffffffffffffffffffffffffffffffffffffffffffffffff1916827bffffffffffffffffffffffffffffffffffffffffffffffffffffffff1916148061203957507f5b5e139f000000000000000000000000000000000000000000000000000000007bffffffffffffffffffffffffffffffffffffffffffffffffffffffff1916827bffffffffffffffffffffffffffffffffffffffffffffffffffffffff1916145b8061204957506120488261259d565b5b9050919050565b61205b838383612607565b600073ffffffffffffffffffffffffffffffffffffffff168373ffffffffffffffffffffffffffffffffffffffff16141561209e576120998161260c565b6120dd565b8173ffffffffffffffffffffffffffffffffffffffff168373ffffffffffffffffffffffffffffffffffffffff16146120dc576120db8382612655565b5b5b600073ffffffffffffffffffffffffffffffffffffffff168273ffffffffffffffffffffffffffffffffffffffff1614156121205761211b816127c2565b61215f565b8273ffffffffffffffffffffffffffffffffffffffff168273ffffffffffffffffffffffffffffffffffffffff161461215e5761215d8282612893565b5b5b505050565b6060600060028360026121779190613d86565b61218191906138cb565b67ffffffffffffffff81111561219a57612199612db4565b5b6040519080825280601f01601f1916602001820160405280156121cc5781602001600182028036833780820191505090505b5090507f30000000000000000000000000000000000000000000000000000000000000008160008151811061220457612203613493565b5b60200101907effffffffffffffffffffffffffffffffffffffffffffffffffffffffffffff1916908160001a9053507f78000000000000000000000000000000000000000000000000000000000000008160018151811061226857612267613493565b5b60200101907effffffffffffffffffffffffffffffffffffffffffffffffffffffffffffff1916908160001a905350600060018460026122a89190613d86565b6122b291906138cb565b90505b6001811115612352577f3031323334353637383961626364656600000000000000000000000000000000600f8616601081106122f4576122f3613493565b5b1a60f81b82828151811061230b5761230a613493565b5b60200101907effffffffffffffffffffffffffffffffffffffffffffffffffffffffffffff1916908160001a905350600485901c94508061234b90613de0565b90506122b5565b5060008414612396576040517f08c379a000000000000000000000000000000000000000000000000000000000815260040161238d90613e56565b60405180910390fd5b8091505092915050565b600073ffffffffffffffffffffffffffffffffffffffff168273ffffffffffffffffffffffffffffffffffffffff161415612410576040517f08c379a000000000000000000000000000000000000000000000000000000000815260040161240790613ec2565b60405180910390fd5b61241981611bc3565b15612459576040517f08c379a000000000000000000000000000000000000000000000000000000000815260040161245090613f2e565b60405180910390fd5b61246560008383611c2f565b6001600360008473ffffffffffffffffffffffffffffffffffffffff1673ffffffffffffffffffffffffffffffffffffffff16815260200190815260200160002060008282546124b591906138cb565b92505081905550816002600083815260200190815260200160002060006101000a81548173ffffffffffffffffffffffffffffffffffffffff021916908373ffffffffffffffffffffffffffffffffffffffff160217905550808273ffffffffffffffffffffffffffffffffffffffff16600073ffffffffffffffffffffffffffffffffffffffff167fddf252ad1be2c89b69c2b068fc378daa952ba7f163c4a11628f55a4df523b3ef60405160405180910390a461257660008383611c47565b5050565b6000808273ffffffffffffffffffffffffffffffffffffffff163b119050919050565b60007f01ffc9a7000000000000000000000000000000000000000000000000000000007bffffffffffffffffffffffffffffffffffffffffffffffffffffffff1916827bffffffffffffffffffffffffffffffffffffffffffffffffffffffff1916149050919050565b505050565b6008805490506009600083815260200190815260200160002081905550600881908060018154018082558091505060019003906000526020600020016000909190919091505550565b6000600161266284610bda565b61266c9190613897565b9050600060076000848152602001908152602001600020549050818114612751576000600660008673ffffffffffffffffffffffffffffffffffffffff1673ffffffffffffffffffffffffffffffffffffffff168152602001908152602001600020600084815260200190815260200160002054905080600660008773ffffffffffffffffffffffffffffffffffffffff1673ffffffffffffffffffffffffffffffffffffffff168152602001908152602001600020600084815260200190815260200160002081905550816007600083815260200190815260200160002081905550505b6007600084815260200190815260200160002060009055600660008573ffffffffffffffffffffffffffffffffffffffff1673ffffffffffffffffffffffffffffffffffffffff16815260200190815260200160002060008381526020019081526020016000206000905550505050565b600060016008805490506127d69190613897565b905060006009600084815260200190815260200160002054905060006008838154811061280657612805613493565b5b90600052602060002001549050806008838154811061282857612827613493565b5b90600052602060002001819055508160096000838152602001908152602001600020819055506009600085815260200190815260200160002060009055600880548061287757612876613f4e565b5b6001900381819060005260206000200160009055905550505050565b600061289e83610bda565b905081600660008573ffffffffffffffffffffffffffffffffffffffff1673ffffffffffffffffffffffffffffffffffffffff168152602001908152602001600020600083815260200190815260200160002081905550806007600084815260200190815260200160002081905550505050565b6000604051905090565b600080fd5b600080fd5b60007fffffffff0000000000000000000000000000000000000000000000000000000082169050919050565b61295b81612926565b811461296657600080fd5b50565b60008135905061297881612952565b92915050565b6000602082840312156129945761299361291c565b5b60006129a284828501612969565b91505092915050565b60008115159050919050565b6129c0816129ab565b82525050565b60006020820190506129db60008301846129b7565b92915050565b600081519050919050565b600082825260208201905092915050565b60005b83811015612a1b578082015181840152602081019050612a00565b83811115612a2a576000848401525b50505050565b6000601f19601f8301169050919050565b6000612a4c826129e1565b612a5681856129ec565b9350612a668185602086016129fd565b612a6f81612a30565b840191505092915050565b60006020820190508181036000830152612a948184612a41565b905092915050565b6000819050919050565b612aaf81612a9c565b8114612aba57600080fd5b50565b600081359050612acc81612aa6565b92915050565b600060208284031215612ae857612ae761291c565b5b6000612af684828501612abd565b91505092915050565b600073ffffffffffffffffffffffffffffffffffffffff82169050919050565b6000612b2a82612aff565b9050919050565b612b3a81612b1f565b82525050565b6000602082019050612b556000830184612b31565b92915050565b612b6481612b1f565b8114612b6f57600080fd5b50565b600081359050612b8181612b5b565b92915050565b60008060408385031215612b9e57612b9d61291c565b5b6000612bac85828601612b72565b9250506020612bbd85828601612abd565b9150509250929050565b612bd081612a9c565b82525050565b6000602082019050612beb6000830184612bc7565b92915050565b600080600060608486031215612c0a57612c0961291c565b5b6000612c1886828701612b72565b9350506020612c2986828701612b72565b9250506040612c3a86828701612abd565b9150509250925092565b6000819050919050565b612c5781612c44565b8114612c6257600080fd5b50565b600081359050612c7481612c4e565b92915050565b600060208284031215612c9057612c8f61291c565b5b6000612c9e84828501612c65565b91505092915050565b612cb081612c44565b82525050565b6000602082019050612ccb6000830184612ca7565b92915050565b60008060408385031215612ce857612ce761291c565b5b6000612cf685828601612c65565b9250506020612d0785828601612b72565b9150509250929050565b600060208284031215612d2757612d2661291c565b5b6000612d3584828501612b72565b91505092915050565b612d47816129ab565b8114612d5257600080fd5b50565b600081359050612d6481612d3e565b92915050565b60008060408385031215612d8157612d8061291c565b5b6000612d8f85828601612b72565b9250506020612da085828601612d55565b9150509250929050565b600080fd5b600080fd5b7f4e487b7100000000000000000000000000000000000000000000000000000000600052604160045260246000fd5b612dec82612a30565b810181811067ffffffffffffffff82111715612e0b57612e0a612db4565b5b80604052505050565b6000612e1e612912565b9050612e2a8282612de3565b919050565b600067ffffffffffffffff821115612e4a57612e49612db4565b5b612e5382612a30565b9050602081019050919050565b82818337600083830152505050565b6000612e82612e7d84612e2f565b612e14565b905082815260208101848484011115612e9e57612e9d612daf565b5b612ea9848285612e60565b509392505050565b600082601f830112612ec657612ec5612daa565b5b8135612ed6848260208601612e6f565b91505092915050565b60008060008060808587031215612ef957612ef861291c565b5b6000612f0787828801612b72565b9450506020612f1887828801612b72565b9350506040612f2987828801612abd565b925050606085013567ffffffffffffffff811115612f4a57612f49612921565b5b612f5687828801612eb1565b91505092959194509250565b60008060408385031215612f7957612f7861291c565b5b6000612f8785828601612b72565b9250506020612f9885828601612b72565b9150509250929050565b7f4e487b7100000000000000000000000000000000000000000000000000000000600052602260045260246000fd5b60006002820490506001821680612fe957607f821691505b60208210811415612ffd57612ffc612fa2565b5b50919050565b7f4552433732313a20617070726f76616c20746f2063757272656e74206f776e6560008201527f7200000000000000000000000000000000000000000000000000000000000000602082015250565b600061305f6021836129ec565b915061306a82613003565b604082019050919050565b6000602082019050818103600083015261308e81613052565b9050919050565b7f4552433732313a20617070726f76652063616c6c6572206973206e6f7420746f60008201527f6b656e206f776e6572206e6f7220617070726f76656420666f7220616c6c0000602082015250565b60006130f1603e836129ec565b91506130fc82613095565b604082019050919050565b60006020820190508181036000830152613120816130e4565b9050919050565b7f4552433732313a2063616c6c6572206973206e6f7420746f6b656e206f776e6560008201527f72206e6f7220617070726f766564000000000000000000000000000000000000602082015250565b6000613183602e836129ec565b915061318e82613127565b604082019050919050565b600060208201905081810360008301526131b281613176565b9050919050565b7f455243373231456e756d657261626c653a206f776e657220696e646578206f7560008201527f74206f6620626f756e6473000000000000000000000000000000000000000000602082015250565b6000613215602b836129ec565b9150613220826131b9565b604082019050919050565b6000602082019050818103600083015261324481613208565b9050919050565b7f416363657373436f6e74726f6c3a2063616e206f6e6c792072656e6f756e636560008201527f20726f6c657320666f722073656c660000000000000000000000000000000000602082015250565b60006132a7602f836129ec565b91506132b28261324b565b604082019050919050565b600060208201905081810360008301526132d68161329a565b9050919050565b7f44414f4e46543a206d75737420686176652061646d696e20726f6c6520746f2060008201527f756e706175736500000000000000000000000000000000000000000000000000602082015250565b60006133396027836129ec565b9150613344826132dd565b604082019050919050565b600060208201905081810360008301526133688161332c565b9050919050565b7f44414f4e46543a206d7573742068617665206d696e74657220726f6c6520746f60008201527f206d696e74000000000000000000000000000000000000000000000000000000602082015250565b60006133cb6025836129ec565b91506133d68261336f565b604082019050919050565b600060208201905081810360008301526133fa816133be565b9050919050565b7f455243373231456e756d657261626c653a20676c6f62616c20696e646578206f60008201527f7574206f6620626f756e64730000000000000000000000000000000000000000602082015250565b600061345d602c836129ec565b915061346882613401565b604082019050919050565b6000602082019050818103600083015261348c81613450565b9050919050565b7f4e487b7100000000000000000000000000000000000000000000000000000000600052603260045260246000fd5b7f4552433732313a20696e76616c696420746f6b656e2049440000000000000000600082015250565b60006134f86018836129ec565b9150613503826134c2565b602082019050919050565b60006020820190508181036000830152613527816134eb565b9050919050565b7f4552433732313a2061646472657373207a65726f206973206e6f74206120766160008201527f6c6964206f776e65720000000000000000000000000000000000000000000000602082015250565b600061358a6029836129ec565b91506135958261352e565b604082019050919050565b600060208201905081810360008301526135b98161357d565b9050919050565b7f44414f4e46543a206d75737420686176652061646d696e20726f6c6520746f2060008201527f7061757365000000000000000000000000000000000000000000000000000000602082015250565b600061361c6025836129ec565b9150613627826135c0565b604082019050919050565b6000602082019050818103600083015261364b8161360f565b9050919050565b600081905092915050565b6000613668826129e1565b6136728185613652565b93506136828185602086016129fd565b80840191505092915050565b600061369a828561365d565b91506136a6828461365d565b91508190509392505050565b7f44414f4e46543a206d75737420686176652061646d696e20726f6c6520746f2060008201527f7365747570206d696e7465720000000000000000000000000000000000000000602082015250565b600061370e602c836129ec565b9150613719826136b2565b604082019050919050565b6000602082019050818103600083015261373d81613701565b9050919050565b7f4552433732313a207472616e736665722066726f6d20696e636f72726563742060008201527f6f776e6572000000000000000000000000000000000000000000000000000000602082015250565b60006137a06025836129ec565b91506137ab82613744565b604082019050919050565b600060208201905081810360008301526137cf81613793565b9050919050565b7f4552433732313a207472616e7366657220746f20746865207a65726f2061646460008201527f7265737300000000000000000000000000000000000000000000000000000000602082015250565b60006138326024836129ec565b915061383d826137d6565b604082019050919050565b6000602082019050818103600083015261386181613825565b9050919050565b7f4e487b7100000000000000000000000000000000000000000000000000000000600052601160045260246000fd5b60006138a282612a9c565b91506138ad83612a9c565b9250828210156138c0576138bf613868565b5b828203905092915050565b60006138d682612a9c565b91506138e183612a9c565b9250827fffffffffffffffffffffffffffffffffffffffffffffffffffffffffffffffff0382111561391657613915613868565b5b828201905092915050565b7f4552433732313a20617070726f766520746f2063616c6c657200000000000000600082015250565b60006139576019836129ec565b915061396282613921565b602082019050919050565b600060208201905081810360008301526139868161394a565b9050919050565b7f4552433732313a207472616e7366657220746f206e6f6e20455243373231526560008201527f63656976657220696d706c656d656e7465720000000000000000000000000000602082015250565b60006139e96032836129ec565b91506139f48261398d565b604082019050919050565b60006020820190508181036000830152613a18816139dc565b9050919050565b6000613a2a82612a9c565b91507fffffffffffffffffffffffffffffffffffffffffffffffffffffffffffffffff821415613a5d57613a5c613868565b5b600182019050919050565b7f4e487b7100000000000000000000000000000000000000000000000000000000600052601260045260246000fd5b6000613aa282612a9c565b9150613aad83612a9c565b925082613abd57613abc613a68565b5b828204905092915050565b6000613ad382612a9c565b9150613ade83612a9c565b925082613aee57613aed613a68565b5b828206905092915050565b7f416363657373436f6e74726f6c3a206163636f756e7420000000000000000000600082015250565b6000613b2f601783613652565b9150613b3a82613af9565b601782019050919050565b7f206973206d697373696e6720726f6c6520000000000000000000000000000000600082015250565b6000613b7b601183613652565b9150613b8682613b45565b601182019050919050565b6000613b9c82613b22565b9150613ba8828561365d565b9150613bb382613b6e565b9150613bbf828461365d565b91508190509392505050565b7f5061757361626c653a206e6f7420706175736564000000000000000000000000600082015250565b6000613c016014836129ec565b9150613c0c82613bcb565b602082019050919050565b60006020820190508181036000830152613c3081613bf4565b9050919050565b7f5061757361626c653a2070617573656400000000000000000000000000000000600082015250565b6000613c6d6010836129ec565b9150613c7882613c37565b602082019050919050565b60006020820190508181036000830152613c9c81613c60565b9050919050565b600081519050919050565b600082825260208201905092915050565b6000613cca82613ca3565b613cd48185613cae565b9350613ce48185602086016129fd565b613ced81612a30565b840191505092915050565b6000608082019050613d0d6000830187612b31565b613d1a6020830186612b31565b613d276040830185612bc7565b8181036060830152613d398184613cbf565b905095945050505050565b600081519050613d5381612952565b92915050565b600060208284031215613d6f57613d6e61291c565b5b6000613d7d84828501613d44565b91505092915050565b6000613d9182612a9c565b9150613d9c83612a9c565b9250817fffffffffffffffffffffffffffffffffffffffffffffffffffffffffffffffff0483118215151615613dd557613dd4613868565b5b828202905092915050565b6000613deb82612a9c565b91506000821415613dff57613dfe613868565b5b600182039050919050565b7f537472696e67733a20686578206c656e67746820696e73756666696369656e74600082015250565b6000613e406020836129ec565b9150613e4b82613e0a565b602082019050919050565b60006020820190508181036000830152613e6f81613e33565b9050919050565b7f4552433732313a206d696e7420746f20746865207a65726f2061646472657373600082015250565b6000613eac6020836129ec565b9150613eb782613e76565b602082019050919050565b60006020820190508181036000830152613edb81613e9f565b9050919050565b7f4552433732313a20746f6b656e20616c7265616479206d696e74656400000000600082015250565b6000613f18601c836129ec565b9150613f2382613ee2565b602082019050919050565b60006020820190508181036000830152613f4781613f0b565b9050919050565b7f4e487b7100000000000000000000000000000000000000000000000000000000600052603160045260246000fdfea2646970667358221220dcff5d3821e007d236e9df290848571d280961755b1e885a395889c36f385b9264736f6c63430008090033",
  "linkReferences": {},
  "deployedLinkReferences": {}
}