{
  "_format": "hh-sol-artifact-1",
  "contractName": "DAOTreasury",
  "sourceName": "contracts/DAOTreasury.sol",
  "abi": [
    {
      "inputs": [],
      "stateMutability": "nonpayable",
      "type": "constructor"
    },
    {
      "anonymous": false,
      "inputs": [
        {
          "indexed": false,
          "internalType": "int256",
          "name": "pollId",
          "type": "int256"
        },
        {
          "indexed": true,
          "internalType": "address",
          "name": "candidate",
          "type": "address"
        }
      ],
      "name": "Candidated",
      "type": "event"
    },
    {
      "anonymous": false,
      "inputs": [
        {
          "indexed": false,
          "internalType": "int256",
          "name": "pollId",
          "type": "int256"
        }
      ],
      "name": "CreatePoll",
      "type": "event"
    },
    {
      "anonymous": false,
      "inputs": [
        {
          "indexed": true,
          "internalType": "address",
          "name": "sender",
          "type": "address"
        },
        {
          "indexed": false,
          "internalType": "uint256",
          "name": "amount",
          "type": "uint256"
        }
      ],
      "name": "Deposited",
      "type": "event"
    },
    {
      "anonymous": false,
      "inputs": [
        {
          "indexed": true,
          "internalType": "address",
          "name": "previousOwner",
          "type": "address"
        },
        {
          "indexed": true,
          "internalType": "address",
          "name": "newOwner",
          "type": "address"
        }
      ],
      "name": "OwnershipTransferred",
      "type": "event"
    },
    {
      "anonymous": false,
      "inputs": [
        {
          "indexed": false,
          "internalType": "address",
          "name": "account",
          "type": "address"
        }
      ],
      "name": "Paused",
      "type": "event"
    },
    {
      "anonymous": false,
      "inputs": [
        {
          "indexed": false,
          "internalType": "uint256",
          "name": "amount",
          "type": "uint256"
        },
        {
          "indexed": false,
          "internalType": "uint256",
          "name": "payedAmount",
          "type": "uint256"
        }
      ],
      "name": "RequestForTokenToEth",
      "type": "event"
    },
    {
      "anonymous": false,
      "inputs": [
        {
          "indexed": false,
          "internalType": "int256",
          "name": "pollId",
          "type": "int256"
        }
      ],
      "name": "SettlePoll",
      "type": "event"
    },
    {
      "anonymous": false,
      "inputs": [
        {
          "indexed": false,
          "internalType": "address",
          "name": "account",
          "type": "address"
        }
      ],
      "name": "Unpaused",
      "type": "event"
    },
    {
      "anonymous": false,
      "inputs": [
        {
          "indexed": false,
          "internalType": "int256",
          "name": "pollId",
          "type": "int256"
        },
        {
          "indexed": true,
          "internalType": "address",
          "name": "voter",
          "type": "address"
        }
      ],
      "name": "Voted",
      "type": "event"
    },
    {
      "anonymous": false,
      "inputs": [
        {
          "indexed": false,
          "internalType": "int256",
          "name": "pollId",
          "type": "int256"
        },
        {
          "indexed": false,
          "internalType": "bool",
          "name": "enabled",
          "type": "bool"
        }
      ],
      "name": "VotingEnabled",
      "type": "event"
    },
    {
      "inputs": [],
      "name": "deposit",
      "outputs": [
        {
          "internalType": "bool",
          "name": "",
          "type": "bool"
        }
      ],
      "stateMutability": "payable",
      "type": "function"
    },
    {
      "inputs": [],
      "name": "getBalance",
      "outputs": [
        {
          "internalType": "uint256",
          "name": "",
          "type": "uint256"
        }
      ],
      "stateMutability": "view",
      "type": "function"
    },
    {
      "inputs": [],
      "name": "getCurrentTokenRate",
      "outputs": [
        {
          "internalType": "uint256",
          "name": "",
          "type": "uint256"
        }
      ],
      "stateMutability": "view",
      "type": "function"
    },
    {
      "inputs": [],
      "name": "owner",
      "outputs": [
        {
          "internalType": "address",
          "name": "",
          "type": "address"
        }
      ],
      "stateMutability": "view",
      "type": "function"
    },
    {
      "inputs": [],
      "name": "paused",
      "outputs": [
        {
          "internalType": "bool",
          "name": "",
          "type": "bool"
        }
      ],
      "stateMutability": "view",
      "type": "function"
    },
    {
      "inputs": [],
      "name": "renounceOwnership",
      "outputs": [],
      "stateMutability": "nonpayable",
      "type": "function"
    },
    {
      "inputs": [
        {
          "internalType": "uint256",
          "name": "_amount",
          "type": "uint256"
        }
      ],
      "name": "requestForTokenToEth",
      "outputs": [
        {
          "internalType": "uint256",
          "name": "",
          "type": "uint256"
        }
      ],
      "stateMutability": "nonpayable",
      "type": "function"
    },
    {
      "inputs": [
        {
          "internalType": "address",
          "name": "_address",
          "type": "address"
        }
      ],
      "name": "setDAOTokenAddress",
      "outputs": [],
      "stateMutability": "nonpayable",
      "type": "function"
    },
    {
      "inputs": [
        {
          "internalType": "address",
          "name": "newOwner",
          "type": "address"
        }
      ],
      "name": "transferOwnership",
      "outputs": [],
      "stateMutability": "nonpayable",
      "type": "function"
    },
    {
      "inputs": [],
      "name": "withdraw",
      "outputs": [
        {
          "internalType": "bool",
          "name": "",
          "type": "bool"
        }
      ],
      "stateMutability": "nonpayable",
      "type": "function"
    }
  ],
  "bytecode": "0x608060405234801561001057600080fd5b5061002d61002261005360201b60201c565b61005b60201b60201c565b60008060146101000a81548160ff0219169083151502179055506001808190555061011f565b600033905090565b60008060009054906101000a900473ffffffffffffffffffffffffffffffffffffffff169050816000806101000a81548173ffffffffffffffffffffffffffffffffffffffff021916908373ffffffffffffffffffffffffffffffffffffffff1602179055508173ffffffffffffffffffffffffffffffffffffffff168173ffffffffffffffffffffffffffffffffffffffff167f8be0079c531659141344cd1fd0a4f28419497f9722a3daafe3b4186f6b6457e060405160405180910390a35050565b61146e8061012e6000396000f3fe6080604052600436106100915760003560e01c80638da5cb5b116100595780638da5cb5b14610159578063a2fa6fc514610184578063d0e30db0146101ad578063d36d38fb146101cb578063f2fde38b1461020857610091565b806312065fe0146100965780633ccfd60b146100c15780634e961921146100ec5780635c975abb14610117578063715018a614610142575b600080fd5b3480156100a257600080fd5b506100ab610231565b6040516100b89190610bb3565b60405180910390f35b3480156100cd57600080fd5b506100d6610239565b6040516100e39190610be9565b60405180910390f35b3480156100f857600080fd5b506101016102d1565b60405161010e9190610bb3565b60405180910390f35b34801561012357600080fd5b5061012c61039d565b6040516101399190610be9565b60405180910390f35b34801561014e57600080fd5b506101576103b3565b005b34801561016557600080fd5b5061016e6103c7565b60405161017b9190610c45565b60405180910390f35b34801561019057600080fd5b506101ab60048036038101906101a69190610c91565b6103f0565b005b6101b561043c565b6040516101c29190610be9565b60405180910390f35b3480156101d757600080fd5b506101f260048036038101906101ed9190610cea565b61049b565b6040516101ff9190610bb3565b60405180910390f35b34801561021457600080fd5b5061022f600480360381019061022a9190610c91565b610790565b005b600047905090565b6000610243610814565b6102ca3073ffffffffffffffffffffffffffffffffffffffff16638da5cb5b6040518163ffffffff1660e01b815260040160206040518083038186803b15801561028c57600080fd5b505afa1580156102a0573d6000803e3d6000fd5b505050506040513d601f19601f820116820180604052508101906102c49190610d2c565b47610892565b6001905090565b600080600260009054906101000a900473ffffffffffffffffffffffffffffffffffffffff16905060008173ffffffffffffffffffffffffffffffffffffffff166318160ddd6040518163ffffffff1660e01b815260040160206040518083038186803b15801561034157600080fd5b505afa158015610355573d6000803e3d6000fd5b505050506040513d601f19601f820116820180604052508101906103799190610d6e565b9050610396610390610389610231565b6001610986565b826109c3565b9250505090565b60008060149054906101000a900460ff16905090565b6103bb610814565b6103c56000610a84565b565b60008060009054906101000a900473ffffffffffffffffffffffffffffffffffffffff16905090565b6103f8610814565b80600260006101000a81548173ffffffffffffffffffffffffffffffffffffffff021916908373ffffffffffffffffffffffffffffffffffffffff16021790555050565b6000610446610b48565b3373ffffffffffffffffffffffffffffffffffffffff167f2da466a7b24304f47e87fa2e1e5a81b9831ce54fec19055ce277ca2f39ba42c43460405161048c9190610bb3565b60405180910390a26001905090565b60006104a5610b48565b600260015414156104eb576040517f08c379a00000000000000000000000000000000000000000000000000000000081526004016104e290610df8565b60405180910390fd5b600260018190555060008211610536576040517f08c379a000000000000000000000000000000000000000000000000000000000815260040161052d90610e64565b60405180910390fd5b6000600260009054906101000a900473ffffffffffffffffffffffffffffffffffffffff16905060008173ffffffffffffffffffffffffffffffffffffffff166370a08231336040518263ffffffff1660e01b81526004016105989190610c45565b60206040518083038186803b1580156105b057600080fd5b505afa1580156105c4573d6000803e3d6000fd5b505050506040513d601f19601f820116820180604052508101906105e89190610d6e565b90508381101561062d576040517f08c379a000000000000000000000000000000000000000000000000000000000815260040161062490610ed0565b60405180910390fd5b60008273ffffffffffffffffffffffffffffffffffffffff166318160ddd6040518163ffffffff1660e01b815260040160206040518083038186803b15801561067557600080fd5b505afa158015610689573d6000803e3d6000fd5b505050506040513d601f19601f820116820180604052508101906106ad9190610d6e565b905060006106cb6106c56106bf610231565b88610986565b836109c3565b90506106d73382610892565b8373ffffffffffffffffffffffffffffffffffffffff16639dc29fac33886040518363ffffffff1660e01b8152600401610712929190610ef0565b600060405180830381600087803b15801561072c57600080fd5b505af1158015610740573d6000803e3d6000fd5b505050507f541f99cac4351aaccefabf1ef5abf2c3b7f890d30534a73487c2b816904950128682604051610775929190610f19565b60405180910390a18094505050505060018081905550919050565b610798610814565b600073ffffffffffffffffffffffffffffffffffffffff168173ffffffffffffffffffffffffffffffffffffffff161415610808576040517f08c379a00000000000000000000000000000000000000000000000000000000081526004016107ff90610fb4565b60405180910390fd5b61081181610a84565b50565b61081c610b92565b73ffffffffffffffffffffffffffffffffffffffff1661083a6103c7565b73ffffffffffffffffffffffffffffffffffffffff1614610890576040517f08c379a000000000000000000000000000000000000000000000000000000000815260040161088790611020565b60405180910390fd5b565b804710156108d5576040517f08c379a00000000000000000000000000000000000000000000000000000000081526004016108cc9061108c565b60405180910390fd5b60008273ffffffffffffffffffffffffffffffffffffffff16826040516108fb906110dd565b60006040518083038185875af1925050503d8060008114610938576040519150601f19603f3d011682016040523d82523d6000602084013e61093d565b606091505b5050905080610981576040517f08c379a000000000000000000000000000000000000000000000000000000000815260040161097890611164565b60405180910390fd5b505050565b600080828461099591906111b3565b905060008414806109b057508284826109ae919061123c565b145b6109b957600080fd5b8091505092915050565b6000808211610a07576040517f08c379a00000000000000000000000000000000000000000000000000000000081526004016109fe906112b9565b60405180910390fd5b60008284610a15919061123c565b90508284610a2391906112d9565b8184610a2f91906111b3565b610a39919061130a565b8414610a7a576040517f08c379a0000000000000000000000000000000000000000000000000000000008152600401610a71906113ac565b60405180910390fd5b8091505092915050565b60008060009054906101000a900473ffffffffffffffffffffffffffffffffffffffff169050816000806101000a81548173ffffffffffffffffffffffffffffffffffffffff021916908373ffffffffffffffffffffffffffffffffffffffff1602179055508173ffffffffffffffffffffffffffffffffffffffff168173ffffffffffffffffffffffffffffffffffffffff167f8be0079c531659141344cd1fd0a4f28419497f9722a3daafe3b4186f6b6457e060405160405180910390a35050565b610b5061039d565b15610b90576040517f08c379a0000000000000000000000000000000000000000000000000000000008152600401610b8790611418565b60405180910390fd5b565b600033905090565b6000819050919050565b610bad81610b9a565b82525050565b6000602082019050610bc86000830184610ba4565b92915050565b60008115159050919050565b610be381610bce565b82525050565b6000602082019050610bfe6000830184610bda565b92915050565b600073ffffffffffffffffffffffffffffffffffffffff82169050919050565b6000610c2f82610c04565b9050919050565b610c3f81610c24565b82525050565b6000602082019050610c5a6000830184610c36565b92915050565b600080fd5b610c6e81610c24565b8114610c7957600080fd5b50565b600081359050610c8b81610c65565b92915050565b600060208284031215610ca757610ca6610c60565b5b6000610cb584828501610c7c565b91505092915050565b610cc781610b9a565b8114610cd257600080fd5b50565b600081359050610ce481610cbe565b92915050565b600060208284031215610d0057610cff610c60565b5b6000610d0e84828501610cd5565b91505092915050565b600081519050610d2681610c65565b92915050565b600060208284031215610d4257610d41610c60565b5b6000610d5084828501610d17565b91505092915050565b600081519050610d6881610cbe565b92915050565b600060208284031215610d8457610d83610c60565b5b6000610d9284828501610d59565b91505092915050565b600082825260208201905092915050565b7f5265656e7472616e637947756172643a207265656e7472616e742063616c6c00600082015250565b6000610de2601f83610d9b565b9150610ded82610dac565b602082019050919050565b60006020820190508181036000830152610e1181610dd5565b9050919050565b7f616d6f756e74206d7573742062652067726561746572207468616e2030000000600082015250565b6000610e4e601d83610d9b565b9150610e5982610e18565b602082019050919050565b60006020820190508181036000830152610e7d81610e41565b9050919050565b7f746f6b656e2062616c616e6365206973206e6f7420656e6f7567680000000000600082015250565b6000610eba601b83610d9b565b9150610ec582610e84565b602082019050919050565b60006020820190508181036000830152610ee981610ead565b9050919050565b6000604082019050610f056000830185610c36565b610f126020830184610ba4565b9392505050565b6000604082019050610f2e6000830185610ba4565b610f3b6020830184610ba4565b9392505050565b7f4f776e61626c653a206e6577206f776e657220697320746865207a65726f206160008201527f6464726573730000000000000000000000000000000000000000000000000000602082015250565b6000610f9e602683610d9b565b9150610fa982610f42565b604082019050919050565b60006020820190508181036000830152610fcd81610f91565b9050919050565b7f4f776e61626c653a2063616c6c6572206973206e6f7420746865206f776e6572600082015250565b600061100a602083610d9b565b915061101582610fd4565b602082019050919050565b6000602082019050818103600083015261103981610ffd565b9050919050565b7f416464726573733a20696e73756666696369656e742062616c616e6365000000600082015250565b6000611076601d83610d9b565b915061108182611040565b602082019050919050565b600060208201905081810360008301526110a581611069565b9050919050565b600081905092915050565b50565b60006110c76000836110ac565b91506110d2826110b7565b600082019050919050565b60006110e8826110ba565b9150819050919050565b7f416464726573733a20756e61626c6520746f2073656e642076616c75652c207260008201527f6563697069656e74206d61792068617665207265766572746564000000000000602082015250565b600061114e603a83610d9b565b9150611159826110f2565b604082019050919050565b6000602082019050818103600083015261117d81611141565b9050919050565b7f4e487b7100000000000000000000000000000000000000000000000000000000600052601160045260246000fd5b60006111be82610b9a565b91506111c983610b9a565b9250817fffffffffffffffffffffffffffffffffffffffffffffffffffffffffffffffff048311821515161561120257611201611184565b5b828202905092915050565b7f4e487b7100000000000000000000000000000000000000000000000000000000600052601260045260246000fd5b600061124782610b9a565b915061125283610b9a565b9250826112625761126161120d565b5b828204905092915050565b7f646976696465206279207a65726f000000000000000000000000000000000000600082015250565b60006112a3600e83610d9b565b91506112ae8261126d565b602082019050919050565b600060208201905081810360008301526112d281611296565b9050919050565b60006112e482610b9a565b91506112ef83610b9a565b9250826112ff576112fe61120d565b5b828206905092915050565b600061131582610b9a565b915061132083610b9a565b9250827fffffffffffffffffffffffffffffffffffffffffffffffffffffffffffffffff0382111561135557611354611184565b5b828201905092915050565b7f6f766572666c6f77000000000000000000000000000000000000000000000000600082015250565b6000611396600883610d9b565b91506113a182611360565b602082019050919050565b600060208201905081810360008301526113c581611389565b9050919050565b7f5061757361626c653a2070617573656400000000000000000000000000000000600082015250565b6000611402601083610d9b565b915061140d826113cc565b602082019050919050565b60006020820190508181036000830152611431816113f5565b905091905056fea2646970667358221220d734a2a0f84505952d760d7be507104e5719d3ecd1a6932a479b0d642963894164736f6c63430008090033",
  "linkReferences": {},
  "deployedLinkReferences": {}
}