{
  "_format": "hh-sol-artifact-1",
  "contractName": "DAOToken",
  "sourceName": "contracts/DAOToken.sol",
  "abi": [
    {
      "inputs": [
        {
          "internalType": "string",
          "name": "_tokenName",
          "type": "string"
        },
        {
          "internalType": "string",
          "name": "_tokenSymbol",
          "type": "string"
        },
        {
          "internalType": "uint256",
          "name": "_tokenInitialSupply",
          "type": "uint256"
        }
      ],
      "stateMutability": "nonpayable",
      "type": "constructor"
    },
    {
      "anonymous": false,
      "inputs": [
        {
          "indexed": true,
          "internalType": "address",
          "name": "owner",
          "type": "address"
        },
        {
          "indexed": true,
          "internalType": "address",
          "name": "spender",
          "type": "address"
        },
        {
          "indexed": false,
          "internalType": "uint256",
          "name": "value",
          "type": "uint256"
        }
      ],
      "name": "Approval",
      "type": "event"
    },
    {
      "anonymous": false,
      "inputs": [
        {
          "indexed": false,
          "internalType": "address",
          "name": "account",
          "type": "address"
        }
      ],
      "name": "Paused",
      "type": "event"
    },
    {
      "anonymous": false,
      "inputs": [
        {
          "indexed": true,
          "internalType": "bytes32",
          "name": "role",
          "type": "bytes32"
        },
        {
          "indexed": true,
          "internalType": "bytes32",
          "name": "previousAdminRole",
          "type": "bytes32"
        },
        {
          "indexed": true,
          "internalType": "bytes32",
          "name": "newAdminRole",
          "type": "bytes32"
        }
      ],
      "name": "RoleAdminChanged",
      "type": "event"
    },
    {
      "anonymous": false,
      "inputs": [
        {
          "indexed": true,
          "internalType": "bytes32",
          "name": "role",
          "type": "bytes32"
        },
        {
          "indexed": true,
          "internalType": "address",
          "name": "account",
          "type": "address"
        },
        {
          "indexed": true,
          "internalType": "address",
          "name": "sender",
          "type": "address"
        }
      ],
      "name": "RoleGranted",
      "type": "event"
    },
    {
      "anonymous": false,
      "inputs": [
        {
          "indexed": true,
          "internalType": "bytes32",
          "name": "role",
          "type": "bytes32"
        },
        {
          "indexed": true,
          "internalType": "address",
          "name": "account",
          "type": "address"
        },
        {
          "indexed": true,
          "internalType": "address",
          "name": "sender",
          "type": "address"
        }
      ],
      "name": "RoleRevoked",
      "type": "event"
    },
    {
      "anonymous": false,
      "inputs": [
        {
          "indexed": true,
          "internalType": "address",
          "name": "from",
          "type": "address"
        },
        {
          "indexed": true,
          "internalType": "address",
          "name": "to",
          "type": "address"
        },
        {
          "indexed": false,
          "internalType": "uint256",
          "name": "value",
          "type": "uint256"
        }
      ],
      "name": "Transfer",
      "type": "event"
    },
    {
      "anonymous": false,
      "inputs": [
        {
          "indexed": false,
          "internalType": "address",
          "name": "account",
          "type": "address"
        }
      ],
      "name": "Unpaused",
      "type": "event"
    },
    {
      "inputs": [],
      "name": "BURNER_ROLE",
      "outputs": [
        {
          "internalType": "bytes32",
          "name": "",
          "type": "bytes32"
        }
      ],
      "stateMutability": "view",
      "type": "function"
    },
    {
      "inputs": [],
      "name": "DEFAULT_ADMIN_ROLE",
      "outputs": [
        {
          "internalType": "bytes32",
          "name": "",
          "type": "bytes32"
        }
      ],
      "stateMutability": "view",
      "type": "function"
    },
    {
      "inputs": [],
      "name": "MINTER_ROLE",
      "outputs": [
        {
          "internalType": "bytes32",
          "name": "",
          "type": "bytes32"
        }
      ],
      "stateMutability": "view",
      "type": "function"
    },
    {
      "inputs": [],
      "name": "PAUSER_ROLE",
      "outputs": [
        {
          "internalType": "bytes32",
          "name": "",
          "type": "bytes32"
        }
      ],
      "stateMutability": "view",
      "type": "function"
    },
    {
      "inputs": [
        {
          "internalType": "address",
          "name": "owner",
          "type": "address"
        },
        {
          "internalType": "address",
          "name": "spender",
          "type": "address"
        }
      ],
      "name": "allowance",
      "outputs": [
        {
          "internalType": "uint256",
          "name": "",
          "type": "uint256"
        }
      ],
      "stateMutability": "view",
      "type": "function"
    },
    {
      "inputs": [
        {
          "internalType": "address",
          "name": "spender",
          "type": "address"
        },
        {
          "internalType": "uint256",
          "name": "amount",
          "type": "uint256"
        }
      ],
      "name": "approve",
      "outputs": [
        {
          "internalType": "bool",
          "name": "",
          "type": "bool"
        }
      ],
      "stateMutability": "nonpayable",
      "type": "function"
    },
    {
      "inputs": [
        {
          "internalType": "address",
          "name": "account",
          "type": "address"
        }
      ],
      "name": "balanceOf",
      "outputs": [
        {
          "internalType": "uint256",
          "name": "",
          "type": "uint256"
        }
      ],
      "stateMutability": "view",
      "type": "function"
    },
    {
      "inputs": [
        {
          "internalType": "uint256",
          "name": "amount",
          "type": "uint256"
        }
      ],
      "name": "burn",
      "outputs": [],
      "stateMutability": "nonpayable",
      "type": "function"
    },
    {
      "inputs": [
        {
          "internalType": "address",
          "name": "holder",
          "type": "address"
        },
        {
          "internalType": "uint256",
          "name": "_amount",
          "type": "uint256"
        }
      ],
      "name": "burn",
      "outputs": [],
      "stateMutability": "nonpayable",
      "type": "function"
    },
    {
      "inputs": [
        {
          "internalType": "address",
          "name": "account",
          "type": "address"
        },
        {
          "internalType": "uint256",
          "name": "amount",
          "type": "uint256"
        }
      ],
      "name": "burnFrom",
      "outputs": [],
      "stateMutability": "nonpayable",
      "type": "function"
    },
    {
      "inputs": [],
      "name": "decimals",
      "outputs": [
        {
          "internalType": "uint8",
          "name": "",
          "type": "uint8"
        }
      ],
      "stateMutability": "view",
      "type": "function"
    },
    {
      "inputs": [
        {
          "internalType": "address",
          "name": "spender",
          "type": "address"
        },
        {
          "internalType": "uint256",
          "name": "subtractedValue",
          "type": "uint256"
        }
      ],
      "name": "decreaseAllowance",
      "outputs": [
        {
          "internalType": "bool",
          "name": "",
          "type": "bool"
        }
      ],
      "stateMutability": "nonpayable",
      "type": "function"
    },
    {
      "inputs": [
        {
          "internalType": "bytes32",
          "name": "role",
          "type": "bytes32"
        }
      ],
      "name": "getRoleAdmin",
      "outputs": [
        {
          "internalType": "bytes32",
          "name": "",
          "type": "bytes32"
        }
      ],
      "stateMutability": "view",
      "type": "function"
    },
    {
      "inputs": [
        {
          "internalType": "bytes32",
          "name": "role",
          "type": "bytes32"
        },
        {
          "internalType": "uint256",
          "name": "index",
          "type": "uint256"
        }
      ],
      "name": "getRoleMember",
      "outputs": [
        {
          "internalType": "address",
          "name": "",
          "type": "address"
        }
      ],
      "stateMutability": "view",
      "type": "function"
    },
    {
      "inputs": [
        {
          "internalType": "bytes32",
          "name": "role",
          "type": "bytes32"
        }
      ],
      "name": "getRoleMemberCount",
      "outputs": [
        {
          "internalType": "uint256",
          "name": "",
          "type": "uint256"
        }
      ],
      "stateMutability": "view",
      "type": "function"
    },
    {
      "inputs": [
        {
          "internalType": "bytes32",
          "name": "role",
          "type": "bytes32"
        },
        {
          "internalType": "address",
          "name": "account",
          "type": "address"
        }
      ],
      "name": "grantRole",
      "outputs": [],
      "stateMutability": "nonpayable",
      "type": "function"
    },
    {
      "inputs": [
        {
          "internalType": "bytes32",
          "name": "role",
          "type": "bytes32"
        },
        {
          "internalType": "address",
          "name": "account",
          "type": "address"
        }
      ],
      "name": "hasRole",
      "outputs": [
        {
          "internalType": "bool",
          "name": "",
          "type": "bool"
        }
      ],
      "stateMutability": "view",
      "type": "function"
    },
    {
      "inputs": [
        {
          "internalType": "address",
          "name": "spender",
          "type": "address"
        },
        {
          "internalType": "uint256",
          "name": "addedValue",
          "type": "uint256"
        }
      ],
      "name": "increaseAllowance",
      "outputs": [
        {
          "internalType": "bool",
          "name": "",
          "type": "bool"
        }
      ],
      "stateMutability": "nonpayable",
      "type": "function"
    },
    {
      "inputs": [
        {
          "internalType": "address",
          "name": "to",
          "type": "address"
        },
        {
          "internalType": "uint256",
          "name": "amount",
          "type": "uint256"
        }
      ],
      "name": "mint",
      "outputs": [],
      "stateMutability": "nonpayable",
      "type": "function"
    },
    {
      "inputs": [],
      "name": "name",
      "outputs": [
        {
          "internalType": "string",
          "name": "",
          "type": "string"
        }
      ],
      "stateMutability": "view",
      "type": "function"
    },
    {
      "inputs": [],
      "name": "pause",
      "outputs": [],
      "stateMutability": "nonpayable",
      "type": "function"
    },
    {
      "inputs": [],
      "name": "paused",
      "outputs": [
        {
          "internalType": "bool",
          "name": "",
          "type": "bool"
        }
      ],
      "stateMutability": "view",
      "type": "function"
    },
    {
      "inputs": [
        {
          "internalType": "bytes32",
          "name": "role",
          "type": "bytes32"
        },
        {
          "internalType": "address",
          "name": "account",
          "type": "address"
        }
      ],
      "name": "renounceRole",
      "outputs": [],
      "stateMutability": "nonpayable",
      "type": "function"
    },
    {
      "inputs": [
        {
          "internalType": "address",
          "name": "_burner",
          "type": "address"
        }
      ],
      "name": "revokeBurnerRole",
      "outputs": [],
      "stateMutability": "nonpayable",
      "type": "function"
    },
    {
      "inputs": [
        {
          "internalType": "address",
          "name": "_minter",
          "type": "address"
        }
      ],
      "name": "revokeMinterRole",
      "outputs": [],
      "stateMutability": "nonpayable",
      "type": "function"
    },
    {
      "inputs": [
        {
          "internalType": "bytes32",
          "name": "role",
          "type": "bytes32"
        },
        {
          "internalType": "address",
          "name": "account",
          "type": "address"
        }
      ],
      "name": "revokeRole",
      "outputs": [],
      "stateMutability": "nonpayable",
      "type": "function"
    },
    {
      "inputs": [
        {
          "internalType": "address",
          "name": "_burner",
          "type": "address"
        }
      ],
      "name": "setupBurnerRole",
      "outputs": [],
      "stateMutability": "nonpayable",
      "type": "function"
    },
    {
      "inputs": [
        {
          "internalType": "address",
          "name": "_minter",
          "type": "address"
        }
      ],
      "name": "setupMinterRole",
      "outputs": [],
      "stateMutability": "nonpayable",
      "type": "function"
    },
    {
      "inputs": [
        {
          "internalType": "bytes4",
          "name": "interfaceId",
          "type": "bytes4"
        }
      ],
      "name": "supportsInterface",
      "outputs": [
        {
          "internalType": "bool",
          "name": "",
          "type": "bool"
        }
      ],
      "stateMutability": "view",
      "type": "function"
    },
    {
      "inputs": [],
      "name": "symbol",
      "outputs": [
        {
          "internalType": "string",
          "name": "",
          "type": "string"
        }
      ],
      "stateMutability": "view",
      "type": "function"
    },
    {
      "inputs": [],
      "name": "totalSupply",
      "outputs": [
        {
          "internalType": "uint256",
          "name": "",
          "type": "uint256"
        }
      ],
      "stateMutability": "view",
      "type": "function"
    },
    {
      "inputs": [
        {
          "internalType": "address",
          "name": "to",
          "type": "address"
        },
        {
          "internalType": "uint256",
          "name": "amount",
          "type": "uint256"
        }
      ],
      "name": "transfer",
      "outputs": [
        {
          "internalType": "bool",
          "name": "",
          "type": "bool"
        }
      ],
      "stateMutability": "nonpayable",
      "type": "function"
    },
    {
      "inputs": [
        {
          "internalType": "address",
          "name": "from",
          "type": "address"
        },
        {
          "internalType": "address",
          "name": "to",
          "type": "address"
        },
        {
          "internalType": "uint256",
          "name": "amount",
          "type": "uint256"
        }
      ],
      "name": "transferFrom",
      "outputs": [
        {
          "internalType": "bool",
          "name": "",
          "type": "bool"
        }
      ],
      "stateMutability": "nonpayable",
      "type": "function"
    },
    {
      "inputs": [],
      "name": "unpause",
      "outputs": [],
      "stateMutability": "nonpayable",
      "type": "function"
    }
  ],
  "bytecode": "0x60806040523480156200001157600080fd5b506040516200444738038062004447833981810160405281019062000037919062000893565b828281818160059080519060200190620000539291906200060b565b5080600690805190602001906200006c9291906200060b565b5050506000600760006101000a81548160ff021916908315150217905550620000ae6000801b620000a26200014d60201b60201c565b6200015560201b60201c565b620000ef7f9f2df0fed2c77648de5860a4cc508cd0818c85b8b8a1ab4ceeef8d981c8956a6620000e36200014d60201b60201c565b6200015560201b60201c565b620001307f65d7a28e3265b37a6474929f336521b332c1681b933f6cb9f3376673440d862a620001246200014d60201b60201c565b6200015560201b60201c565b50506200014433826200016b60201b60201c565b50505062000b67565b600033905090565b620001678282620002e560201b60201c565b5050565b600073ffffffffffffffffffffffffffffffffffffffff168273ffffffffffffffffffffffffffffffffffffffff161415620001de576040517f08c379a0000000000000000000000000000000000000000000000000000000008152600401620001d5906200098e565b60405180910390fd5b620001f2600083836200032d60201b60201c565b8060046000828254620002069190620009df565b9250508190555080600260008473ffffffffffffffffffffffffffffffffffffffff1673ffffffffffffffffffffffffffffffffffffffff16815260200190815260200160002060008282546200025e9190620009df565b925050819055508173ffffffffffffffffffffffffffffffffffffffff16600073ffffffffffffffffffffffffffffffffffffffff167fddf252ad1be2c89b69c2b068fc378daa952ba7f163c4a11628f55a4df523b3ef83604051620002c5919062000a4d565b60405180910390a3620002e1600083836200034a60201b60201c565b5050565b620002fc82826200034f60201b620010711760201c565b6200032881600160008581526020019081526020016000206200044060201b620011511790919060201c565b505050565b620003458383836200047860201b620011811760201c565b505050565b505050565b620003618282620004e860201b60201c565b6200043c57600160008084815260200190815260200160002060000160008373ffffffffffffffffffffffffffffffffffffffff1673ffffffffffffffffffffffffffffffffffffffff16815260200190815260200160002060006101000a81548160ff021916908315150217905550620003e16200014d60201b60201c565b73ffffffffffffffffffffffffffffffffffffffff168173ffffffffffffffffffffffffffffffffffffffff16837f2f8788117e7eff1d82e926ec794901d17c78024a50270940304540a733656f0d60405160405180910390a45b5050565b600062000470836000018373ffffffffffffffffffffffffffffffffffffffff1660001b6200055260201b60201c565b905092915050565b62000490838383620005cc60201b620011d91760201c565b620004a0620005d160201b60201c565b15620004e3576040517f08c379a0000000000000000000000000000000000000000000000000000000008152600401620004da9062000ae0565b60405180910390fd5b505050565b600080600084815260200190815260200160002060000160008373ffffffffffffffffffffffffffffffffffffffff1673ffffffffffffffffffffffffffffffffffffffff16815260200190815260200160002060009054906101000a900460ff16905092915050565b6000620005668383620005e860201b60201c565b620005c1578260000182908060018154018082558091505060019003906000526020600020016000909190919091505582600001805490508360010160008481526020019081526020016000208190555060019050620005c6565b600090505b92915050565b505050565b6000600760009054906101000a900460ff16905090565b600080836001016000848152602001908152602001600020541415905092915050565b828054620006199062000b31565b90600052602060002090601f0160209004810192826200063d576000855562000689565b82601f106200065857805160ff191683800117855562000689565b8280016001018555821562000689579182015b82811115620006885782518255916020019190600101906200066b565b5b5090506200069891906200069c565b5090565b5b80821115620006b75760008160009055506001016200069d565b5090565b6000604051905090565b600080fd5b600080fd5b600080fd5b600080fd5b6000601f19601f8301169050919050565b7f4e487b7100000000000000000000000000000000000000000000000000000000600052604160045260246000fd5b6200072482620006d9565b810181811067ffffffffffffffff82111715620007465762000745620006ea565b5b80604052505050565b60006200075b620006bb565b905062000769828262000719565b919050565b600067ffffffffffffffff8211156200078c576200078b620006ea565b5b6200079782620006d9565b9050602081019050919050565b60005b83811015620007c4578082015181840152602081019050620007a7565b83811115620007d4576000848401525b50505050565b6000620007f1620007eb846200076e565b6200074f565b90508281526020810184848401111562000810576200080f620006d4565b5b6200081d848285620007a4565b509392505050565b600082601f8301126200083d576200083c620006cf565b5b81516200084f848260208601620007da565b91505092915050565b6000819050919050565b6200086d8162000858565b81146200087957600080fd5b50565b6000815190506200088d8162000862565b92915050565b600080600060608486031215620008af57620008ae620006c5565b5b600084015167ffffffffffffffff811115620008d057620008cf620006ca565b5b620008de8682870162000825565b935050602084015167ffffffffffffffff811115620009025762000901620006ca565b5b620009108682870162000825565b925050604062000923868287016200087c565b9150509250925092565b600082825260208201905092915050565b7f45524332303a206d696e7420746f20746865207a65726f206164647265737300600082015250565b600062000976601f836200092d565b915062000983826200093e565b602082019050919050565b60006020820190508181036000830152620009a98162000967565b9050919050565b7f4e487b7100000000000000000000000000000000000000000000000000000000600052601160045260246000fd5b6000620009ec8262000858565b9150620009f98362000858565b9250827fffffffffffffffffffffffffffffffffffffffffffffffffffffffffffffffff0382111562000a315762000a30620009b0565b5b828201905092915050565b62000a478162000858565b82525050565b600060208201905062000a64600083018462000a3c565b92915050565b7f45524332305061757361626c653a20746f6b656e207472616e7366657220776860008201527f696c652070617573656400000000000000000000000000000000000000000000602082015250565b600062000ac8602a836200092d565b915062000ad58262000a6a565b604082019050919050565b6000602082019050818103600083015262000afb8162000ab9565b9050919050565b7f4e487b7100000000000000000000000000000000000000000000000000000000600052602260045260246000fd5b6000600282049050600182168062000b4a57607f821691505b6020821081141562000b615762000b6062000b02565b5b50919050565b6138d08062000b776000396000f3fe608060405234801561001057600080fd5b50600436106102065760003560e01c806379cc67901161011a578063a6115b69116100ad578063d53913931161007c578063d5391393146105fd578063d547741f1461061b578063dd62ed3e14610637578063e63ab1e914610667578063fcce83721461068557610206565b8063a6115b6914610565578063a9059cbb14610581578063c3052ffc146105b1578063ca15c873146105cd57610206565b806395d89b41116100e957806395d89b41146104dd5780639dc29fac146104fb578063a217fddf14610517578063a457c2d71461053557610206565b806379cc6790146104575780638456cb59146104735780639010d07c1461047d57806391d14854146104ad57610206565b8063313ce5671161019d57806340c10f191161016c57806340c10f19146103b557806342966c68146103d15780635c975abb146103ed57806369e2f0fb1461040b57806370a082311461042757610206565b8063313ce5671461034157806336568abe1461035f578063395093511461037b5780633f4ba83a146103ab57610206565b806323b872dd116101d957806323b872dd146102a7578063248a9ca3146102d7578063282c51f3146103075780632f2ff15d1461032557610206565b806301ffc9a71461020b57806306fdde031461023b578063095ea7b31461025957806318160ddd14610289575b600080fd5b6102256004803603810190610220919061254e565b6106a1565b6040516102329190612596565b60405180910390f35b61024361071b565b604051610250919061264a565b60405180910390f35b610273600480360381019061026e9190612700565b6107ad565b6040516102809190612596565b60405180910390f35b6102916107d0565b60405161029e919061274f565b60405180910390f35b6102c160048036038101906102bc919061276a565b6107da565b6040516102ce9190612596565b60405180910390f35b6102f160048036038101906102ec91906127f3565b610809565b6040516102fe919061282f565b60405180910390f35b61030f610828565b60405161031c919061282f565b60405180910390f35b61033f600480360381019061033a919061284a565b61084c565b005b61034961086d565b60405161035691906128a6565b60405180910390f35b6103796004803603810190610374919061284a565b610876565b005b61039560048036038101906103909190612700565b6108f9565b6040516103a29190612596565b60405180910390f35b6103b3610930565b005b6103cf60048036038101906103ca9190612700565b6109aa565b005b6103eb60048036038101906103e691906128c1565b610a28565b005b6103f5610a3c565b6040516104029190612596565b60405180910390f35b610425600480360381019061042091906128ee565b610a53565b005b610441600480360381019061043c91906128ee565b610acc565b60405161044e919061274f565b60405180910390f35b610471600480360381019061046c9190612700565b610b15565b005b61047b610b35565b005b6104976004803603810190610492919061291b565b610baf565b6040516104a4919061296a565b60405180910390f35b6104c760048036038101906104c2919061284a565b610bde565b6040516104d49190612596565b60405180910390f35b6104e5610c48565b6040516104f2919061264a565b60405180910390f35b61051560048036038101906105109190612700565b610cda565b005b61051f610d51565b60405161052c919061282f565b60405180910390f35b61054f600480360381019061054a9190612700565b610d58565b60405161055c9190612596565b60405180910390f35b61057f600480360381019061057a91906128ee565b610dcf565b005b61059b60048036038101906105969190612700565b610e48565b6040516105a89190612596565b60405180910390f35b6105cb60048036038101906105c691906128ee565b610e6b565b005b6105e760048036038101906105e291906127f3565b610ee4565b6040516105f4919061274f565b60405180910390f35b610605610f08565b604051610612919061282f565b60405180910390f35b6106356004803603810190610630919061284a565b610f2c565b005b610651600480360381019061064c9190612985565b610f4d565b60405161065e919061274f565b60405180910390f35b61066f610fd4565b60405161067c919061282f565b60405180910390f35b61069f600480360381019061069a91906128ee565b610ff8565b005b60007f5a05180f000000000000000000000000000000000000000000000000000000007bffffffffffffffffffffffffffffffffffffffffffffffffffffffff1916827bffffffffffffffffffffffffffffffffffffffffffffffffffffffff191614806107145750610713826111de565b5b9050919050565b60606005805461072a906129f4565b80601f0160208091040260200160405190810160405280929190818152602001828054610756906129f4565b80156107a35780601f10610778576101008083540402835291602001916107a3565b820191906000526020600020905b81548152906001019060200180831161078657829003601f168201915b5050505050905090565b6000806107b8611258565b90506107c5818585611260565b600191505092915050565b6000600454905090565b6000806107e5611258565b90506107f285828561142b565b6107fd8585856114b7565b60019150509392505050565b6000806000838152602001908152602001600020600101549050919050565b7f3c11d16cbaffd01df69ce1c404f6340ee057498f5f00246190ea54220576a84881565b61085582610809565b61085e8161173b565b610868838361174f565b505050565b60006012905090565b61087e611258565b73ffffffffffffffffffffffffffffffffffffffff168173ffffffffffffffffffffffffffffffffffffffff16146108eb576040517f08c379a00000000000000000000000000000000000000000000000000000000081526004016108e290612a98565b60405180910390fd5b6108f58282611783565b5050565b600080610904611258565b90506109258185856109168589610f4d565b6109209190612ae7565b611260565b600191505092915050565b6109617f65d7a28e3265b37a6474929f336521b332c1681b933f6cb9f3376673440d862a61095c611258565b610bde565b6109a0576040517f08c379a000000000000000000000000000000000000000000000000000000000815260040161099790612baf565b60405180910390fd5b6109a86117b7565b565b6109db7f9f2df0fed2c77648de5860a4cc508cd0818c85b8b8a1ab4ceeef8d981c8956a66109d6611258565b610bde565b610a1a576040517f08c379a0000000000000000000000000000000000000000000000000000000008152600401610a1190612c41565b60405180910390fd5b610a24828261181a565b5050565b610a39610a33611258565b8261197b565b50565b6000600760009054906101000a900460ff16905090565b610a606000801b33610bde565b610a9f576040517f08c379a0000000000000000000000000000000000000000000000000000000008152600401610a9690612cd3565b60405180910390fd5b610ac97f9f2df0fed2c77648de5860a4cc508cd0818c85b8b8a1ab4ceeef8d981c8956a682611783565b50565b6000600260008373ffffffffffffffffffffffffffffffffffffffff1673ffffffffffffffffffffffffffffffffffffffff168152602001908152602001600020549050919050565b610b2782610b21611258565b8361142b565b610b31828261197b565b5050565b610b667f65d7a28e3265b37a6474929f336521b332c1681b933f6cb9f3376673440d862a610b61611258565b610bde565b610ba5576040517f08c379a0000000000000000000000000000000000000000000000000000000008152600401610b9c90612d65565b60405180910390fd5b610bad611c11565b565b6000610bd68260016000868152602001908152602001600020611c7490919063ffffffff16565b905092915050565b600080600084815260200190815260200160002060000160008373ffffffffffffffffffffffffffffffffffffffff1673ffffffffffffffffffffffffffffffffffffffff16815260200190815260200160002060009054906101000a900460ff16905092915050565b606060068054610c57906129f4565b80601f0160208091040260200160405190810160405280929190818152602001828054610c83906129f4565b8015610cd05780601f10610ca557610100808354040283529160200191610cd0565b820191906000526020600020905b815481529060010190602001808311610cb357829003601f168201915b5050505050905090565b610d047f3c11d16cbaffd01df69ce1c404f6340ee057498f5f00246190ea54220576a84833610bde565b610d43576040517f08c379a0000000000000000000000000000000000000000000000000000000008152600401610d3a90612df7565b60405180910390fd5b610d4d828261197b565b5050565b6000801b81565b600080610d63611258565b90506000610d718286610f4d565b905083811015610db6576040517f08c379a0000000000000000000000000000000000000000000000000000000008152600401610dad90612e89565b60405180910390fd5b610dc38286868403611260565b60019250505092915050565b610ddc6000801b33610bde565b610e1b576040517f08c379a0000000000000000000000000000000000000000000000000000000008152600401610e1290612f1b565b60405180910390fd5b610e457f3c11d16cbaffd01df69ce1c404f6340ee057498f5f00246190ea54220576a84882611c8e565b50565b600080610e53611258565b9050610e608185856114b7565b600191505092915050565b610e786000801b33610bde565b610eb7576040517f08c379a0000000000000000000000000000000000000000000000000000000008152600401610eae90612f1b565b60405180910390fd5b610ee17f3c11d16cbaffd01df69ce1c404f6340ee057498f5f00246190ea54220576a84882611783565b50565b6000610f0160016000848152602001908152602001600020611c9c565b9050919050565b7f9f2df0fed2c77648de5860a4cc508cd0818c85b8b8a1ab4ceeef8d981c8956a681565b610f3582610809565b610f3e8161173b565b610f488383611783565b505050565b6000600360008473ffffffffffffffffffffffffffffffffffffffff1673ffffffffffffffffffffffffffffffffffffffff16815260200190815260200160002060008373ffffffffffffffffffffffffffffffffffffffff1673ffffffffffffffffffffffffffffffffffffffff16815260200190815260200160002054905092915050565b7f65d7a28e3265b37a6474929f336521b332c1681b933f6cb9f3376673440d862a81565b6110056000801b33610bde565b611044576040517f08c379a000000000000000000000000000000000000000000000000000000000815260040161103b90612cd3565b60405180910390fd5b61106e7f9f2df0fed2c77648de5860a4cc508cd0818c85b8b8a1ab4ceeef8d981c8956a682611c8e565b50565b61107b8282610bde565b61114d57600160008084815260200190815260200160002060000160008373ffffffffffffffffffffffffffffffffffffffff1673ffffffffffffffffffffffffffffffffffffffff16815260200190815260200160002060006101000a81548160ff0219169083151502179055506110f2611258565b73ffffffffffffffffffffffffffffffffffffffff168173ffffffffffffffffffffffffffffffffffffffff16837f2f8788117e7eff1d82e926ec794901d17c78024a50270940304540a733656f0d60405160405180910390a45b5050565b6000611179836000018373ffffffffffffffffffffffffffffffffffffffff1660001b611cb1565b905092915050565b61118c8383836111d9565b611194610a3c565b156111d4576040517f08c379a00000000000000000000000000000000000000000000000000000000081526004016111cb90612fad565b60405180910390fd5b505050565b505050565b60007f7965db0b000000000000000000000000000000000000000000000000000000007bffffffffffffffffffffffffffffffffffffffffffffffffffffffff1916827bffffffffffffffffffffffffffffffffffffffffffffffffffffffff19161480611251575061125082611d21565b5b9050919050565b600033905090565b600073ffffffffffffffffffffffffffffffffffffffff168373ffffffffffffffffffffffffffffffffffffffff1614156112d0576040517f08c379a00000000000000000000000000000000000000000000000000000000081526004016112c79061303f565b60405180910390fd5b600073ffffffffffffffffffffffffffffffffffffffff168273ffffffffffffffffffffffffffffffffffffffff161415611340576040517f08c379a0000000000000000000000000000000000000000000000000000000008152600401611337906130d1565b60405180910390fd5b80600360008573ffffffffffffffffffffffffffffffffffffffff1673ffffffffffffffffffffffffffffffffffffffff16815260200190815260200160002060008473ffffffffffffffffffffffffffffffffffffffff1673ffffffffffffffffffffffffffffffffffffffff168152602001908152602001600020819055508173ffffffffffffffffffffffffffffffffffffffff168373ffffffffffffffffffffffffffffffffffffffff167f8c5be1e5ebec7d5bd14f71427d1e84f3dd0314c0f7b2291e5b200ac8c7c3b9258360405161141e919061274f565b60405180910390a3505050565b60006114378484610f4d565b90507fffffffffffffffffffffffffffffffffffffffffffffffffffffffffffffffff81146114b157818110156114a3576040517f08c379a000000000000000000000000000000000000000000000000000000000815260040161149a9061313d565b60405180910390fd5b6114b08484848403611260565b5b50505050565b600073ffffffffffffffffffffffffffffffffffffffff168373ffffffffffffffffffffffffffffffffffffffff161415611527576040517f08c379a000000000000000000000000000000000000000000000000000000000815260040161151e906131cf565b60405180910390fd5b600073ffffffffffffffffffffffffffffffffffffffff168273ffffffffffffffffffffffffffffffffffffffff161415611597576040517f08c379a000000000000000000000000000000000000000000000000000000000815260040161158e90613261565b60405180910390fd5b6115a2838383611d8b565b6000600260008573ffffffffffffffffffffffffffffffffffffffff1673ffffffffffffffffffffffffffffffffffffffff16815260200190815260200160002054905081811015611629576040517f08c379a0000000000000000000000000000000000000000000000000000000008152600401611620906132f3565b60405180910390fd5b818103600260008673ffffffffffffffffffffffffffffffffffffffff1673ffffffffffffffffffffffffffffffffffffffff1681526020019081526020016000208190555081600260008573ffffffffffffffffffffffffffffffffffffffff1673ffffffffffffffffffffffffffffffffffffffff16815260200190815260200160002060008282546116be9190612ae7565b925050819055508273ffffffffffffffffffffffffffffffffffffffff168473ffffffffffffffffffffffffffffffffffffffff167fddf252ad1be2c89b69c2b068fc378daa952ba7f163c4a11628f55a4df523b3ef84604051611722919061274f565b60405180910390a3611735848484611d9b565b50505050565b61174c81611747611258565b611da0565b50565b6117598282611071565b61177e816001600085815260200190815260200160002061115190919063ffffffff16565b505050565b61178d8282611e3d565b6117b28160016000858152602001908152602001600020611f1e90919063ffffffff16565b505050565b6117bf611f4e565b6000600760006101000a81548160ff0219169083151502179055507f5db9ee0a495bf2e6ff9c91a7834c1ba4fdd244a5e8aa4e537bd38aeae4b073aa611803611258565b604051611810919061296a565b60405180910390a1565b600073ffffffffffffffffffffffffffffffffffffffff168273ffffffffffffffffffffffffffffffffffffffff16141561188a576040517f08c379a00000000000000000000000000000000000000000000000000000000081526004016118819061335f565b60405180910390fd5b61189660008383611d8b565b80600460008282546118a89190612ae7565b9250508190555080600260008473ffffffffffffffffffffffffffffffffffffffff1673ffffffffffffffffffffffffffffffffffffffff16815260200190815260200160002060008282546118fe9190612ae7565b925050819055508173ffffffffffffffffffffffffffffffffffffffff16600073ffffffffffffffffffffffffffffffffffffffff167fddf252ad1be2c89b69c2b068fc378daa952ba7f163c4a11628f55a4df523b3ef83604051611963919061274f565b60405180910390a361197760008383611d9b565b5050565b600073ffffffffffffffffffffffffffffffffffffffff168273ffffffffffffffffffffffffffffffffffffffff1614156119eb576040517f08c379a00000000000000000000000000000000000000000000000000000000081526004016119e2906133f1565b60405180910390fd5b6119f782600083611d8b565b6000600260008473ffffffffffffffffffffffffffffffffffffffff1673ffffffffffffffffffffffffffffffffffffffff168152602001908152602001600020549050611a7a6040518060400160405280600781526020017f6163636f756e740000000000000000000000000000000000000000000000000081525084611f97565b611ab96040518060400160405280600e81526020017f6163636f756e7442616c616e636500000000000000000000000000000000000081525082612033565b611af86040518060400160405280600681526020017f616d6f756e74000000000000000000000000000000000000000000000000000081525083612033565b81811015611b3b576040517f08c379a0000000000000000000000000000000000000000000000000000000008152600401611b3290613483565b60405180910390fd5b818103600260008573ffffffffffffffffffffffffffffffffffffffff1673ffffffffffffffffffffffffffffffffffffffff168152602001908152602001600020819055508160046000828254611b9391906134a3565b92505081905550600073ffffffffffffffffffffffffffffffffffffffff168373ffffffffffffffffffffffffffffffffffffffff167fddf252ad1be2c89b69c2b068fc378daa952ba7f163c4a11628f55a4df523b3ef84604051611bf8919061274f565b60405180910390a3611c0c83600084611d9b565b505050565b611c196120cf565b6001600760006101000a81548160ff0219169083151502179055507f62e78cea01bee320cd4e420270b5ea74000d11b0c9f74754ebdbfc544b05a258611c5d611258565b604051611c6a919061296a565b60405180910390a1565b6000611c838360000183612119565b60001c905092915050565b611c98828261174f565b5050565b6000611caa82600001612144565b9050919050565b6000611cbd8383612155565b611d16578260000182908060018154018082558091505060019003906000526020600020016000909190919091505582600001805490508360010160008481526020019081526020016000208190555060019050611d1b565b600090505b92915050565b60007f01ffc9a7000000000000000000000000000000000000000000000000000000007bffffffffffffffffffffffffffffffffffffffffffffffffffffffff1916827bffffffffffffffffffffffffffffffffffffffffffffffffffffffff1916149050919050565b611d96838383611181565b505050565b505050565b611daa8282610bde565b611e3957611dcf8173ffffffffffffffffffffffffffffffffffffffff166014612178565b611ddd8360001c6020612178565b604051602001611dee9291906135ab565b6040516020818303038152906040526040517f08c379a0000000000000000000000000000000000000000000000000000000008152600401611e30919061264a565b60405180910390fd5b5050565b611e478282610bde565b15611f1a57600080600084815260200190815260200160002060000160008373ffffffffffffffffffffffffffffffffffffffff1673ffffffffffffffffffffffffffffffffffffffff16815260200190815260200160002060006101000a81548160ff021916908315150217905550611ebf611258565b73ffffffffffffffffffffffffffffffffffffffff168173ffffffffffffffffffffffffffffffffffffffff16837ff6391f5c32d9c69d2a47ea670b442974b53935d1edc7fd64eb21e047a839171b60405160405180910390a45b5050565b6000611f46836000018373ffffffffffffffffffffffffffffffffffffffff1660001b6123b4565b905092915050565b611f56610a3c565b611f95576040517f08c379a0000000000000000000000000000000000000000000000000000000008152600401611f8c90613631565b60405180910390fd5b565b61202f8282604051602401611fad929190613651565b6040516020818303038152906040527f319af333000000000000000000000000000000000000000000000000000000007bffffffffffffffffffffffffffffffffffffffffffffffffffffffff19166020820180517bffffffffffffffffffffffffffffffffffffffffffffffffffffffff83818316178352505050506124c8565b5050565b6120cb8282604051602401612049929190613681565b6040516020818303038152906040527f9710a9d0000000000000000000000000000000000000000000000000000000007bffffffffffffffffffffffffffffffffffffffffffffffffffffffff19166020820180517bffffffffffffffffffffffffffffffffffffffffffffffffffffffff83818316178352505050506124c8565b5050565b6120d7610a3c565b15612117576040517f08c379a000000000000000000000000000000000000000000000000000000000815260040161210e906136fd565b60405180910390fd5b565b60008260000182815481106121315761213061371d565b5b9060005260206000200154905092915050565b600081600001805490509050919050565b600080836001016000848152602001908152602001600020541415905092915050565b60606000600283600261218b919061374c565b6121959190612ae7565b67ffffffffffffffff8111156121ae576121ad6137a6565b5b6040519080825280601f01601f1916602001820160405280156121e05781602001600182028036833780820191505090505b5090507f3000000000000000000000000000000000000000000000000000000000000000816000815181106122185761221761371d565b5b60200101907effffffffffffffffffffffffffffffffffffffffffffffffffffffffffffff1916908160001a9053507f78000000000000000000000000000000000000000000000000000000000000008160018151811061227c5761227b61371d565b5b60200101907effffffffffffffffffffffffffffffffffffffffffffffffffffffffffffff1916908160001a905350600060018460026122bc919061374c565b6122c69190612ae7565b90505b6001811115612366577f3031323334353637383961626364656600000000000000000000000000000000600f8616601081106123085761230761371d565b5b1a60f81b82828151811061231f5761231e61371d565b5b60200101907effffffffffffffffffffffffffffffffffffffffffffffffffffffffffffff1916908160001a905350600485901c94508061235f906137d5565b90506122c9565b50600084146123aa576040517f08c379a00000000000000000000000000000000000000000000000000000000081526004016123a19061384b565b60405180910390fd5b8091505092915050565b600080836001016000848152602001908152602001600020549050600081146124bc5760006001826123e691906134a3565b90506000600186600001805490506123fe91906134a3565b905081811461246d57600086600001828154811061241f5761241e61371d565b5b90600052602060002001549050808760000184815481106124435761244261371d565b5b90600052602060002001819055508387600101600083815260200190815260200160002081905550505b856000018054806124815761248061386b565b5b6001900381819060005260206000200160009055905585600101600086815260200190815260200160002060009055600193505050506124c2565b60009150505b92915050565b60008151905060006a636f6e736f6c652e6c6f679050602083016000808483855afa5050505050565b600080fd5b60007fffffffff0000000000000000000000000000000000000000000000000000000082169050919050565b61252b816124f6565b811461253657600080fd5b50565b60008135905061254881612522565b92915050565b600060208284031215612564576125636124f1565b5b600061257284828501612539565b91505092915050565b60008115159050919050565b6125908161257b565b82525050565b60006020820190506125ab6000830184612587565b92915050565b600081519050919050565b600082825260208201905092915050565b60005b838110156125eb5780820151818401526020810190506125d0565b838111156125fa576000848401525b50505050565b6000601f19601f8301169050919050565b600061261c826125b1565b61262681856125bc565b93506126368185602086016125cd565b61263f81612600565b840191505092915050565b600060208201905081810360008301526126648184612611565b905092915050565b600073ffffffffffffffffffffffffffffffffffffffff82169050919050565b60006126978261266c565b9050919050565b6126a78161268c565b81146126b257600080fd5b50565b6000813590506126c48161269e565b92915050565b6000819050919050565b6126dd816126ca565b81146126e857600080fd5b50565b6000813590506126fa816126d4565b92915050565b60008060408385031215612717576127166124f1565b5b6000612725858286016126b5565b9250506020612736858286016126eb565b9150509250929050565b612749816126ca565b82525050565b60006020820190506127646000830184612740565b92915050565b600080600060608486031215612783576127826124f1565b5b6000612791868287016126b5565b93505060206127a2868287016126b5565b92505060406127b3868287016126eb565b9150509250925092565b6000819050919050565b6127d0816127bd565b81146127db57600080fd5b50565b6000813590506127ed816127c7565b92915050565b600060208284031215612809576128086124f1565b5b6000612817848285016127de565b91505092915050565b612829816127bd565b82525050565b60006020820190506128446000830184612820565b92915050565b60008060408385031215612861576128606124f1565b5b600061286f858286016127de565b9250506020612880858286016126b5565b9150509250929050565b600060ff82169050919050565b6128a08161288a565b82525050565b60006020820190506128bb6000830184612897565b92915050565b6000602082840312156128d7576128d66124f1565b5b60006128e5848285016126eb565b91505092915050565b600060208284031215612904576129036124f1565b5b6000612912848285016126b5565b91505092915050565b60008060408385031215612932576129316124f1565b5b6000612940858286016127de565b9250506020612951858286016126eb565b9150509250929050565b6129648161268c565b82525050565b600060208201905061297f600083018461295b565b92915050565b6000806040838503121561299c5761299b6124f1565b5b60006129aa858286016126b5565b92505060206129bb858286016126b5565b9150509250929050565b7f4e487b7100000000000000000000000000000000000000000000000000000000600052602260045260246000fd5b60006002820490506001821680612a0c57607f821691505b60208210811415612a2057612a1f6129c5565b5b50919050565b7f416363657373436f6e74726f6c3a2063616e206f6e6c792072656e6f756e636560008201527f20726f6c657320666f722073656c660000000000000000000000000000000000602082015250565b6000612a82602f836125bc565b9150612a8d82612a26565b604082019050919050565b60006020820190508181036000830152612ab181612a75565b9050919050565b7f4e487b7100000000000000000000000000000000000000000000000000000000600052601160045260246000fd5b6000612af2826126ca565b9150612afd836126ca565b9250827fffffffffffffffffffffffffffffffffffffffffffffffffffffffffffffffff03821115612b3257612b31612ab8565b5b828201905092915050565b7f45524332305072657365744d696e7465725061757365723a206d75737420686160008201527f76652070617573657220726f6c6520746f20756e706175736500000000000000602082015250565b6000612b996039836125bc565b9150612ba482612b3d565b604082019050919050565b60006020820190508181036000830152612bc881612b8c565b9050919050565b7f45524332305072657365744d696e7465725061757365723a206d75737420686160008201527f7665206d696e74657220726f6c6520746f206d696e7400000000000000000000602082015250565b6000612c2b6036836125bc565b9150612c3682612bcf565b604082019050919050565b60006020820190508181036000830152612c5a81612c1e565b9050919050565b7f44414f546f6b656e3a206d75737420686176652061646d696e20726f6c65207460008201527f6f207365747570206d696e746572000000000000000000000000000000000000602082015250565b6000612cbd602e836125bc565b9150612cc882612c61565b604082019050919050565b60006020820190508181036000830152612cec81612cb0565b9050919050565b7f45524332305072657365744d696e7465725061757365723a206d75737420686160008201527f76652070617573657220726f6c6520746f207061757365000000000000000000602082015250565b6000612d4f6037836125bc565b9150612d5a82612cf3565b604082019050919050565b60006020820190508181036000830152612d7e81612d42565b9050919050565b7f44414f546f6b656e3a206d7573742068617665206275726e657220726f6c652060008201527f746f206275726e00000000000000000000000000000000000000000000000000602082015250565b6000612de16027836125bc565b9150612dec82612d85565b604082019050919050565b60006020820190508181036000830152612e1081612dd4565b9050919050565b7f45524332303a2064656372656173656420616c6c6f77616e63652062656c6f7760008201527f207a65726f000000000000000000000000000000000000000000000000000000602082015250565b6000612e736025836125bc565b9150612e7e82612e17565b604082019050919050565b60006020820190508181036000830152612ea281612e66565b9050919050565b7f44414f546f6b656e3a206d75737420686176652061646d696e20726f6c65207460008201527f6f207365747570206275726e6572000000000000000000000000000000000000602082015250565b6000612f05602e836125bc565b9150612f1082612ea9565b604082019050919050565b60006020820190508181036000830152612f3481612ef8565b9050919050565b7f45524332305061757361626c653a20746f6b656e207472616e7366657220776860008201527f696c652070617573656400000000000000000000000000000000000000000000602082015250565b6000612f97602a836125bc565b9150612fa282612f3b565b604082019050919050565b60006020820190508181036000830152612fc681612f8a565b9050919050565b7f45524332303a20617070726f76652066726f6d20746865207a65726f2061646460008201527f7265737300000000000000000000000000000000000000000000000000000000602082015250565b60006130296024836125bc565b915061303482612fcd565b604082019050919050565b600060208201905081810360008301526130588161301c565b9050919050565b7f45524332303a20617070726f766520746f20746865207a65726f20616464726560008201527f7373000000000000000000000000000000000000000000000000000000000000602082015250565b60006130bb6022836125bc565b91506130c68261305f565b604082019050919050565b600060208201905081810360008301526130ea816130ae565b9050919050565b7f45524332303a20696e73756666696369656e7420616c6c6f77616e6365000000600082015250565b6000613127601d836125bc565b9150613132826130f1565b602082019050919050565b600060208201905081810360008301526131568161311a565b9050919050565b7f45524332303a207472616e736665722066726f6d20746865207a65726f20616460008201527f6472657373000000000000000000000000000000000000000000000000000000602082015250565b60006131b96025836125bc565b91506131c48261315d565b604082019050919050565b600060208201905081810360008301526131e8816131ac565b9050919050565b7f45524332303a207472616e7366657220746f20746865207a65726f206164647260008201527f6573730000000000000000000000000000000000000000000000000000000000602082015250565b600061324b6023836125bc565b9150613256826131ef565b604082019050919050565b6000602082019050818103600083015261327a8161323e565b9050919050565b7f45524332303a207472616e7366657220616d6f756e742065786365656473206260008201527f616c616e63650000000000000000000000000000000000000000000000000000602082015250565b60006132dd6026836125bc565b91506132e882613281565b604082019050919050565b6000602082019050818103600083015261330c816132d0565b9050919050565b7f45524332303a206d696e7420746f20746865207a65726f206164647265737300600082015250565b6000613349601f836125bc565b915061335482613313565b602082019050919050565b600060208201905081810360008301526133788161333c565b9050919050565b7f45524332303a206275726e2066726f6d20746865207a65726f2061646472657360008201527f7300000000000000000000000000000000000000000000000000000000000000602082015250565b60006133db6021836125bc565b91506133e68261337f565b604082019050919050565b6000602082019050818103600083015261340a816133ce565b9050919050565b7f45524332303a206275726e20616d6f756e7420657863656564732062616c616e60008201527f6365000000000000000000000000000000000000000000000000000000000000602082015250565b600061346d6022836125bc565b915061347882613411565b604082019050919050565b6000602082019050818103600083015261349c81613460565b9050919050565b60006134ae826126ca565b91506134b9836126ca565b9250828210156134cc576134cb612ab8565b5b828203905092915050565b600081905092915050565b7f416363657373436f6e74726f6c3a206163636f756e7420000000000000000000600082015250565b60006135186017836134d7565b9150613523826134e2565b601782019050919050565b6000613539826125b1565b61354381856134d7565b93506135538185602086016125cd565b80840191505092915050565b7f206973206d697373696e6720726f6c6520000000000000000000000000000000600082015250565b60006135956011836134d7565b91506135a08261355f565b601182019050919050565b60006135b68261350b565b91506135c2828561352e565b91506135cd82613588565b91506135d9828461352e565b91508190509392505050565b7f5061757361626c653a206e6f7420706175736564000000000000000000000000600082015250565b600061361b6014836125bc565b9150613626826135e5565b602082019050919050565b6000602082019050818103600083015261364a8161360e565b9050919050565b6000604082019050818103600083015261366b8185612611565b905061367a602083018461295b565b9392505050565b6000604082019050818103600083015261369b8185612611565b90506136aa6020830184612740565b9392505050565b7f5061757361626c653a2070617573656400000000000000000000000000000000600082015250565b60006136e76010836125bc565b91506136f2826136b1565b602082019050919050565b60006020820190508181036000830152613716816136da565b9050919050565b7f4e487b7100000000000000000000000000000000000000000000000000000000600052603260045260246000fd5b6000613757826126ca565b9150613762836126ca565b9250817fffffffffffffffffffffffffffffffffffffffffffffffffffffffffffffffff048311821515161561379b5761379a612ab8565b5b828202905092915050565b7f4e487b7100000000000000000000000000000000000000000000000000000000600052604160045260246000fd5b60006137e0826126ca565b915060008214156137f4576137f3612ab8565b5b600182039050919050565b7f537472696e67733a20686578206c656e67746820696e73756666696369656e74600082015250565b60006138356020836125bc565b9150613840826137ff565b602082019050919050565b6000602082019050818103600083015261386481613828565b9050919050565b7f4e487b7100000000000000000000000000000000000000000000000000000000600052603160045260246000fdfea26469706673582212204025595067171aa5749daba07db441bd4e80596963824270c7ad58b9ff54fc2b64736f6c63430008090033",
  "linkReferences": {},
  "deployedLinkReferences": {}
}