{
  "_format": "hh-sol-artifact-1",
  "contractName": "DAOTreasury",
  "sourceName": "contracts/DAOTreasury.sol",
  "abi": [
    {
      "inputs": [],
      "stateMutability": "nonpayable",
      "type": "constructor"
    },
    {
      "anonymous": false,
      "inputs": [
        {
          "indexed": false,
          "internalType": "int256",
          "name": "pollId",
          "type": "int256"
        },
        {
          "indexed": true,
          "internalType": "address",
          "name": "candidate",
          "type": "address"
        }
      ],
      "name": "Candidated",
      "type": "event"
    },
    {
      "anonymous": false,
      "inputs": [
        {
          "indexed": false,
          "internalType": "int256",
          "name": "pollId",
          "type": "int256"
        }
      ],
      "name": "CreatePoll",
      "type": "event"
    },
    {
      "anonymous": false,
      "inputs": [
        {
          "indexed": true,
          "internalType": "address",
          "name": "sender",
          "type": "address"
        },
        {
          "indexed": false,
          "internalType": "uint256",
          "name": "amount",
          "type": "uint256"
        }
      ],
      "name": "Deposited",
      "type": "event"
    },
    {
      "anonymous": false,
      "inputs": [
        {
          "indexed": true,
          "internalType": "address",
          "name": "previousOwner",
          "type": "address"
        },
        {
          "indexed": true,
          "internalType": "address",
          "name": "newOwner",
          "type": "address"
        }
      ],
      "name": "OwnershipTransferred",
      "type": "event"
    },
    {
      "anonymous": false,
      "inputs": [
        {
          "indexed": false,
          "internalType": "address",
          "name": "account",
          "type": "address"
        }
      ],
      "name": "Paused",
      "type": "event"
    },
    {
      "anonymous": false,
      "inputs": [
        {
          "indexed": false,
          "internalType": "int256",
          "name": "pollId",
          "type": "int256"
        }
      ],
      "name": "SettlePoll",
      "type": "event"
    },
    {
      "anonymous": false,
      "inputs": [
        {
          "indexed": false,
          "internalType": "address",
          "name": "account",
          "type": "address"
        }
      ],
      "name": "Unpaused",
      "type": "event"
    },
    {
      "anonymous": false,
      "inputs": [
        {
          "indexed": false,
          "internalType": "int256",
          "name": "pollId",
          "type": "int256"
        },
        {
          "indexed": true,
          "internalType": "address",
          "name": "voter",
          "type": "address"
        }
      ],
      "name": "Voted",
      "type": "event"
    },
    {
      "anonymous": false,
      "inputs": [
        {
          "indexed": false,
          "internalType": "int256",
          "name": "pollId",
          "type": "int256"
        },
        {
          "indexed": false,
          "internalType": "bool",
          "name": "enabled",
          "type": "bool"
        }
      ],
      "name": "VotingEnabled",
      "type": "event"
    },
    {
      "anonymous": false,
      "inputs": [
        {
          "indexed": false,
          "internalType": "uint256",
          "name": "amount",
          "type": "uint256"
        },
        {
          "indexed": false,
          "internalType": "uint256",
          "name": "payedAmount",
          "type": "uint256"
        }
      ],
      "name": "WithdrawEth",
      "type": "event"
    },
    {
      "inputs": [],
      "name": "deposit",
      "outputs": [
        {
          "internalType": "bool",
          "name": "",
          "type": "bool"
        }
      ],
      "stateMutability": "payable",
      "type": "function"
    },
    {
      "inputs": [],
      "name": "getBalance",
      "outputs": [
        {
          "internalType": "uint256",
          "name": "",
          "type": "uint256"
        }
      ],
      "stateMutability": "view",
      "type": "function"
    },
    {
      "inputs": [],
      "name": "getCurrentTokenRate",
      "outputs": [
        {
          "internalType": "uint256",
          "name": "",
          "type": "uint256"
        }
      ],
      "stateMutability": "view",
      "type": "function"
    },
    {
      "inputs": [],
      "name": "owner",
      "outputs": [
        {
          "internalType": "address",
          "name": "",
          "type": "address"
        }
      ],
      "stateMutability": "view",
      "type": "function"
    },
    {
      "inputs": [],
      "name": "paused",
      "outputs": [
        {
          "internalType": "bool",
          "name": "",
          "type": "bool"
        }
      ],
      "stateMutability": "view",
      "type": "function"
    },
    {
      "inputs": [],
      "name": "renounceOwnership",
      "outputs": [],
      "stateMutability": "nonpayable",
      "type": "function"
    },
    {
      "inputs": [
        {
          "internalType": "address",
          "name": "_address",
          "type": "address"
        }
      ],
      "name": "setDAOTokenAddress",
      "outputs": [],
      "stateMutability": "nonpayable",
      "type": "function"
    },
    {
      "inputs": [
        {
          "internalType": "address",
          "name": "newOwner",
          "type": "address"
        }
      ],
      "name": "transferOwnership",
      "outputs": [],
      "stateMutability": "nonpayable",
      "type": "function"
    },
    {
      "inputs": [
        {
          "internalType": "uint256",
          "name": "_amount",
          "type": "uint256"
        }
      ],
      "name": "withdraw",
      "outputs": [
        {
          "internalType": "uint256",
          "name": "",
          "type": "uint256"
        }
      ],
      "stateMutability": "nonpayable",
      "type": "function"
    }
  ],
  "bytecode": "0x608060405234801561001057600080fd5b5061002d61002261005360201b60201c565b61005b60201b60201c565b60008060146101000a81548160ff0219169083151502179055506001808190555061011f565b600033905090565b60008060009054906101000a900473ffffffffffffffffffffffffffffffffffffffff169050816000806101000a81548173ffffffffffffffffffffffffffffffffffffffff021916908373ffffffffffffffffffffffffffffffffffffffff1602179055508173ffffffffffffffffffffffffffffffffffffffff168173ffffffffffffffffffffffffffffffffffffffff167f8be0079c531659141344cd1fd0a4f28419497f9722a3daafe3b4186f6b6457e060405160405180910390a35050565b61135e8061012e6000396000f3fe6080604052600436106100865760003560e01c8063715018a611610059578063715018a6146101495780638da5cb5b14610160578063a2fa6fc51461018b578063d0e30db0146101b4578063f2fde38b146101d257610086565b806312065fe01461008b5780632e1a7d4d146100b65780634e961921146100f35780635c975abb1461011e575b600080fd5b34801561009757600080fd5b506100a06101fb565b6040516100ad9190610ae5565b60405180910390f35b3480156100c257600080fd5b506100dd60048036038101906100d89190610b31565b610203565b6040516100ea9190610ae5565b60405180910390f35b3480156100ff57600080fd5b506101086104f8565b6040516101159190610ae5565b60405180910390f35b34801561012a57600080fd5b506101336105c4565b6040516101409190610b79565b60405180910390f35b34801561015557600080fd5b5061015e6105da565b005b34801561016c57600080fd5b506101756105ee565b6040516101829190610bd5565b60405180910390f35b34801561019757600080fd5b506101b260048036038101906101ad9190610c1c565b610617565b005b6101bc610663565b6040516101c99190610b79565b60405180910390f35b3480156101de57600080fd5b506101f960048036038101906101f49190610c1c565b6106c2565b005b600047905090565b600061020d610746565b60026001541415610253576040517f08c379a000000000000000000000000000000000000000000000000000000000815260040161024a90610ca6565b60405180910390fd5b60026001819055506000821161029e576040517f08c379a000000000000000000000000000000000000000000000000000000000815260040161029590610d12565b60405180910390fd5b6000600260009054906101000a900473ffffffffffffffffffffffffffffffffffffffff16905060008173ffffffffffffffffffffffffffffffffffffffff166370a08231336040518263ffffffff1660e01b81526004016103009190610bd5565b60206040518083038186803b15801561031857600080fd5b505afa15801561032c573d6000803e3d6000fd5b505050506040513d601f19601f820116820180604052508101906103509190610d47565b905083811015610395576040517f08c379a000000000000000000000000000000000000000000000000000000000815260040161038c90610dc0565b60405180910390fd5b60008273ffffffffffffffffffffffffffffffffffffffff166318160ddd6040518163ffffffff1660e01b815260040160206040518083038186803b1580156103dd57600080fd5b505afa1580156103f1573d6000803e3d6000fd5b505050506040513d601f19601f820116820180604052508101906104159190610d47565b9050600061043361042d6104276101fb565b88610790565b836107cd565b905061043f338261088e565b8373ffffffffffffffffffffffffffffffffffffffff16639dc29fac33886040518363ffffffff1660e01b815260040161047a929190610de0565b600060405180830381600087803b15801561049457600080fd5b505af11580156104a8573d6000803e3d6000fd5b505050507f50a28b6d20a1ca0875995486d292a7fc963130657ece1a197a839884f2efe4ea86826040516104dd929190610e09565b60405180910390a18094505050505060018081905550919050565b600080600260009054906101000a900473ffffffffffffffffffffffffffffffffffffffff16905060008173ffffffffffffffffffffffffffffffffffffffff166318160ddd6040518163ffffffff1660e01b815260040160206040518083038186803b15801561056857600080fd5b505afa15801561057c573d6000803e3d6000fd5b505050506040513d601f19601f820116820180604052508101906105a09190610d47565b90506105bd6105b76105b06101fb565b6001610790565b826107cd565b9250505090565b60008060149054906101000a900460ff16905090565b6105e2610982565b6105ec6000610a00565b565b60008060009054906101000a900473ffffffffffffffffffffffffffffffffffffffff16905090565b61061f610982565b80600260006101000a81548173ffffffffffffffffffffffffffffffffffffffff021916908373ffffffffffffffffffffffffffffffffffffffff16021790555050565b600061066d610746565b3373ffffffffffffffffffffffffffffffffffffffff167f2da466a7b24304f47e87fa2e1e5a81b9831ce54fec19055ce277ca2f39ba42c4346040516106b39190610ae5565b60405180910390a26001905090565b6106ca610982565b600073ffffffffffffffffffffffffffffffffffffffff168173ffffffffffffffffffffffffffffffffffffffff16141561073a576040517f08c379a000000000000000000000000000000000000000000000000000000000815260040161073190610ea4565b60405180910390fd5b61074381610a00565b50565b61074e6105c4565b1561078e576040517f08c379a000000000000000000000000000000000000000000000000000000000815260040161078590610f10565b60405180910390fd5b565b600080828461079f9190610f5f565b905060008414806107ba57508284826107b89190610fe8565b145b6107c357600080fd5b8091505092915050565b6000808211610811576040517f08c379a000000000000000000000000000000000000000000000000000000000815260040161080890611065565b60405180910390fd5b6000828461081f9190610fe8565b9050828461082d9190611085565b81846108399190610f5f565b61084391906110b6565b8414610884576040517f08c379a000000000000000000000000000000000000000000000000000000000815260040161087b90611158565b60405180910390fd5b8091505092915050565b804710156108d1576040517f08c379a00000000000000000000000000000000000000000000000000000000081526004016108c8906111c4565b60405180910390fd5b60008273ffffffffffffffffffffffffffffffffffffffff16826040516108f790611215565b60006040518083038185875af1925050503d8060008114610934576040519150601f19603f3d011682016040523d82523d6000602084013e610939565b606091505b505090508061097d576040517f08c379a00000000000000000000000000000000000000000000000000000000081526004016109749061129c565b60405180910390fd5b505050565b61098a610ac4565b73ffffffffffffffffffffffffffffffffffffffff166109a86105ee565b73ffffffffffffffffffffffffffffffffffffffff16146109fe576040517f08c379a00000000000000000000000000000000000000000000000000000000081526004016109f590611308565b60405180910390fd5b565b60008060009054906101000a900473ffffffffffffffffffffffffffffffffffffffff169050816000806101000a81548173ffffffffffffffffffffffffffffffffffffffff021916908373ffffffffffffffffffffffffffffffffffffffff1602179055508173ffffffffffffffffffffffffffffffffffffffff168173ffffffffffffffffffffffffffffffffffffffff167f8be0079c531659141344cd1fd0a4f28419497f9722a3daafe3b4186f6b6457e060405160405180910390a35050565b600033905090565b6000819050919050565b610adf81610acc565b82525050565b6000602082019050610afa6000830184610ad6565b92915050565b600080fd5b610b0e81610acc565b8114610b1957600080fd5b50565b600081359050610b2b81610b05565b92915050565b600060208284031215610b4757610b46610b00565b5b6000610b5584828501610b1c565b91505092915050565b60008115159050919050565b610b7381610b5e565b82525050565b6000602082019050610b8e6000830184610b6a565b92915050565b600073ffffffffffffffffffffffffffffffffffffffff82169050919050565b6000610bbf82610b94565b9050919050565b610bcf81610bb4565b82525050565b6000602082019050610bea6000830184610bc6565b92915050565b610bf981610bb4565b8114610c0457600080fd5b50565b600081359050610c1681610bf0565b92915050565b600060208284031215610c3257610c31610b00565b5b6000610c4084828501610c07565b91505092915050565b600082825260208201905092915050565b7f5265656e7472616e637947756172643a207265656e7472616e742063616c6c00600082015250565b6000610c90601f83610c49565b9150610c9b82610c5a565b602082019050919050565b60006020820190508181036000830152610cbf81610c83565b9050919050565b7f616d6f756e74206d7573742062652067726561746572207468616e2030000000600082015250565b6000610cfc601d83610c49565b9150610d0782610cc6565b602082019050919050565b60006020820190508181036000830152610d2b81610cef565b9050919050565b600081519050610d4181610b05565b92915050565b600060208284031215610d5d57610d5c610b00565b5b6000610d6b84828501610d32565b91505092915050565b7f746f6b656e2062616c616e6365206973206e6f7420656e6f7567680000000000600082015250565b6000610daa601b83610c49565b9150610db582610d74565b602082019050919050565b60006020820190508181036000830152610dd981610d9d565b9050919050565b6000604082019050610df56000830185610bc6565b610e026020830184610ad6565b9392505050565b6000604082019050610e1e6000830185610ad6565b610e2b6020830184610ad6565b9392505050565b7f4f776e61626c653a206e6577206f776e657220697320746865207a65726f206160008201527f6464726573730000000000000000000000000000000000000000000000000000602082015250565b6000610e8e602683610c49565b9150610e9982610e32565b604082019050919050565b60006020820190508181036000830152610ebd81610e81565b9050919050565b7f5061757361626c653a2070617573656400000000000000000000000000000000600082015250565b6000610efa601083610c49565b9150610f0582610ec4565b602082019050919050565b60006020820190508181036000830152610f2981610eed565b9050919050565b7f4e487b7100000000000000000000000000000000000000000000000000000000600052601160045260246000fd5b6000610f6a82610acc565b9150610f7583610acc565b9250817fffffffffffffffffffffffffffffffffffffffffffffffffffffffffffffffff0483118215151615610fae57610fad610f30565b5b828202905092915050565b7f4e487b7100000000000000000000000000000000000000000000000000000000600052601260045260246000fd5b6000610ff382610acc565b9150610ffe83610acc565b92508261100e5761100d610fb9565b5b828204905092915050565b7f646976696465206279207a65726f000000000000000000000000000000000000600082015250565b600061104f600e83610c49565b915061105a82611019565b602082019050919050565b6000602082019050818103600083015261107e81611042565b9050919050565b600061109082610acc565b915061109b83610acc565b9250826110ab576110aa610fb9565b5b828206905092915050565b60006110c182610acc565b91506110cc83610acc565b9250827fffffffffffffffffffffffffffffffffffffffffffffffffffffffffffffffff0382111561110157611100610f30565b5b828201905092915050565b7f6f766572666c6f77000000000000000000000000000000000000000000000000600082015250565b6000611142600883610c49565b915061114d8261110c565b602082019050919050565b6000602082019050818103600083015261117181611135565b9050919050565b7f416464726573733a20696e73756666696369656e742062616c616e6365000000600082015250565b60006111ae601d83610c49565b91506111b982611178565b602082019050919050565b600060208201905081810360008301526111dd816111a1565b9050919050565b600081905092915050565b50565b60006111ff6000836111e4565b915061120a826111ef565b600082019050919050565b6000611220826111f2565b9150819050919050565b7f416464726573733a20756e61626c6520746f2073656e642076616c75652c207260008201527f6563697069656e74206d61792068617665207265766572746564000000000000602082015250565b6000611286603a83610c49565b91506112918261122a565b604082019050919050565b600060208201905081810360008301526112b581611279565b9050919050565b7f4f776e61626c653a2063616c6c6572206973206e6f7420746865206f776e6572600082015250565b60006112f2602083610c49565b91506112fd826112bc565b602082019050919050565b60006020820190508181036000830152611321816112e5565b905091905056fea2646970667358221220d73d0cc38c4421dada4d46bc7a1c9efa37040d7750e25477c5801e34823e68dc64736f6c63430008090033",
  "linkReferences": {},
  "deployedLinkReferences": {}
}