{
  "_format": "hh-sol-artifact-1",
  "contractName": "TokenSupplySystem",
  "sourceName": "contracts/TokenSupplySystem.sol",
  "abi": [
    {
      "anonymous": false,
      "inputs": [
        {
          "indexed": true,
          "internalType": "address",
          "name": "previousOwner",
          "type": "address"
        },
        {
          "indexed": true,
          "internalType": "address",
          "name": "newOwner",
          "type": "address"
        }
      ],
      "name": "OwnershipTransferred",
      "type": "event"
    },
    {
      "anonymous": false,
      "inputs": [
        {
          "indexed": false,
          "internalType": "address",
          "name": "account",
          "type": "address"
        }
      ],
      "name": "Paused",
      "type": "event"
    },
    {
      "anonymous": false,
      "inputs": [
        {
          "indexed": false,
          "internalType": "address",
          "name": "account",
          "type": "address"
        }
      ],
      "name": "Unpaused",
      "type": "event"
    },
    {
      "inputs": [
        {
          "internalType": "address[]",
          "name": "_to",
          "type": "address[]"
        },
        {
          "internalType": "uint256[]",
          "name": "_amount",
          "type": "uint256[]"
        },
        {
          "internalType": "uint256[]",
          "name": "_fee",
          "type": "uint256[]"
        }
      ],
      "name": "batchPay",
      "outputs": [],
      "stateMutability": "nonpayable",
      "type": "function"
    },
    {
      "inputs": [],
      "name": "daoTokenAddress",
      "outputs": [
        {
          "internalType": "address",
          "name": "",
          "type": "address"
        }
      ],
      "stateMutability": "view",
      "type": "function"
    },
    {
      "inputs": [],
      "name": "daoTreasuryAddress",
      "outputs": [
        {
          "internalType": "address",
          "name": "",
          "type": "address"
        }
      ],
      "stateMutability": "view",
      "type": "function"
    },
    {
      "inputs": [
        {
          "internalType": "uint256",
          "name": "value",
          "type": "uint256"
        }
      ],
      "name": "mint",
      "outputs": [],
      "stateMutability": "nonpayable",
      "type": "function"
    },
    {
      "inputs": [],
      "name": "owner",
      "outputs": [
        {
          "internalType": "address",
          "name": "",
          "type": "address"
        }
      ],
      "stateMutability": "view",
      "type": "function"
    },
    {
      "inputs": [],
      "name": "paused",
      "outputs": [
        {
          "internalType": "bool",
          "name": "",
          "type": "bool"
        }
      ],
      "stateMutability": "view",
      "type": "function"
    },
    {
      "inputs": [
        {
          "internalType": "address",
          "name": "_to",
          "type": "address"
        },
        {
          "internalType": "uint256",
          "name": "_amount",
          "type": "uint256"
        },
        {
          "internalType": "uint256",
          "name": "_fee",
          "type": "uint256"
        }
      ],
      "name": "pay",
      "outputs": [],
      "stateMutability": "nonpayable",
      "type": "function"
    },
    {
      "inputs": [
        {
          "internalType": "address",
          "name": "_to",
          "type": "address"
        },
        {
          "internalType": "uint256",
          "name": "_amount",
          "type": "uint256"
        },
        {
          "internalType": "uint256",
          "name": "_amountNative",
          "type": "uint256"
        },
        {
          "internalType": "uint256",
          "name": "_fee",
          "type": "uint256"
        }
      ],
      "name": "payAndPayWithNative",
      "outputs": [],
      "stateMutability": "nonpayable",
      "type": "function"
    },
    {
      "inputs": [
        {
          "internalType": "address",
          "name": "_to",
          "type": "address"
        },
        {
          "internalType": "uint256",
          "name": "_amount",
          "type": "uint256"
        },
        {
          "internalType": "uint256",
          "name": "_fee",
          "type": "uint256"
        }
      ],
      "name": "payWithNative",
      "outputs": [],
      "stateMutability": "nonpayable",
      "type": "function"
    },
    {
      "inputs": [],
      "name": "renounceOwnership",
      "outputs": [],
      "stateMutability": "nonpayable",
      "type": "function"
    },
    {
      "inputs": [
        {
          "internalType": "address",
          "name": "_address",
          "type": "address"
        }
      ],
      "name": "setDAOTokenAddress",
      "outputs": [],
      "stateMutability": "nonpayable",
      "type": "function"
    },
    {
      "inputs": [
        {
          "internalType": "address",
          "name": "_address",
          "type": "address"
        }
      ],
      "name": "setDAOTreasuryAddress",
      "outputs": [],
      "stateMutability": "nonpayable",
      "type": "function"
    },
    {
      "inputs": [
        {
          "internalType": "address",
          "name": "newOwner",
          "type": "address"
        }
      ],
      "name": "transferOwnership",
      "outputs": [],
      "stateMutability": "nonpayable",
      "type": "function"
    },
    {
      "inputs": [],
      "name": "unclaimedBalance",
      "outputs": [
        {
          "internalType": "uint256",
          "name": "",
          "type": "uint256"
        }
      ],
      "stateMutability": "view",
      "type": "function"
    }
  ],
  "bytecode": "0x608060405234801561001057600080fd5b5061002d61002261005360201b60201c565b61005b60201b60201c565b60008060146101000a81548160ff0219169083151502179055506001808190555061011f565b600033905090565b60008060009054906101000a900473ffffffffffffffffffffffffffffffffffffffff169050816000806101000a81548173ffffffffffffffffffffffffffffffffffffffff021916908373ffffffffffffffffffffffffffffffffffffffff1602179055508173ffffffffffffffffffffffffffffffffffffffff168173ffffffffffffffffffffffffffffffffffffffff167f8be0079c531659141344cd1fd0a4f28419497f9722a3daafe3b4186f6b6457e060405160405180910390a35050565b6117d78061012e6000396000f3fe608060405234801561001057600080fd5b50600436106100ea5760003560e01c8063715018a61161008c578063a0712d6811610066578063a0712d68146101fd578063a2fa6fc514610219578063e3aab35f14610235578063f2fde38b14610253576100ea565b8063715018a6146101b95780638da5cb5b146101c35780639b978e8b146101e1576100ea565b80633af07ca6116100c85780633af07ca6146101455780633af704bd146101635780635c975abb1461017f5780635f0653461461019d576100ea565b8063087b9b19146100ef5780631c0047291461010b5780631f67c8ea14610129575b600080fd5b61010960048036038101906101049190610e47565b61026f565b005b610113610351565b6040516101209190610ebd565b60405180910390f35b610143600480360381019061013e9190610ed8565b610377565b005b61014d6103ec565b60405161015a9190610f3a565b60405180910390f35b61017d60048036038101906101789190610f55565b61049e565b005b6101876104ea565b6040516101949190610f9d565b60405180910390f35b6101b760048036038101906101b29190610ed8565b610500565b005b6101c1610518565b005b6101cb61052c565b6040516101d89190610ebd565b60405180910390f35b6101fb60048036038101906101f691906111d4565b610555565b005b6102176004803603810190610212919061127b565b610663565b005b610233600480360381019061022e9190610f55565b6106fd565b005b61023d610749565b60405161024a9190610ebd565b60405180910390f35b61026d60048036038101906102689190610f55565b61076f565b005b6102776107f3565b600260015414156102bd576040517f08c379a00000000000000000000000000000000000000000000000000000000081526004016102b490611305565b60405180910390fd5b60026001819055506102cd610871565b8082846102da9190611354565b6102e49190611354565b6102ec6103ec565b101561032d576040517f08c379a0000000000000000000000000000000000000000000000000000000008152600401610324906113f6565b60405180910390fd5b610339848460006108bb565b610344848383610a86565b6001808190555050505050565b600260009054906101000a900473ffffffffffffffffffffffffffffffffffffffff1681565b61037f6107f3565b600260015414156103c5576040517f08c379a00000000000000000000000000000000000000000000000000000000081526004016103bc90611305565b60405180910390fd5b60026001819055506103d5610871565b6103e0838383610a86565b60018081905550505050565b6000600260009054906101000a900473ffffffffffffffffffffffffffffffffffffffff1673ffffffffffffffffffffffffffffffffffffffff166370a08231306040518263ffffffff1660e01b81526004016104499190610ebd565b60206040518083038186803b15801561046157600080fd5b505afa158015610475573d6000803e3d6000fd5b505050506040513d601f19601f82011682018060405250810190610499919061142b565b905090565b6104a66107f3565b80600360006101000a81548173ffffffffffffffffffffffffffffffffffffffff021916908373ffffffffffffffffffffffffffffffffffffffff16021790555050565b60008060149054906101000a900460ff16905090565b6105086107f3565b6105138383836108bb565b505050565b6105206107f3565b61052a6000610cd3565b565b60008060009054906101000a900473ffffffffffffffffffffffffffffffffffffffff16905090565b61055d6107f3565b81518351146105a1576040517f08c379a0000000000000000000000000000000000000000000000000000000008152600401610598906114a4565b60405180910390fd5b80518351146105e5576040517f08c379a00000000000000000000000000000000000000000000000000000000081526004016105dc906114a4565b60405180910390fd5b60005b835181101561065d5761064a848281518110610607576106066114c4565b5b6020026020010151848381518110610622576106216114c4565b5b602002602001015184848151811061063d5761063c6114c4565b5b60200260200101516108bb565b8080610655906114f3565b9150506105e8565b50505050565b61066b6107f3565b600260009054906101000a900473ffffffffffffffffffffffffffffffffffffffff1673ffffffffffffffffffffffffffffffffffffffff166340c10f1930836040518363ffffffff1660e01b81526004016106c892919061153c565b600060405180830381600087803b1580156106e257600080fd5b505af11580156106f6573d6000803e3d6000fd5b5050505050565b6107056107f3565b80600260006101000a81548173ffffffffffffffffffffffffffffffffffffffff021916908373ffffffffffffffffffffffffffffffffffffffff16021790555050565b600360009054906101000a900473ffffffffffffffffffffffffffffffffffffffff1681565b6107776107f3565b600073ffffffffffffffffffffffffffffffffffffffff168173ffffffffffffffffffffffffffffffffffffffff1614156107e7576040517f08c379a00000000000000000000000000000000000000000000000000000000081526004016107de906115d7565b60405180910390fd5b6107f081610cd3565b50565b6107fb610d97565b73ffffffffffffffffffffffffffffffffffffffff1661081961052c565b73ffffffffffffffffffffffffffffffffffffffff161461086f576040517f08c379a000000000000000000000000000000000000000000000000000000000815260040161086690611643565b60405180910390fd5b565b6108796104ea565b156108b9576040517f08c379a00000000000000000000000000000000000000000000000000000000081526004016108b0906116af565b60405180910390fd5b565b80826108c79190611354565b6108cf6103ec565b1015610910576040517f08c379a0000000000000000000000000000000000000000000000000000000008152600401610907906113f6565b60405180910390fd5b600260009054906101000a900473ffffffffffffffffffffffffffffffffffffffff1673ffffffffffffffffffffffffffffffffffffffff1663a9059cbb84846040518363ffffffff1660e01b815260040161096d92919061153c565b602060405180830381600087803b15801561098757600080fd5b505af115801561099b573d6000803e3d6000fd5b505050506040513d601f19601f820116820180604052508101906109bf91906116fb565b506000811115610a8157600260009054906101000a900473ffffffffffffffffffffffffffffffffffffffff1673ffffffffffffffffffffffffffffffffffffffff1663a9059cbb610a0f61052c565b836040518363ffffffff1660e01b8152600401610a2d92919061153c565b602060405180830381600087803b158015610a4757600080fd5b505af1158015610a5b573d6000803e3d6000fd5b505050506040513d601f19601f82011682018060405250810190610a7f91906116fb565b505b505050565b8082610a929190611354565b610a9a6103ec565b1015610adb576040517f08c379a0000000000000000000000000000000000000000000000000000000008152600401610ad2906113f6565b60405180910390fd5b6000821115610b9757600360009054906101000a900473ffffffffffffffffffffffffffffffffffffffff1673ffffffffffffffffffffffffffffffffffffffff166387c9a33f8430856040518463ffffffff1660e01b8152600401610b4393929190611728565b602060405180830381600087803b158015610b5d57600080fd5b505af1158015610b71573d6000803e3d6000fd5b505050506040513d601f19601f82011682018060405250810190610b95919061142b565b505b6000811115610cce57600260009054906101000a900473ffffffffffffffffffffffffffffffffffffffff1673ffffffffffffffffffffffffffffffffffffffff1663a9059cbb3073ffffffffffffffffffffffffffffffffffffffff16638da5cb5b6040518163ffffffff1660e01b815260040160206040518083038186803b158015610c2457600080fd5b505afa158015610c38573d6000803e3d6000fd5b505050506040513d601f19601f82011682018060405250810190610c5c9190611774565b836040518363ffffffff1660e01b8152600401610c7a92919061153c565b602060405180830381600087803b158015610c9457600080fd5b505af1158015610ca8573d6000803e3d6000fd5b505050506040513d601f19601f82011682018060405250810190610ccc91906116fb565b505b505050565b60008060009054906101000a900473ffffffffffffffffffffffffffffffffffffffff169050816000806101000a81548173ffffffffffffffffffffffffffffffffffffffff021916908373ffffffffffffffffffffffffffffffffffffffff1602179055508173ffffffffffffffffffffffffffffffffffffffff168173ffffffffffffffffffffffffffffffffffffffff167f8be0079c531659141344cd1fd0a4f28419497f9722a3daafe3b4186f6b6457e060405160405180910390a35050565b600033905090565b6000604051905090565b600080fd5b600080fd5b600073ffffffffffffffffffffffffffffffffffffffff82169050919050565b6000610dde82610db3565b9050919050565b610dee81610dd3565b8114610df957600080fd5b50565b600081359050610e0b81610de5565b92915050565b6000819050919050565b610e2481610e11565b8114610e2f57600080fd5b50565b600081359050610e4181610e1b565b92915050565b60008060008060808587031215610e6157610e60610da9565b5b6000610e6f87828801610dfc565b9450506020610e8087828801610e32565b9350506040610e9187828801610e32565b9250506060610ea287828801610e32565b91505092959194509250565b610eb781610dd3565b82525050565b6000602082019050610ed26000830184610eae565b92915050565b600080600060608486031215610ef157610ef0610da9565b5b6000610eff86828701610dfc565b9350506020610f1086828701610e32565b9250506040610f2186828701610e32565b9150509250925092565b610f3481610e11565b82525050565b6000602082019050610f4f6000830184610f2b565b92915050565b600060208284031215610f6b57610f6a610da9565b5b6000610f7984828501610dfc565b91505092915050565b60008115159050919050565b610f9781610f82565b82525050565b6000602082019050610fb26000830184610f8e565b92915050565b600080fd5b6000601f19601f8301169050919050565b7f4e487b7100000000000000000000000000000000000000000000000000000000600052604160045260246000fd5b61100682610fbd565b810181811067ffffffffffffffff8211171561102557611024610fce565b5b80604052505050565b6000611038610d9f565b90506110448282610ffd565b919050565b600067ffffffffffffffff82111561106457611063610fce565b5b602082029050602081019050919050565b600080fd5b600061108d61108884611049565b61102e565b905080838252602082019050602084028301858111156110b0576110af611075565b5b835b818110156110d957806110c58882610dfc565b8452602084019350506020810190506110b2565b5050509392505050565b600082601f8301126110f8576110f7610fb8565b5b813561110884826020860161107a565b91505092915050565b600067ffffffffffffffff82111561112c5761112b610fce565b5b602082029050602081019050919050565b600061115061114b84611111565b61102e565b9050808382526020820190506020840283018581111561117357611172611075565b5b835b8181101561119c57806111888882610e32565b845260208401935050602081019050611175565b5050509392505050565b600082601f8301126111bb576111ba610fb8565b5b81356111cb84826020860161113d565b91505092915050565b6000806000606084860312156111ed576111ec610da9565b5b600084013567ffffffffffffffff81111561120b5761120a610dae565b5b611217868287016110e3565b935050602084013567ffffffffffffffff81111561123857611237610dae565b5b611244868287016111a6565b925050604084013567ffffffffffffffff81111561126557611264610dae565b5b611271868287016111a6565b9150509250925092565b60006020828403121561129157611290610da9565b5b600061129f84828501610e32565b91505092915050565b600082825260208201905092915050565b7f5265656e7472616e637947756172643a207265656e7472616e742063616c6c00600082015250565b60006112ef601f836112a8565b91506112fa826112b9565b602082019050919050565b6000602082019050818103600083015261131e816112e2565b9050919050565b7f4e487b7100000000000000000000000000000000000000000000000000000000600052601160045260246000fd5b600061135f82610e11565b915061136a83610e11565b9250827fffffffffffffffffffffffffffffffffffffffffffffffffffffffffffffffff0382111561139f5761139e611325565b5b828201905092915050565b7f696e73756666696369656e742062616c616e6365000000000000000000000000600082015250565b60006113e06014836112a8565b91506113eb826113aa565b602082019050919050565b6000602082019050818103600083015261140f816113d3565b9050919050565b60008151905061142581610e1b565b92915050565b60006020828403121561144157611440610da9565b5b600061144f84828501611416565b91505092915050565b7f6c656e677468206d69736d617463680000000000000000000000000000000000600082015250565b600061148e600f836112a8565b915061149982611458565b602082019050919050565b600060208201905081810360008301526114bd81611481565b9050919050565b7f4e487b7100000000000000000000000000000000000000000000000000000000600052603260045260246000fd5b60006114fe82610e11565b91507fffffffffffffffffffffffffffffffffffffffffffffffffffffffffffffffff82141561153157611530611325565b5b600182019050919050565b60006040820190506115516000830185610eae565b61155e6020830184610f2b565b9392505050565b7f4f776e61626c653a206e6577206f776e657220697320746865207a65726f206160008201527f6464726573730000000000000000000000000000000000000000000000000000602082015250565b60006115c16026836112a8565b91506115cc82611565565b604082019050919050565b600060208201905081810360008301526115f0816115b4565b9050919050565b7f4f776e61626c653a2063616c6c6572206973206e6f7420746865206f776e6572600082015250565b600061162d6020836112a8565b9150611638826115f7565b602082019050919050565b6000602082019050818103600083015261165c81611620565b9050919050565b7f5061757361626c653a2070617573656400000000000000000000000000000000600082015250565b60006116996010836112a8565b91506116a482611663565b602082019050919050565b600060208201905081810360008301526116c88161168c565b9050919050565b6116d881610f82565b81146116e357600080fd5b50565b6000815190506116f5816116cf565b92915050565b60006020828403121561171157611710610da9565b5b600061171f848285016116e6565b91505092915050565b600060608201905061173d6000830186610eae565b61174a6020830185610eae565b6117576040830184610f2b565b949350505050565b60008151905061176e81610de5565b92915050565b60006020828403121561178a57611789610da9565b5b60006117988482850161175f565b9150509291505056fea264697066735822122065df3329337758f2a8770fcb8f6e69345d0d9c1714326a3a447c75c3f2165f7064736f6c63430008090033",
  "linkReferences": {},
  "deployedLinkReferences": {}
}